:100000000C946F010C948E010C948E010C948E0153
:100010000C948E010C948E010C948E010C948E0124
:100020000C948E010C94B60A0C948E010C948E01E3
:100030000C948E010C94DC030C948E010C948E01B4
:100040000C948E010C948E010C948E010C948E01F4
:100050000C948E010C948E010C948E010C948E01E4
:100060000C948E010C948E010C948E010C948E01D4
:100070000C948E010C949F140C948E010C948E01A0
:100080000C948E010C948E010C948E010C948E01B4
:100090000C9458270C948E010C948E010C943643CA
:1000A0000C948E010C948E010C94E8010C94F901CF
:1000B0000C948E010C948E010C948E010C947D0E88
:1000C0000C948E010C948E010C948E010C948E0174
:1000D0000C948E010C948E010C948E010C948E0164
:1000E0000C948E010C948E010C948E010C948E0154
:1000F0000C9421030C948E010C948E010C94F50247
:100100000C948E010C948E010C948E010C948E0133
:100110000C948E010C948E010C948E010C948E0123
:1001200086282328FD2E152F3E28662B7E2B9D2BFF
:10013000BC2B022A242A572A8B2ACE2A122B2E2B9A
:100140004A2B0D29C728E1281F294729522961294F
:100150001828712984299629B529D329DA29E02973
:10016000E829F129842D1828892DAC2DFD2D1F2E6D
:10017000372E492E562EAC2EB82EF62EA028652EE0
:10018000892E8C2E912E882C592C6A2CAA2CB82CB6
:10019000C32CDD2CEA2CF92C182D1F2D182818281B
:1001A0001828182818281828182818282E2D482DFF
:1001B000522D5D2D642DDB2B1A2C282C3B2C05A8F1
:1001C0004CCDB2D44EB93836A9020C50B9918688BC
:1001D000083CA6AAAA2ABE000000803F6E616E00FD
:1001E000696E660000407A10F35A00A0724E18093A
:1001F0000010A5D4E80000E87648170000E40B548E
:10020000020000CA9A3B000000E1F505000080965C
:100210009800000040420F000000A086010000008E
:10022000102700000000E803000000006400000048
:1002300000000A00000000000100000000002C7611
:10024000D888DC674F0823DFC1DFAE59E1B1B7962C
:10025000E5E3E453C63AE651997696E8E6C2842689
:10026000EB898C9B62ED407C6FFCEFBC9C9F40F265
:10027000BAA56FA5F490055A2AF75C936B6CF967E1
:100280006DC11BFCE0E40D47FEF520E6B500D0EDA6
:10029000902E0300943577050080841E080000200E
:1002A0004E0A000000C80C333333330F986E1283AC
:1002B0001141EF8D2114893BE65516CFFEE6DB1880
:1002C000D1844B381BF77C1D901DA4BBE424203245
:1002D00084725E228100C9F124ECA1E53D2711243E
:1002E0001FBECFEFD1E4DEBFCDBF13E0A0E0B2E090
:1002F000E0E8F2EA00E00BBF02C007900D92A432E2
:10030000B107D9F710E2A4E2B3E001C01D92AD3607
:10031000B107E1F70E946B130C943E510C9400005E
:1003200014BE88E10FB6F8948093600010926000CC
:100330000FBE78940C949F0190E00C94B40110923D
:100340003B0A80E29EE49093A9008093A800E1EA32
:10035000F0E088E08083808182608083E2E7F0E0E3
:1003600080818260808308952091A4003091A5004F
:10037000280F391F3093AB002093AA002091AA00C8
:100380003091AB008091A8009091A900821793074B
:1003900070F48091AA009091AB002091A800309158
:1003A000A900821B930B9093AB008093AA0010923C
:1003B00024038091720084608093720080912403F2
:1003C0008823E1F3809172008B7F809372000895FF
:1003D0001F920F920FB60F9211248F9380913B0AB8
:1003E0008F5F80933B0A8F910F900FBE0F901F90ED
:1003F00018951F920F920FB60F9211248F9381E0E0
:10040000809324038F910F900FBE0F901F9018952B
:100410000F931F93CF93DF9310924E0183E080934D
:10042000420186E080934201809141018F718630C4
:10043000D9F7C0E0D0E000E010E081E00E949C012C
:100440002091460122952695237030E00C2E02C0A3
:10045000220F331F0A94E2F7022B132B2296C0318E
:10046000D10559F783E08093420188E080934201EF
:10047000809141018F718830D9F78FEF80934F01C0
:1004800080914E01886080934E0180914E0180647E
:1004900080934E01C801DF91CF911F910F91089574
:1004A00080912E03882361F083E08093420186E1EE
:1004B00080934201809141018F718631D9F708956F
:1004C00083E08093420188E0809342018091410162
:1004D0008F718830D9F708958091390181608093B8
:1004E000390183E08093420188E08093420180914A
:1004F00041018F718830D9F780916E0180628093BD
:100500006E0180916E018F7E80936E018FEF8093DC
:100510004F0180914E01886080934E0180914E0181
:10052000806480934E0180914C01806880934C01DF
:100530000E94080280936D011092280310922E03EE
:1005400081E080930A020895E8E2F3E090819860E8
:10055000908380932E030895E8E2F3E09081916008
:100560009083809329030895E8E2F3E020812260DC
:10057000208390932B0380932A030895E8E2F3E00D
:1005800020812460208390932D0380932C03089571
:1005900080910A02813011F081E008959091280342
:1005A0009111FBCF80E0089523E02093420129E1DF
:1005B00020934201209141012F712931D9F7262F33
:1005C0002E5F20938001662349F0FC01A1E8B1E091
:1005D00091919D939E2F981B9617D0F382E0809364
:1005E000420183E080930A0208951F920F920FB692
:1005F0000F9211248F93809141018F71893131F0D5
:100600008F910F900FBE0F901F90189583E08093ED
:10061000420189E080934201809141018F718930CC
:10062000D9F784E080930A028091420182958695F1
:100630008770809327038F910F900FBE0F901F90AC
:1006400018951F920F920FB60F9211248F9389E085
:1006500080934201809147018093260380917B0122
:100660008093250385E080930A028F910F900FBE3F
:100670000F901F901895CF93DF9300D000D01F925A
:10068000CDB7DEB780910A02843009F481C085308D
:1006900009F43FC0813041F00F900F900F900F9000
:1006A0000F90DF91CF910895909128039923A1F3A2
:1006B00083E08093420188E0809342018091410170
:1006C0008F718830D9F790FF09C0209129032F71CD
:1006D00080914801807E822B8093480191FF08C061
:1006E00080912A038093620180912B0380936301A0
:1006F00092FF08C080912C038093600180912D03AC
:100700008093610194FD53C00E945002109228030F
:10071000C3CF8091250380E090E040E0FC01E058E9
:10072000FE4F2081FC01E15DFC4F20834F5F209153
:100730002503842F90E030E0281739077CF78FE2FB
:1007400093E09A8389838091250382508B83E09183
:100750002503F0E0E15DFC4F80818C8380912603CE
:100760008A558D83CE0101960E94970580914101A3
:100770008F718930D9F781E080930A020E9450027C
:100780000F900F900F900F900F90DF91CF910895E1
:10079000809127030E948208809141018F718930E6
:1007A000D9F781E080930A020E945002E9CF0E94AB
:1007B00008020E94A20EA8CF1F920F920FB60F92AE
:1007C00011248F9381E08093AF038F910F900FBE20
:1007D0000F901F9018951092400A1092410A1092A3
:1007E0003D0A10923C0A1092430A1092420A10925B
:1007F000450A1092440A1092470A1092460A0E9433
:10080000BB070E9473050E94F1040C94410490936D
:100810003D0A80933C0A0C94BE0290933F0A809359
:100820003E0A0C94B402E82FF0E0EE0FFF1FEE5BDF
:10083000F54F7183608308950E94CB050E949E0846
:100840000C945F04E091B003F091B103309731F460
:1008500016C00190F081E02D309789F0228133811C
:1008600028173907B1F7DC01A158BF4F2C91278712
:10087000DC01AE57BF4F2C91208B22E024830C94D7
:100880001D051092B1031092B0030895FC0114826B
:100890001786138212828091B0039091B103009762
:1008A00039F091838083F093B103E093B00308950E
:1008B00011821082F093B103E093B00308950F9377
:1008C0001F93CF93DF93E091B003F091B103309782
:1008D00009F47BC0EF018C81811155C08C850E9489
:1008E000F8048C01009709F46DC09B838A8381E032
:1008F0008C83F801ED57FF4F82E294E0918380836F
:10090000F801EE57FF4F898582FB882780F98083A5
:100910009985F801838590FB80F98387998593FBFE
:10092000992790F990FB82F9877083878091400A1C
:100930008F5F8093400A848780913C0A90913D0AA2
:10094000968785878D819E81908B878798859F70FC
:100950008189807F892B818B9F819295907F8F7079
:10096000892B818B98012E5E3F4F4C856A857B8554
:1009700050E0C9010E945C50C801DF91CF911F91E6
:100980000F910C94D607823039F00990D881C02D90
:10099000209709F0A0CF19C0EC17FD0711F41AC079
:1009A000FC01808191818C179D07D1F78881998105
:1009B00091838083ED85FE85CE01DF91CF911F91DC
:1009C0000F91099482E08C838F87DF91CF911F91E3
:1009D0000F910895888199819093B1038093B0031A
:1009E000E9CF1092B203109237041092BC0408951C
:1009F0009091B203992361F0909137049923B9F053
:100A00009091BC049923B1F020E030E0C901089531
:100A100040E050E095E8949FF001959FF00D11247F
:100A2000EE54FC4F805F81839F01C901089541E02E
:100A300050E0F0CF42E050E0EDCFFC01108208958D
:100A400095E8899F900111242E543C4FC9010895C7
:100A5000FC01DC01A158BF4F1C92DC01A058BF4F24
:100A60001D921C92DC01AE57BF4F1C92DC01AD57AA
:100A7000BF4F1D921C921386A0E4BAE08C918F5F49
:100A80008C93848780913C0A90913D0A9687858754
:100A9000108A1786118A08950C941D05E5E4F5E087
:100AA00040E0208131812115310529F021503109A3
:100AB0003183208341E0359625E0E737F20789F757
:100AC000411101C008950C947F09DC011596ED9148
:100AD000FC9116972081222311F080E008950E9456
:100AE0005E0881E00895E5E4F5E011821082359614
:100AF00085E0E737F807C9F71092740584E190E0C4
:100B0000A0E0B0E080937B0590937C05A0937D05E9
:100B1000B0937E0510927F058EE495E09093810559
:100B20008093800565E675E080E00C941304CF9314
:100B3000DF93EC01E881F9818181883819F0DF9138
:100B4000CF9108958081813611F08134C1F78A8177
:100B50008031A8F380510E94F804009781F320E2CD
:100B6000FC0120832B81E158FF4F20832C81FC0165
:100B7000E058FF4F20839C012E5F3F4F4A816881E0
:100B8000798150E0C9010E945C50809174058F5FAB
:100B900080937405D4CF2F923F925F926F927F9291
:100BA0008F929F92AF92BF92CF92DF92EF92FF927D
:100BB0000F931F93CF93DF93CDB7DEB72A970FB66E
:100BC000F894DEBF0FBECDBF809174058823F1F08D
:100BD000512C54E2752E6CE4C62E65E0D62E72E2DE
:100BE000672EE7E9AE2EB12C852D0E9420058C01E1
:100BF000DC018C91823211F1843209F421C18032FE
:100C000009F4B3C05394B3E05B12EECF2A960FB64B
:100C1000F894DEBF0FBECDBFDF91CF911F910F9132
:100C2000FF90EF90DF90CF90BF90AF909F908F900C
:100C30007F906F905F903F902F90089510924105A4
:100C4000D80151968C91519782958F70282F30E062
:100C5000243031050CF0FDC0F901EE0FFF1FEE5BF3
:100C6000F54F0190F081E02D309709F4F2C01D9608
:100C70002D913C911E973A83298351969C915197CF
:100C80009F709B838C83A8014E5E5F4F5F834E8372
:100C900011968C91119780518887A158BF4F8C91E4
:100CA0008987D801A058BF4F8C918A87D8011B969D
:100CB0008C91982F937082FDE8C080E0892BD80139
:100CC0001F964D915C9150974F3F5F4F09F4E8C0DC
:100CD00090E0892BD80119964D915C911A972417B1
:100CE000350709F4DBC090E0892BD80115962D91CA
:100CF0003C9116972F3F3F4F09F4CEC090E0892BCF
:100D00008D83CE0101960995F801278130852F3F0B
:100D10003F4F09F4A6C060E0F801938590FFB0C092
:100D2000882309F4ADC083E00E94F8047C01009799
:100D3000C9F00E942805F701ED57FF4FD182C0820C
:100D4000D8011D962D913C911E97F701308B278776
:100D5000128A80914105848B1C968C91838BC701EC
:100D60000E94D607D8017C924DCFF801708227856A
:100D700030892F3F3F4F09F48AC020903C0A3090C1
:100D80003D0AF801E584F6842E143F0409F43ACFB5
:100D9000838581FD37CF4801FDE08F0E911CE2E491
:100DA000F5E020E030E08FEF0FC0D4016D917C9131
:100DB000408151816417750709F474C02F5F3F4F5C
:100DC00035962A30310559F043815481452B69F716
:100DD000822F2F5F3F4F35962A303105A9F78F3F7D
:100DE00009F410CF992787FD9095FC01EE0FFF1FA6
:100DF000EE0FFF1FE80FF91FEE5BFA4FF182E08262
:100E0000D8011C968C918283B482A38285E795E0F9
:100E10000E947F0920903C0A30903D0AF8018781AA
:100E20009085019609F453C0F80187859089821551
:100E3000930519F0019609F0E5CED8016C92E2CE47
:100E4000C8010E941D05809174058150809374052E
:100E5000D9CE80E0F801278130852F3F3F4F09F040
:100E60005ACF61E040913C0A50913D0AD8011F964B
:100E70002D913C9150974217530709F04CCF4CCF1E
:100E8000611151CFD8017C92BDCE80E217CF1B9665
:100E90008C9180FF72CFB6CE90E131CF98E024CF15
:100EA00094E017CFF8018485F901EE0FFF1FEE0FD4
:100EB000FF1FE20FF31FEE5BFA4F9281282F291BD1
:100EC00012160CF09FCE8283B482A382A7CFF801C2
:100ED000878590898215930509F4AFCFF8012581A4
:100EE00036812F3F3F4F09F4A5CFD8011B962C9197
:100EF00022FDA0CFC8010E94140820903C0A309027
:100F00003D0A92CF0C941D05FF920F931F93CF9330
:100F1000DF93EC0180918405882339F110E085E1AD
:100F2000F82E00E1812F0E942005FC018081843190
:100F300059F01F5F1330B1F7CE01DF91CF911F91B0
:100F40000F91FF900C947F09DF01A058BF4F2D91A6
:100F50003C911197215031092D933C93232B49F754
:100F6000F082E158FF4F0083E4CFDF91CF911F91D2
:100F70000F91FF90089510928305109282051092B0
:100F8000840582E390E0A0E0B0E080938B0590932D
:100F90008C05A0938D05B0938E0510928F0584E883
:100FA00097E090939105809390050895FC01DC01F2
:100FB000AE57BF4F8C9191E19083DF01A158BF4F95
:100FC0001C9280FF20C08FEF9FEF968385838785DB
:100FD00090899087878320913C0A30913D0A32871F
:100FE00021872091410A2F5F2093410A2483019693
:100FF00089F081E698E893838283809184058F5FEE
:1010000080938405089580913E0A90913F0A9683CB
:101010008583DDCF81E498E8938382838091840582
:101020008F5F8093840508950F931F93CF93DF9371
:101030008C01FC01818180510E94F804EC01009731
:10104000C1F1FC01ED57FF4F82E897E09183808367
:101050009E012E5F3F4FF80141810E5F1F4F50E010
:10106000B801C9010E945C5081E18883FE01E1580A
:10107000FF4F108281E498E89B838A838FEF9FEF74
:1010800098878F8380913E0A90913F0A9E838D833B
:1010900080913C0A90913D0A9A8789878091410A04
:1010A0008F5F8093410A8C83809184058F5F80934A
:1010B0008405DF91CF911F910F9108951F93CF93D6
:1010C000DF93FC01C581D68180918405882359F086
:1010D00010E0812F0E942005FC018081843139F0CD
:1010E0001F5F1330B1F7DF91CF911F910895948561
:1010F00089819813F5CF85E180838A81EE57FF4F70
:101100008083F1CFE0918205F0918305833080F0F8
:10111000833081F0853081F081E0DF01A158BF4F3D
:101120008C9383E180831092830510928205089549
:1011300080E0F3CF80E2F1CF81E2EFCFAF92BF92B8
:10114000CF92DF92EF921F93CF93DF93809184052C
:101150008823C1F010E095E1E92E24E1C22E37E0AA
:10116000A32EB12C42E1D42E812F0E942005EC0148
:101170008881833181F0853171F18131E9F01F5F20
:10118000133091F7DF91CF911F91EF90DF90CF90C7
:10119000BF90AF900895FE01E158FF4F808181110B
:1011A00009C04D855E8520913C0A30913D0A421769
:1011B0005307F9F0E882E3CF0E94C8028111DFCF24
:1011C000D0938305C0938205D8826981CE010296AF
:1011D0000E94D402D4CFFE01ED57FF4F0190F08161
:1011E000E02DCE010995809184058150809384057E
:1011F000C6CF8B8580FFDECFC882C058DF4FB98253
:10120000A88285E895E00E947F09B9CF0E949001ED
:101210000E947A090E946C020C94EB030E943B032B
:101220000E941C040C9495090F931F93CF93DF9396
:10123000EC018091920590919305009709F447C0C5
:101240004E815F8168857985FC01A0E0B0E001C036
:10125000F90102811381248135814017510762070A
:101260007307E0F0401B510B620B730B208131813F
:10127000DF012115310561F74A835B836C837D8330
:101280001097D1F08D919C91119799838883CD937C
:10129000DC93DF91CF911F910F910895041B150BE3
:1012A000260B370B02831383248335834A835B83A6
:1012B0006C837D83109731F799838883D09393054E
:1012C000C0939205DF91CF911F910F9108951982DC
:1012D00018824E815F81688579854A835B836C8340
:1012E0007D83D0939305C0939205DF91CF911F9199
:1012F0000F91089510929305109292050895E09130
:101300009205F0919305309761F08E179F0721F4B5
:101310000BC08E179F0739F00190F081E02D3097B8
:10132000C1F70C94140908950895CF92DF92EF92BB
:10133000FF92CF93DF9380913B0A882309F458C032
:101340009FB7F89480913B0A10923B0A9FBF90E0B0
:10135000A0E0B0E0880F991FAA1FBB1F6C017D01A0
:10136000CC0CDD1CEE1CFF1CCC0CDD1CEE1CFF1C91
:10137000C80ED91EEA1EFB1EC0919205D09193059E
:101380002097B1F14A815B816C817D81C416D506BD
:10139000E606F706A0F424C0EB85FC85CE0109958E
:1013A000C0919205D0919305209711F14A815B81FC
:1013B0006C817D81C416D506E606F70688F0C41A4E
:1013C000D50AE60AF70A888199819093930580935C
:1013D00092058A85813001F7CE010E941409DCCF85
:1013E0004C195D096E097F094A835B836C837D8399
:1013F000DF91CF91FF90EF90DF90CF90089581E043
:1014000080930C028091480A86FF04C08091480AAC
:1014100087FDA7C08091480A86FF22C080919A026A
:1014200090919B02892BE9F080919902811123C050
:1014300010929B0210929A021092990281E00E94EF
:1014400002101092DC1E1092DB1E1092DE1E109213
:10145000DD1E1092AD024FEF60E080E00C94A30E11
:10146000089583E00E9402100E941A37892B09F424
:1014700076C00C940B370E946D4080ED8093501520
:101480008EE08093511580919A0290919B029093E7
:10149000521580919A0290919B028093531510925D
:1014A000541586E78093551588E080935615109261
:1014B0005715109258151092591510925A158FEF12
:1014C00080935B1510925C1582E180935D156091AD
:1014D000511520E04FEF5FEF80E595E10E94BC34AD
:1014E0006091511520E04FEF5FEF80E595E10E949C
:1014F000BC346091511520E04FEF5FEF80E595E13E
:101500000E94BC346091511520E04FEF5FEF80E501
:1015100095E10E94BC346091511520E04FEF5FEFE0
:1015200080E595E10E94BC346091511520E04FEFB9
:101530005FEF80E595E10E94BC341092C21E1092CC
:101540009C0280E090E0FC01EE0FFF1FE053FB4E99
:1015500011821082019680349105A9F769CF0C940D
:10156000AB360E94C02683E00C9402101F920F92AB
:101570000FB60F9211240F900FBE0F901F90189569
:101580000E94750E80919A0290919B02892B31F0F6
:101590008091DB1E9091DC1E0E942B410C949E409A
:1015A000CF93DF93CDB7DEB729970FB6F894DEBFA0
:1015B0000FBECDBF0E94750E80919A0290919B0242
:1015C000892B21F08091990281111EC08091AD027A
:1015D000813009F443C0833009F440C080919A02FD
:1015E00090919B02892B29F080919902882309F41C
:1015F00065C00E94374229960FB6F894DEBF0FBE31
:10160000CDBFDF91CF9108958091DB1E9091DC1EBC
:10161000892B09F04DC080919C0290E0019663E017
:1016200070E00E947C4D80939C0280919C028130EE
:1016300009F455C008F045C08091DB1E9091DC1E76
:10164000892B21F60E9412260E946D404FEF60E028
:1016500080E00E94A30E1092C21ECDCF82E0809344
:10166000AD0280919A0290919B02892BF1F080ED5E
:10167000898389E08A8380919A0290919B029B835F
:1016800080919A0290919B028C831D828DE48E83BF
:1016900083E08F83188682E1898720E04FEF5FEF38
:1016A00069E0CE0101960E94BC340E941226A3CFAD
:1016B00080919C02882309F489CFADCF0E947642A5
:1016C0009ACF823009F082CF0E9412264FEF6FEF3F
:1016D00080E00E94A30E89E08093C21E8CCF0E94FE
:1016E0006D4040E06FEF80E00E94A30E87E08093A2
:1016F000C21E81CF80ED97E0A0E0B0E080934E0A5B
:1017000090934F0AA093500AB093510A81E08093BE
:101710004D0A8FEF99E09093530A8093520A8DE41B
:101720009AE00C9441358DE49AE00C940D358F923B
:101730009F92AF92BF92CF92DF92EF92FF920F9360
:101740001F93CF93DF93CDB7DEB72C970FB6F894E6
:10175000DEBF0FBECDBFE62EE8269091470299234B
:1017600009F442C0E6FA442740F9E7FC93C0E5FCDF
:10177000446066FD63C030E021E067FD63C0226025
:1017800065FF63C0346080E289838AE08A83809148
:101790004D0290914E02A0914F02B09150028B8366
:1017A0009C83AD83BE834F83388729871A868091B7
:1017B000510290915202892B09F449C020911A0FCD
:1017C00030911B0F809151029091520228173907D6
:1017D000F1F1409151025091520221E06AE0CE01B4
:1017E00001960E94BC3443C06623F9F090910C022C
:1017F00091113DC0E6FE52C06C878B8766FF62C0C8
:101800000E947A0B20E030E06C858B85E7FC53C0AA
:10181000E5FE47C065FD45C086FD46C085FD6DC03F
:1018200087FF25C00E94D00A22C090910C02992304
:10183000E9F210920C0210920B0219C031E020E084
:1018400067FF9DCF326065FD9DCF24609CCF4091A6
:101850001A0F50911B0F21E06AE070E0CE01019653
:101860000E94B127FC01618170E00E9497272C96AD
:101870000FB6F894DEBF0FBECDBFDF91CF911F91A1
:101880000F91FF90EF90DF90CF90BF90AF909F901F
:101890008F9008954260E5FE6CCF6ACF20E030E083
:1018A000B5CF232B21F3B8CF87FD41C085FD25C0DF
:1018B0000E94C00ADCCF67FD0CC010920B0221E031
:1018C00030E0A6CF0E94930B21E030E06C858B8541
:1018D0009DCF91E090930B0280904D0290904E022C
:1018E000A0904F02B09050028092490A90924A0A0A
:1018F000A0924B0AB0924C0A8BCF0E94750E809139
:10190000510290915202892B49F04FEF60E080E044
:101910000E94A30E10925202109251021092DC1EED
:101920001092DB1E1092DE1E1092DD1EA0CF81E011
:101930006C870E9402100E94A8426C85662319F0F1
:1019400081E080930C028091200F811126C080914C
:10195000630F811122C08091A60F81111EC032E554
:10196000C32E3FE0D32EE12CF12CF6011182108220
:10197000FFEFEF1AFF0A0BED1FE029EC3FE340E019
:1019800050E0BA01C7010E94181C83E4C80ED11CA4
:10199000E3E0EE16F10449F76ACF0E94122667CF02
:1019A000CF9380914D0290914E02A0914F02B09141
:1019B000500240910D0250910E0260910F02709101
:1019C0001002841B950BA60BB70B4997A105B10517
:1019D000F0F0C9B1C095C07EC093480A8091110251
:1019E0008C17A9F06C2F0E94970B80914D0290915B
:1019F0004E02A0914F02B091500280930D0290933D
:101A00000E02A0930F02B0931002C0931102CF9167
:101A100008951092B100249808950C94090DCF9365
:101A2000DF9382E48093B000A3EBB0E082EB8C9371
:101A3000E1EBF0E085E080832FEF32E597E0215085
:101A400030409040E1F700C000001082CFE1DEE4BA
:101A50002197F1F700C0000095E89C938083DFEFA9
:101A600022E537E0D15020403040E1F700C00000CF
:101A70001082249881E08093DC0D84E690E0A0E061
:101A8000B0E08093DD0D9093DE0DA093DF0DB09359
:101A9000E00D8DE09DE09093E20D8093E10DDF91EC
:101AA000CF9108959C01009709F18A3F910578F044
:101AB00085E08093B10064E274EF80E090E0249AC6
:101AC00040E050E00E94B24D2093B300089587E0BB
:101AD0008093B10064E87EE180E090E0249A40E0E9
:101AE00050E00E94B24D2093B30008950C94090D6C
:101AF000CF93DF93C82FCF7082958F7009F161E08B
:101B000090E0660F9F5F9813FCCF70E0D0E0CC0FA1
:101B1000DD1FCC0FDD1FCE5EDD4F882777FD809562
:101B2000982F0E94CC47288139814A815B810E948D
:101B3000B9480E949E47CB01DF91CF910C94520D82
:101B400061E070E0E3CF0F931F93CF93DF9300D05A
:101B5000CDB7DEB70E94090D0091430210914402F7
:101B60000115110509F480C080914502909146024B
:101B7000801791070CF05EC03091EB0D20E0880FCC
:101B8000991F820F931F45960E9442140E94780D60
:101B90003091EB0D20E08091450290914602880F34
:101BA000991F820F931F44960E94421480939905B7
:101BB00040914502509146024F5F5F4F509346025D
:101BC0004093450260914302709144026417750787
:101BD00094F40E945D4F8A830E945D4F89830E9426
:101BE0005D4F4A8169810F900F90DF91CF911F91D6
:101BF0000F910C94A30E1092EC0D282F30E040E0D2
:101C000050E06091950570919605809197059091AF
:101C100098050E94904D2093ED0D3093EE0D40936A
:101C2000EF0D5093F00D83EA9DE09093F20D8093B9
:101C3000F10DCFCF81E08093EC0D1092460210920F
:101C4000450210924402109243020E94090D109224
:101C500042024FEF60E080E00F900F90DF91CF9154
:101C60001F910F910C94A30E9091EB0D80E0429682
:101C70000E944214809394059091EB0D80E043966E
:101C80000E944214082F10E0109344020093430274
:101C90002091940530E040E050E060E879EA83E08C
:101CA00090E00E94904D20939505309396054093C7
:101CB00097055093980558CF91E0909342029093E6
:101CC000EC0D1092ED0D1092EE0D1092EF0D1092A2
:101CD000F00D23EA3DE03093F20D2093F10D809357
:101CE000EB0D8CEE9DE00C94413586EE90E00E9469
:101CF000520D8CED9DE00C9441351F920F920FB662
:101D00000F9211248F939F93AF93BF9380914D02B5
:101D100090914E02A0914F02B09150020196A11DE8
:101D2000B11D80934D0290934E02A0934F02B09349
:101D30005002BF91AF919F918F910F900FBE0F9066
:101D40001F901895089590E1899F90011124309378
:101D500099002093980090E1699F9001112430939D
:101D60009D0020939C0090E1499F900111243093A5
:101D70009B0020939A008093000E6093010E409385
:101D8000020E08958091FB0D9091FC0D01979093A8
:101D9000FC0D8093FB0D181619061CF081E0809352
:101DA0000A0F4091020E40586091010E60588091D8
:101DB000000E80580C94A30E20E1829FC0011124D4
:101DC000909399008093980080E1689FB00111245E
:101DD00070939D0060939C0020E1429FA00111241C
:101DE00050939B0040939A000895CF93DF93809186
:101DF0009A0290919B02892B59F180919902882334
:101E000039F1C0915702D09158029E01A9E8B8E873
:101E10000E945C4D969587959695879596958795A2
:101E20004FE0489F9001499F300D1124CE01821B45
:101E3000930B039780F44091BD1E6091BC1E80916E
:101E4000BB1E0E94DC0E2196D0935802C09357020D
:101E5000DF91CF9108954091020E6091010E809123
:101E6000000E0E94DC0EEFCF0F93CF93DF9300D0D4
:101E70001F92CDB7DEB781E08B8302E09E012F5F1A
:101E80003F4F41E0BE016D5F7F4F8CE10E946B458B
:101E90000E949945998180E09093FE0D8093FD0DFD
:101EA0008091FD0D9091FE0D2A81822B9093FE0D65
:101EB0008093FD0D83E08B839E012F5F3F4F41E0B8
:101EC000BE016D5F7F4F8CE10E946B450E9499457A
:101ED000998180E09093050F8093040F8091040F07
:101EE0009091050F2A81822B9093050F8093040F08
:101EF00085E08B839E012F5F3F4F41E0BE016D5F08
:101F00007F4F8CE10E946B450E949945998180E04A
:101F100090931E0F80931D0F80911D0F90911E0FA7
:101F20002A81822B90931E0F80931D0F80E00F90CB
:101F30000F900F90DF91CF910F910895CF93C82FFD
:101F40008823F1F040E06FEF80E00E94A30E2FEFB6
:101F500081EE94E0215080409040E1F700C0000005
:101F600040E060E08FEF0E94A30E2FEF81EE94E03F
:101F7000215080409040E1F700C00000C15011F7AF
:101F8000CF91089585E00C949E0F0F93CF93DF932C
:101F900000D000D0CDB7DEB78DE08C8301E09E018C
:101FA0002D5F3F4F41E0BE016C5F7F4F8CE10E948F
:101FB0006B450E949945892B09F58B818A3219F06E
:101FC00084E10E949E0F8AE2898389E18A8342E04C
:101FD000BE016F5F7F4F8CE10E942F450E949945A3
:101FE000892B19F084E10E949E0F80E00F900F90E2
:101FF0000F900F90DF91CF910F91089584E10E948F
:102000009E0FDBCF2091FB0D3091FC0D12161306B5
:102010000CF4089590E0880F991F9093FC0D809325
:10202000FB0D10920A0F84E690E0A0E0B0E08093F0
:102030000B0F90930C0FA0930D0FB0930E0F82EC2B
:102040009EE09093100F80930F0F8AE09FE00C9416
:1020500041359AE09093770090917C00907C90932A
:102060007C0090917C00906C90937C0090917C001F
:10207000982B90937C0080917A00876C80937A00F3
:1020800080917A0086FDFCCF209178003091790014
:10209000932F937080E0AC01422B9A01C9010895FF
:1020A000CF93DF9380E88093610010926100F894F1
:1020B00080EF84B98BB1806E8BB9809168008160AC
:1020C0008093680080916B00826080936B008091A8
:1020D0006B00846080936B0080916B0088608093BC
:1020E0006B008FB780688FBF88E18AB98BB183603E
:1020F0008BB98FE78DB98FE383BB819A89982FEFD6
:1021000081EE94E0215080409040E1F700C0000053
:1021100082E00E942910EC018198829A8A982FEF20
:1021200081EE94E0215080409040E1F700C0000033
:1021300081E00E9429108298C436D10524F48436A7
:1021400091050CF453C082E08093030E82E090E08E
:102150009093070F8093060F81E090E09093090F12
:102160008093080F3AEA3093800029E120938100A0
:102170008FEF9FE0909387008093860030939000CC
:1021800020939100909397008093960010922501E0
:10219000109224018091730082608093730080917B
:1021A00021018C60809321018EE390E090932901BE
:1021B00080932801909327018093260184B7877F1D
:1021C00084BF8091600088618093600010926000FD
:1021D00080EC80937C0010927B008FEE80937A00DD
:1021E0000E94F6147894DF91CF91089583E0809354
:1021F000030E84E090E09093070F8093060F83E036
:1022000090E09093090F8093080FACCFE82FF0E097
:10221000EE0FFF1FE45DFF4E20813181C90108955B
:102220000E940611BC0180E090E00E94CA472DEC9C
:102230003CEC4CEC5FE30E94B94820E030E040E821
:102240005AE30E94B948089580E00E940611BC013B
:1022500080E090E00E94CA472DEC3CEC4CEC5FE340
:102260000E94B94820E030E040E85AE30E94B948B3
:102270002EE63BED46EB5EE30E9431470895CF9397
:10228000DF93CDB7DEB72C970FB6F894DEBF0FBE45
:10229000CDBF69877A878B879C8780914D0290910B
:1022A0004E02A0914F02B091500289839A83AB8372
:1022B000BC8329813A814B815C8189859A85AB8574
:1022C000BC85820F931FA41FB51F8D839E83AF8390
:1022D000B887000020914D0230914E0240914F028C
:1022E000509150028D819E81AF81B88582179307EE
:1022F000A407B50778F72C960FB6F894DEBF0FBE8B
:10230000CDBFDF91CF910895809160008861809367
:102310006000809160008D6080936000FFCF4F92DD
:102320005F926F927F92AF92BF92CF92DF92EF92C5
:10233000FF920F931F93CF93DF93CDB7DEB76E97C6
:102340000FB6F894DEBF0FBECDBF0E94340F609170
:10235000FD0D7091FE0D882777FD8095982F0E94C6
:10236000CC4720E030E040E858E30E94B9482B0118
:102370003C016091040F7091050F882777FD8095CF
:10238000982F0E94CC4720E030E040E858E30E94BC
:10239000B9486B017C0160911D0F70911E0F882759
:1023A00077FD8095982F0E94CC4720E030E040E8F0
:1023B00058E30E94B9485B018C01242D352D462D30
:1023C000572D642D752D862D972D0E94B9482B0110
:1023D0003C012C2D3D2D4E2D5F2D6C2D7D2D8E2DF8
:1023E0009F2D0E94B9489B01AC01C301B2010E941C
:1023F000C6466B017C012A2D3B2D402F512F6A2DA3
:102400007B2D802F912F0E94B9489B01AC01C70101
:10241000B6010E94C6460E9426497B018C0180912C
:102420004D0290914E02A0914F02B0915002409106
:102430009A0550919B0560919C0570919D05841BA8
:10244000950BA60BB70B8B3F9105A105B10508F0C5
:10245000BFC0A0909E05B0909F05C090A005D090F1
:10246000A1052E2D3F2D402F512F6A2D7B2D8C2D18
:102470009D2D0E94C5465B016C0120E030E0A90162
:102480007B2D9D2D0E942A4787FDC1C02AE939E98D
:1024900049E15FE36A2D7B2D8C2D9D2D0E94B5486F
:1024A00018160CF064C010920B02DD24D394D09265
:1024B0000C0280919A0290919B02892B29F48091C1
:1024C000C21E882309F4B0C08091C21E81114FC082
:1024D00080914D0290914E02A0914F02B091500216
:1024E00040915302509154026091550270915602EE
:1024F000841B950BA60BB70B843F9140A105B1053A
:1025000008F451C083ED89838CE08A831B821C828E
:102510001D821E8280919A0290919B029F838091DE
:102520009A0290919B0288878091BB1E8987809137
:10253000BC1E8A878091BD1E8B8782E18C8720E03C
:102540004FEF5FEF6CE0CE0101960E94BC348091AA
:102550004D0290914E02A0914F02B0915002809393
:10256000530290935402A0935502B09356028E2DBD
:102570009F2DA02FB12F80939E0590939F05A09330
:10258000A005B093A10580914D0290914E02A091BB
:102590004F02B091500280939A0590939B05A093AF
:1025A0009C05B0939D056E960FB6F894DEBF0FBEE6
:1025B000CDBFDF91CF911F910F91FF90EF90DF90F2
:1025C000CF90BF90AF907F906F905F904F900895A5
:1025D0008E2D9F2DA02FB12F80939E0590939F0548
:1025E000A093A005B093A10580914D0290914E0259
:1025F000A0914F02B091500280939A0590939B0551
:10260000A0939C05B0939D05570168012ACF2AE944
:1026100039E949E15FEB6A2D7B2D8C2D9D2D0E94C0
:102620002A4787FFA4CF3FCF80914D0290914E0261
:10263000A0914F02B09150028093C31E9093C41E8C
:10264000A093C51EB093C61E80914D0290914E027C
:10265000A0914F02B09150020E94614F40904D02F4
:1026600050904E0260904F02709050020E945D4F59
:102670005C01C301B2010E94CA472B013C01B501B4
:10268000882777FD8095982F0E94CC4720E03EEF69
:102690004FEF56E40E94314720E030E44CE954E427
:1026A0000E94B9489B01AC01C301B2010E94C64619
:1026B00020E030E04AE753E40E94C6460E949E476D
:1026C0006093C71E7093C81E8093C91E9093CA1E44
:1026D000D092C21E4CCFCF93DF93CDB7DEB7AD976C
:1026E0000FB6F894DEBF0FBECDBF0E941A270E941E
:1026F00050100E9423450E94C50F882321F08AE0D4
:102700000E949E0FFCCF0E940F0D0E94BD310E94BF
:10271000EC378091480290914902A0914A02B09111
:102720004B028A279B270E94614F0E9422261F8E00
:102730008FE090E0A0E0B0E088A399A3AAA3BBA398
:102740008AEB90E29DA38CA3CE014F960E94413567
:10275000188A84E690E0A0E0B0E0898B9A8BAB8B7E
:10276000BC8B85EF9EE09E8B8D8BCE0140960E94A8
:102770004135198280E091E0A0E0B0E08A839B833C
:10278000AC83BD8385EE92E49F838E83CE01019658
:102790000E9441354FEF60E080E00E94A30E0E944E
:1027A0000E090E94BB350E940E090E94E12F0E9473
:1027B000A5450E940E090E9420320E94D00C0E9462
:1027C0000E090E94883980910B02882341F30E94F0
:1027D0008F11E5CFCF92DF92EF92FF926B017C01D8
:1027E00020E030E0A9010E942A4787FD1AC020E0BE
:1027F00030E0A901C701B6010E94B548181674F46B
:1028000090E88FE350E040E09C01652F742F832F08
:10281000922FFF90EF90DF90CF90089590E080E0AE
:10282000F1CF90E88FEBEECFE0915902E11103C0B8
:10283000F894E09159027FEF54E144E2F999FECF18
:102840002AE030E0000021503109E1F792BD81BD5E
:1028500070BD5FBBF99AF999FECF2AE030E0000025
:1028600021503109E1F760BD4FBBF99AF999FECFCC
:1028700092BD81BDF89A20B56213E0CFE11101C08D
:102880007894089520915902211103C0F894209161
:102890005902F999FECF92BD81BDF89A211101C06C
:1028A000789480B50895EF92FF920F931F93CF9382
:1028B000DF938C01F89481E0809359021416150679
:1028C0006CF4EB017B01E40EF51E6991C8010E94D6
:1028D00014140F5F1F4FCE15DF05B9F71092590280
:1028E0007894DF91CF911F910F91FF90EF90089511
:1028F000EF92FF920F931F93CF93DF93F89421E011
:10290000209359021416150684F4EB017B01E40EA2
:10291000F51E8C01061B170BC8018C0F9D1F0E9412
:1029200042148993CE15DF05B9F7109259027894B5
:10293000DF91CF911F910F91FF90EF9008951F921B
:102940000F920FB60F9211240BB60F921BBE2F934E
:102950003F934F935F938F939F93EF93FF93809158
:1029600060028F5F809360028330D0F1109260022A
:1029700040916102E42FF0E08091780090E0EE0F4A
:10298000FF1FE45DFF4E9183808380819181509190
:102990007900352F337020E0822B932B9183808335
:1029A0004F5F483000F54093610280917C00807E4B
:1029B00080937C0080917C0090916102892B8093B0
:1029C0007C00FF91EF919F918F915F914F913F918B
:1029D0002F910F900BBE0F900FBE0F901F90189568
:1029E0008111EFCFC5CF10926102DFCF8F929F92FE
:1029F000AF92BF92CF92DF92EF92FF920F931F930D
:102A0000CF93DF938CE091E0E0E2FFE0DF019C01F7
:102A10001D9221503040E1F7C0E0D0E033E4832E36
:102A200041E2C42E41E3D42E48E9E42E44E4F42EDE
:102A300000E517E726ED3DE34FEF5FEFBA01AA246B
:102A4000AA94BA2CE0E89E2E83EF96E6AFEDBFE3A2
:102A50008C9EF0018D9EF00D1124E05EF04F1082EF
:102A60001182128213821482C582D682E782F08696
:102A70000187128723873487158616861786108A62
:102A8000128A118A148A138A158A168A178A108E56
:102A9000118E138E128E448F558F668F778FB1A251
:102AA000A0A292A286A397A3A0A7B1A712A613A63D
:102AB00014A615A613AA12AA2196C330D10541F671
:102AC000DF91CF911F910F91FF90EF90DF90CF900A
:102AD000BF90AF909F908F9008952F923F924F920A
:102AE0005F926F927F928F929F92AF92BF92CF929E
:102AF000DF92EF92FF920F931F93CF93DF93CDB7A7
:102B0000DEB72B970FB6F894DEBF0FBECDBF1C010A
:102B10008091740290917502892B09F4A1C181E022
:102B20002816310409F4E4C024F0A4E02A16310484
:102B30002CF10E94C20F00E010E0F0E8EF2EAFEBA6
:102B4000FA2E602F712F8E2D9F2D2B960FB6F89495
:102B5000DEBF0FBECDBFDF91CF911F910F91FF90D0
:102B6000EF90DF90CF90BF90AF909F908F907F902D
:102B70006F905F904F903F902F9008958091060F37
:102B80000E9410116B017C018091080F0E941011AE
:102B90004B015C0170907A0240907B0220907C0295
:102BA00030907D0220E030E040E05FE3672D742D3F
:102BB000822D932D0E94B9488B018B879A876E8353
:102BC0001F8388879987762F982F8A85272F312F03
:102BD000492F582FC701B6010E94C546562E79834A
:102BE000682E9D83C62ED72EE82EF92E9B858A85CA
:102BF000202F312F492F582FC501B4010E94C546FF
:102C0000862E972EA82EB92E80917E0290917F025B
:102C10008130910509F4B9C2029709F422C320E07A
:102C200030E04AEA53E4C701B6010E94B948272DB3
:102C3000342D422D532D0E943147462F572F682F98
:102C4000792FDB01CA01BC01CD0190582BED3FE08B
:102C500049E450E40E94B94820E030E044E353E402
:102C60000E9431472091970F3091980F4091990F12
:102C700050919A0F0E94C6468B017C012BED3FE0DC
:102C800049E450EC712F9F2D0E942A4718161CF121
:102C90002BED3FE049EC50E4602F712F8E2D9F2DDE
:102CA0000E94C6468B017C012BED3FE049E450ECCD
:102CB000712F9F2D0E942A47181654F742CF2BEDF3
:102CC0003FE049EC50E4602F712F8E2D9F2D0E9424
:102CD000C5468B017C012BED3FE049E450E4602FB9
:102CE000712F8E2D9F2D0E94B548181644F329CFC1
:102CF00086E00E9410116B017C0185E00E9410119A
:102D00004B015C017090760240907702209078022F
:102D10003090790220E030E040E05FE3672D742DD1
:102D2000822D932D0E94B9488B018B879A876E83E1
:102D30001F8388879987762F982F8A85272F312F91
:102D4000492F582FC701B6010E94C546562E7983D8
:102D5000682E9D83C62ED72EE82EF92E9B858A8558
:102D6000202F312F492F582FC501B4010E94C5468D
:102D7000862E972EA82EB92E8091740290917502FE
:102D80008130910509F436C1029709F49FC120E012
:102D900030E04AEA53E4C701B6010E94B948272D42
:102DA000342D422D532D0E943147462F572F682F27
:102DB000792FDB01CA01BC01CD0190582BED3FE01A
:102DC00049E450E40E94B94820E030E044E353E491
:102DD0000E9431472091540F3091550F4091560F6A
:102DE0005091570F0E94C6468B017C012BED3FE0AE
:102DF00049E450EC712F9F2D0E942A4718161CF1B0
:102E00002BED3FE049EC50E4602F712F8E2D9F2D6C
:102E10000E94C6468B017C012BED3FE049E450EC5B
:102E2000712F9F2D0E942A47181654F78ACE2BED3A
:102E30003FE049EC50E4602F712F8E2D9F2D0E94B2
:102E4000C5468B017C012BED3FE049E450E4602F47
:102E5000712F8E2D9F2D0E94B548181644F371CE08
:102E600086E00E9410116B017C0120E030E040E020
:102E70005FE3609176027091770280917802909181
:102E800079020E94B9489B01AC01C701B6010E94BA
:102E9000C5468B018D839983AB01BC014A015B015F
:102EA00085E00E9410116B017C0120E030E040E0E1
:102EB0005FE3609176027091770280917802909141
:102EC00079020E94B9489B01AC01C701B6010E947A
:102ED000C546462F572F682F792F2A013B0120E046
:102EE00030E0A901B8018D8199810E942A4787FDB0
:102EF0002DC220E030E0A901C301B2010E942A479F
:102F000087FD1FC2A3019201C501B4010E942A4797
:102F100087FD69C082E090E090937502809374020F
:102F20008091060F0E9410116B017C0120E030E0BF
:102F300040E05FE360917A0270917B0280917C02B5
:102F400090917D020E94B9489B01AC01C701B60176
:102F50000E94C5468B018D839983AB01BC014A0158
:102F60005B018091080F0E9410116B017C0120E031
:102F700030E040E05FE360917A0270917B028091E3
:102F80007C0290917D020E94B9489B01AC01C7016F
:102F9000B6010E94C546462F572F682F792F2A0168
:102FA0003B0120E030E0A901B8018D8199810E94A8
:102FB0002A4787FDC1C120E030E0A901C301B20169
:102FC0000E942A4787FDB3C1A3019201C501B40144
:102FD0000E942A4787FFA4C181E090E090937F027E
:102FE00080937E029CCD81E090E090937502809367
:102FF000740296CF20E030E0A901652D7981862DFD
:103000009D810E942A4787FDDEC1852D9981A62DCD
:10301000BD8189839A83AB83BC8326E636E646E688
:103020005FE3FB85EA85602F712F8F2F9E2F0E9413
:10303000B9489B01AC0169817A818B819C810E9496
:10304000B54818160CF0A3CEA5019401C701B6012E
:103050000E94C5468B011C012B013C0120E030E0A1
:10306000A9010E942A4787FDE6C120E030E04AEA34
:1030700053E4B801C1010E94B94820E030E044E3C4
:1030800053E40E943147762E472E1C01862F942D43
:10309000A22DB32D8093760290937702A0937802AD
:1030A000B093790282E090E090937502809374026D
:1030B00020E030E040E05FE3672D742D822D932DFA
:1030C0000E94B9486E837F838887998720E030E02B
:1030D000A901C501B4010E942A4787FD8CC18982DC
:1030E0009A82AB82BC8226E636E646E65FE3BE8184
:1030F000AF81E88519856B2F7A2F8E2F912F0E9433
:10310000B9489B01AC0169817A818B819C810E94C5
:10311000B54818160CF01FC1A5019401C701B601EE
:103120000E94C5468B013C01CB01D3014C015D01DE
:1031300020E030E0A901B801C3010E942A4787FDC1
:1031400072C120E030E04AEA53E4B801C3010E94B2
:10315000B94820E030E044E353E40E943147762E42
:10316000472E1C01862F942DA22DB32D809376021D
:1031700090937702A0937802B093790281E090E077
:10318000909375028093740202CE20E030E0A90192
:10319000652D7981862D9D810E942A4787FD1BC15F
:1031A000852D9981A62DBD8189839A83AB83BC83AC
:1031B00026E636E646E65FE3FB85EA85602F712F5B
:1031C0008F2F9E2F0E94B9489B01AC0169817A81A3
:1031D0008B819C810E94B54818160CF020CDA5016A
:1031E0009401C701B6010E94C5468B011C012B0149
:1031F0003C0120E030E0A9010E942A4787FD03C17D
:1032000020E030E04AEA53E4B801C1010E94B94825
:1032100020E030E044E353E40E943147762E472E0D
:103220001C01862F942DA22DB32D80937A029093AA
:103230007B02A0937C02B0937D0282E090E09093A9
:103240007F0280937E0220E030E040E05FE3672D64
:10325000742D822D932D0E94B9486E837F838887B9
:10326000998720E030E0A901C501B4010E942A47F6
:1032700087FDB9C089829A82AB82BC8226E636E697
:1032800046E65FE3BE81AF81E88519856B2F7A2F13
:103290008E2F912F0E94B9489B01AC0169817A81E0
:1032A0008B819C810E94B54818160CF070C0A50156
:1032B0009401C701B6010E94C5468B013C01CB01B8
:1032C000D3014C015D0120E030E0A901B801C30148
:1032D0000E942A4787FD9FC020E030E04AEA53E47D
:1032E000B801C3010E94B94820E030E044E353E450
:1032F0000E943147762E472E1C01862F942DA22D39
:10330000B32D80937A0290937B02A0937C02B093BA
:103310007D0281E090E090937F0280937E027FCCDB
:1033200082E090E090937F0280937E02F8CB77FA60
:10333000709477F8709448CEB7FAB094B7F8B09418
:103340003ACE77FA709477F87094DCCDB7FAB094EF
:10335000B7F8B094CECD20E030E04AEA53E4C5019E
:10336000B4010E94B948272D342D422D532D0E94BF
:10337000314720E030E044E353E40E94C646472F43
:10338000382F292F862F942FA32FB22F14CD20E072
:1033900030E04AEA53E4C501B4010E94B948272D40
:1033A000342D422D532D0E94314720E030E044E37C
:1033B00053E40E94C646472F382F292F862F942F7B
:1033C000A32FB22F40CCD701C601B05889839A836E
:1033D000AB83BC8322CED701C601B05889839A83C0
:1033E000AB83BC83E5CED501C401B05889839A83F1
:1033F000AB83BC8343CFD501C401B05889839A8382
:10340000AB83BC8370CEC301B201905820E030E0A2
:103410004AEA53E4FBCEC501B401905820E030E005
:103420004AEA53E45FCFC501B401905820E030E090
:103430004AEA53E48CCEC301B201905820E030E058
:103440004AEA53E418CE0F931F93CF93DF938B0177
:10345000D82FC92F2BED3FE049E450ECFE01712F2E
:103460008F2F9E2F0E942A47181694F12BED3FE0D4
:1034700049EC50E4FE01602F712F8F2F9C2F0E948A
:10348000C6468B01D82FC92F2BED3FE049E450EC05
:10349000FE01712F8F2F9E2F0E942A47181634F796
:1034A0009E01602F712F832F9C2FDF91CF911F9151
:1034B0000F9108952BED3FE049EC50E4FE01602FA1
:1034C000712F8F2F9C2F0E94C5468B01D82FC92F9B
:1034D0002BED3FE049E450E4FE01602F712F8F2F68
:1034E0009C2F0E94B54818162CF3DACF2091030EBA
:1034F0002230F9F0233019F1019723E4289FF001DD
:10350000299FF00D1124E05EF04F82E0808341831B
:10351000528363837483128A118A8DE491E0A0E060
:10352000B0E0848F958FA68FB78F20E030E0C9017F
:1035300008958230910501F72FEF3FEFF8CF8330E8
:103540009105D1F6F9CF2F923F924F925F926F92F1
:103550007F928F929F92AF92BF92CF92DF92EF9223
:10356000FF920F931F93CF93DF93CDB7DEB72C97C6
:103570000FB6F894DEBF0FBECDBF1C014A015B0140
:10358000680179010091030E023009F4FCC0033098
:1035900009F400C120E030E0A901C701B6010E9492
:1035A0002A47882309F4C3C0C101019723E4289F57
:1035B000D001299FB00D1124A05EB04FBA87A98712
:1035C0009E964D905D906D907C90D197A301920155
:1035D000C501B4010E94C5466983172F8A839B8366
:1035E00020E030E0A9010E942A4787FDA3C023EC18
:1035F00038EB42E35EE3B981EA81FB816B2F712FE7
:10360000CF010E942A4787FDA4C020E030E0A90135
:10361000C701B6010E942A4787FDCBC0A7019601CA
:10362000B9810A813B806B2F712F802F932D0E94CF
:10363000314720E030E04AE754E40E94B9486C8307
:10364000272E382E092F20E030E0A901B981EA8128
:10365000FB816B2F712FCF010E94B54818160CF01B
:10366000DCC0A985BA859A96CD92DD92ED92FC9246
:103670009D97A985BA8511964D925D926D927C9227
:103680001497FD01158616861786108A20E030E013
:1036900040E751E4BC816B2F722D832D902F0E9447
:1036A00031478B013C01CB01D3016C017D0120E04E
:1036B00030E0A901B801C3010E942A4787FDA7C0D5
:1036C000B801C3010E949947CB01AA2797FDA09595
:1036D000BA2FE985FA85848F958FA68FB78F128AC6
:1036E000118A868A978AA08EB18E81E090E0938FAE
:1036F000828F83E0808320E030E0C9012C960FB6F2
:10370000F894DEBF0FBECDBFDF91CF911F910F9117
:10371000FF90EF90DF90CF90BF90AF909F908F90F1
:103720007F906F905F904F903F902F90089520E092
:1037300030E0E3CF23EC38EB42E35EEBB981EA8182
:10374000FB816B2F712FCF010E94B54818160CF02A
:103750005CCF023049F1033011F182E0A985BA85CE
:103760008C93FD0181829282A382B482128A118A93
:103770008DE491E0A0E0B0E0848F958FA68FB78FA5
:1037800020E030E0BACF8230910509F003CF2FEF6F
:103790003FEFB3CF8330910509F0FCCEF8CFE3E0E3
:1037A0002E163104D1F6F3CFB2E02B163104A9F670
:1037B000EECFD701C601B0588D839E83AF83B88703
:1037C0009C01AD01B9810A813B806B2F712F802F45
:1037D000932D0E94314720E030E04AE754E40E94F4
:1037E000B9486C83272E382E092F20E030E0A9013C
:1037F000B981EA81FB816B2F712FCF010E94B548FF
:1038000018167CF4CD80DE80EF80F8842ACFC701C3
:10381000B60190580E94994757CFF7FAF094F7F8FD
:10382000F094E985FA85C2A6D3A6E4A6F5A621CF31
:103830002F923F924F925F926F927F928F929F92C0
:10384000AF92BF92CF92DF92EF92FF920F931F93AE
:10385000CF93DF93CDB7DEB72C970FB6F894DEBFCA
:103860000FBECDBF1C014A015B01680179010091C7
:10387000030E023009F412C1033009F416C120E02E
:1038800030E0A901C701B6010E942A47882309F444
:10389000D9C0C101019723E4289FD001299FB00D11
:1038A0001124A05EB04FBA87A9879E964D905D9077
:1038B0006D907C90D197D2966D917C91D39788270B
:1038C00077FD8095982F0E94CC472BED3FE049EC87
:1038D00050E40E94B9489B01AC01C301B2010E94AF
:1038E000C6469B01AC01C501B4010E94C54669836F
:1038F000172F8A839B8320E030E0A9010E942A478A
:1039000087FDA3C023EC38EB42E35EE3B981EA8193
:10391000FB816B2F712FCF010E942A4787FDA4C026
:1039200020E030E0A901C701B6010E942A4787FDC7
:10393000CBC0A7019601B9810A813B806B2F712F03
:10394000802F932D0E94314720E030E04AE754E475
:103950000E94B9486C83272E382E092F20E030E0D2
:10396000A901B981EA81FB816B2F712FCF010E94E0
:10397000B54818160CF0DCC0A985BA859A96CD9288
:10398000DD92ED92FC929D97A985BA8511964D9294
:103990005D926D927C921497FD01158616861786AE
:1039A000108A20E030E040E751E4BC816B2F722D9B
:1039B000832D902F0E9431478B013C01CB01D30115
:1039C0006C017D0120E030E0A901B801C3010E9433
:1039D0002A4787FDA7C0B801C3010E949947CB01C0
:1039E000AA2797FDA095BA2FE985FA85848F958F30
:1039F000A68FB78F128A118A868A978AA08EB18E77
:103A000081E090E0938F828F83E0808320E030E03C
:103A1000C9012C960FB6F894DEBF0FBECDBFDF9163
:103A2000CF911F910F91FF90EF90DF90CF90BF90BB
:103A3000AF909F908F907F906F905F904F903F904E
:103A40002F90089520E030E0E3CF23EC38EB42E301
:103A50005EEBB981EA81FB816B2F712FCF010E9450
:103A6000B54818160CF05CCF023049F1033011F163
:103A700082E0A985BA858C93FD0181829282A3821E
:103A8000B482128A118A8DE491E0A0E0B0E0848FC4
:103A9000958FA68FB78F20E030E0BACF82309105A6
:103AA00009F0EDCE2FEF3FEFB3CF8330910509F052
:103AB000E6CEF8CFE3E02E163104D1F6F3CFB2E034
:103AC0002B163104A9F6EECFD701C601B0588D836D
:103AD0009E83AF83B8879C01AD01B9810A813B8089
:103AE0006B2F712F802F932D0E94314720E030E003
:103AF0004AE754E40E94B9486C83272E382E092FD8
:103B000020E030E0A901B981EA81FB816B2F712FA0
:103B1000CF010E94B54818167CF4CD80DE80EF807E
:103B2000F8842ACFC701B60190580E94994757CF11
:103B3000F7FAF094F7F8F094E985FA85C2A6D3A6CF
:103B4000E4A6F5A621CF2F923F924F925F926F92FB
:103B50007F928F929F92AF92BF92CF92DF92EF921D
:103B6000FF920F931F93CF93DF93CDB7DEB72B97C1
:103B70000FB6F894DEBF0FBECDBF9B838A834A0188
:103B80005B01680179018091030E8983823009F419
:103B900044C1B981B33009F448C18A819B8101973E
:103BA00023E4289F1001299F300C112480E29FE01C
:103BB000280E391ED1019E964D905D906D907C909F
:103BC000D197A3019201C501B4010E94C5468B01A2
:103BD0008B879A872BED3FE049E450EC712F0E94D0
:103BE0002A4718160CF0D4C02BED3FE049E450E40E
:103BF000B02FA12FFB85EA8517C02BED3FE049ECE4
:103C000050E4FB85EA85602F712F8F2F9E2F0E9435
:103C1000C5468B018B879A872BED3FE049E450E442
:103C2000B62FA12FF82FE92F6B2F7A2F8F2F9E2FD2
:103C30000E94B54818160CF320E030E0A901FB857E
:103C4000EA85602F712F8F2F9E2F0E942A4787FDB4
:103C5000B8C023EC38EB42E35EE3FB85EA85602FD6
:103C6000712F8F2F9E2F0E942A4787FDB9C020E019
:103C700030E0A901C701B6010E942A4787FDDBC0D9
:103C8000A7019601FB85EA85602F712F8F2F9E2F4C
:103C90000E94314720E030E04AE754E40E94B948EE
:103CA00069837A838C839D8320E030E0A901FB85C2
:103CB000EA85602F712F8F2F9E2F0E94B54818160E
:103CC0000CF0F2C0D1019A96CD92DD92ED92FC9269
:103CD0009D97D10111964D925D926D927C921497B1
:103CE000F101158616861786108A20E030E040E73D
:103CF00051E4B981AA81EC811D816B2F7A2F8E2F1F
:103D0000912F0E9431478B013C01CB01D3016C0103
:103D10007D0120E030E0A901B801C3010E942A47DB
:103D200087FDBCC0B801C3010E949947CB01AA27F7
:103D300097FDA095BA2FF101848F958FA68FB78F2D
:103D4000128A118A868A978AA08EB18E81E090E0CD
:103D5000938F828F83E0808320E030E0C9012B962F
:103D60000FB6F894DEBF0FBECDBFDF91CF911F918C
:103D70000F91FF90EF90DF90CF90BF90AF909F900A
:103D80008F907F906F905F904F903F902F9008950D
:103D90002BED3FE049EC50E4FB85EA85602F712F65
:103DA0008F2F9E2F0E94C6468B018B879A872BED03
:103DB0003FE049E450EC712F0E942A47181644F75F
:103DC0003BCF23EC38EB42E35EEBFB85EA85602FCB
:103DD000712F8F2F9E2F0E94B54818160CF047CFD9
:103DE000B981B23009F454C0F981F33009F466C0E6
:103DF00082E0D1018C93F10181829282A382B4820C
:103E0000128A118A8DE491E0A0E0B0E0848F958F52
:103E1000A68FB78F20E030E0A1CFAA81BB81129797
:103E200009F0BBCE2FEF3FEF99CFEA81FB813397AB
:103E300009F0B3CEF7CFD701C601B0588E839F8368
:103E4000A887B9879C01AD01FB85EA85602F712F9A
:103E50008F2F9E2F0E94314720E030E04AE754E444
:103E60000E94B94869837A838C839D8320E030E087
:103E7000A901FB85EA85602F712F8F2F9E2F0E944D
:103E8000B5481816ACF4CE80DF80E884F9841ACFE8
:103E9000EA81FB81329709F0ABCFC4CFC701B601ED
:103EA00090580E94994742CFF7FAF094F7F8F094AF
:103EB000F101C2A6D3A6E4A6F5A60BCF8A819B8109
:103EC000039709F095CFAECF2091030E223049F130
:103ED000233091F1019723E4289FF001299FF00DF1
:103EE0001124E05EF04F2081223001F1233021F0D7
:103EF000213011F080E0089523E4289FF001299FEC
:103F0000F00D1124E05EF04F20E030E0A90162A541
:103F100073A584A595A50E94B54818168CF481E078
:103F2000089582309105B1F68FEF089581899289C5
:103F3000892BA9F383E008958330910559F6F4CFD6
:103F400082E008956235A9F0633581F0663459F056
:103F5000A098A19820E1829FC0011124909389002C
:103F6000809388000895A09AA198F4CFA09AA19A6E
:103F7000F1CFA098A19AEECF6235A9F0633581F018
:103F8000663459F0A298A59820E1829FC0011124BF
:103F900090938B0080938A000895A29AA598F4CFFD
:103FA000A29AA59AF1CFA298A59AEECF0F931F934C
:103FB0008A019B0177FD28C0F8010F3F110519F018
:103FC00010F0EFEFF0E08130910591F074F004977C
:103FD00064F477FD33C0452B462B472BE9F066E4AC
:103FE0008E2F1F910F910C94BC1F1F910F9108955C
:103FF00077FD1EC0452B462B472BA1F066E48E2F84
:104000001F910F910C94A21F002711279801041BE8
:10401000150B260B370BD0CF6EE48E2F1F910F910F
:104020000C94BC1F6EE48E2F1F910F910C94A21F55
:1040300062E58E2F1F910F910C94A21F62E58E2FC7
:104040001F910F910C94BC1FCF93DF939C012150C3
:10405000310943E4429FE001439FD00D1124C05E2B
:10406000D04F4D89413061F14230E1F0442309F4F1
:1040700071C0433011F54881423009F463C04330C8
:1040800009F470C043E4429FF001439FF00D1124F6
:10409000E05EF04F46A557A560A971A9DF91CF91C9
:1040A0000C94761A20E030E0A9016EA17FA188A5CA
:1040B00099A50E942A4781112AC0DF91CF910895C6
:1040C00020E030E0A9016EA17FA188A599A50E94FA
:1040D0002A47882391F383E088838FEF9FEFDC01E9
:1040E0008C8F9D8FAE8FBF8F8EA59FA5A8A9B9A9D4
:1040F00089839A83AB83BC838EA19FA1A8A5B9A510
:104100008AA79BA7ACA7BDA7DF91CF91089583E0B5
:1041100088838FEF9FEFDC018C8F9D8FAE8FBF8FD9
:104120008EA59FA5A8A9B9A989839A83AB83BC83CF
:104130008EA19FA1A8A5B9A5B0588AA79BA7ACA797
:10414000BDA7BBCF49895A89452B09F49BCF1C8A4F
:104150001B8AB3CF188240E050E0BA01DF91CF91C3
:104160000C94D61F49815A816B817C81DF91CF915C
:104170000C94761A2F923F924F925F926F927F9299
:104180008F929F92AF92BF92CF92DF92EF92FF9267
:104190000F931F93CF93DF93CDB7DEB767970FB61B
:1041A000F894DEBF0FBECDBF80E29FE09C838B837F
:1041B00015E3212E1FE0312E04E6802E02E0902E22
:1041C000A2E4BFE0BE87AD87E8E5FFE0FC87EB87B0
:1041D00089E59FE0988B8F87AA24A394B12CA2E055
:1041E000B0E0BE83AD833A822982150198868F8222
:1041F0000E940E098091030E823029F4F2E02F16FE
:10420000310409F4F4C04D805E8082E0481A510800
:10421000C1010E946D158B015C01982F402F512F19
:10422000692F7B2DA981BA8159964D935D936D932A
:104230007C935C976F8078845A8649862D01AA8A80
:10424000B98AD301CD90DD90ED90FC90A701960145
:10425000FA89E989602F712F8F2F9E2F0E94C54602
:104260004B015C012BED3FE049E450EC792D9B2D97
:104270000E942A4718160CF451C02BED3FE049EC80
:1042800050E4682D792D8A2D9B2D0E94C6464B0146
:104290005C012BED3FE049E450EC792D9B2D0E9411
:1042A0002A47181654F723EC38EB42E35EE3682DF7
:1042B000792D8A2D9B2D0E94B5481816E4F5209182
:1042C0006202309163022B303105ACF5C1010E94CE
:1042D0006D158B018A8B998B982F8989402F512FCF
:1042E000692F782FF201418F528F638F748F209145
:1042F0006202309163022F5F3F4F3093630220933D
:1043000062029FCF2BED3FE049EC50E4682D792D00
:104310008A2D9B2D0E94C5464B015C012BED3FE091
:1043200049E450E4682D792D8A2D9B2D0E94B548D3
:10433000181644F3B8CF49845A84AA88B9881092D1
:1043400063021092620220E030E040E250EC602F05
:10435000712F8A2D9B2D0E942A4787FF74C020E071
:1043600030E040E250E4C701B6010E94B54818169B
:104370000CF069C0E981FA81858D968D0196968F42
:10438000858F018D128DA38CB48C402F512F6A2DF7
:104390007B2DEF81F8854083518362837383AB81EA
:1043A000BC818C91823009F47FC108F07AC0811100
:1043B00025C2EB81FC81448D558D668D778D41152D
:1043C00051056105710509F415C464F041505109A6
:1043D00061097109AB81BC815C964D935D936D93CE
:1043E0007C935F978D819E81049709F444C1ED8190
:1043F000FE813196FE83ED838B819C818D5B9F4F87
:104400009C838B83A981BA81AD5BBF4FBA83A9839B
:10441000BFEF2B1A3B0AEF81F8853496F887EF83BC
:104420008D859E858D5B9F4F9E878D87AB85BC85D7
:10443000AD5BBF4FBC87AB87EF85F889ED5BFF4F66
:10444000F88BEF87D5CE20E030E040E250E4602FDB
:10445000712F8A2D9B2D0E94B54818160CF095CF10
:1044600020E030E040E250ECC701B6010E942A474C
:1044700087FF8BCFA981BA815D968D919C915E97C4
:1044800001975E969C938E935D9759960C915997E0
:104490005A961C915A975B96AC905B975C96BC9031
:1044A00074CF833009F4EAC1843009F09BCF609166
:1044B0004D0270914E0280914F02909150020E94E5
:1044C000CA4720E030E04AE754E40E943147698758
:1044D000798B8A8B9B8BEF85F8896081772767FDC5
:1044E0007095872F972F0E94CC4720E030E040E066
:1044F0005CE30E94B94820E030E040EA50E40E94CA
:10450000B94820E030E040E05FE30E94B9483B0159
:10451000982EB92EF3E4F49D8001F59D100D112421
:10452000015A104FEE24E394F12C1F8B0E8B3D8A21
:104530002C8A8701EE88FF88B801882777FD80954F
:10454000982F0E94CC472BED3FE049EC50E40E94AD
:10455000B948B985A989EA89DB882B2F3A2F4E2FD4
:104560005D2D0E94B94820E030E040E251E40E9415
:104570003147862EA72E6C019D2D0E941C491B01E0
:104580002C01F70135976081772767FD7095872F9C
:10459000972F0E94CC4720E030E040E05CE30E948F
:1045A000B94820E030E040EA50E40E94B948A20156
:1045B00091010E94B948262D372D492D5B2D0E946F
:1045C000C6462B013C01C70101969F8B8E8B682D3F
:1045D0007A2D8C2D9D2D0E942E474B015C01D70119
:1045E0006C91772767FD7095872F972F0E94CC4796
:1045F00020E030E040E05CE30E94B94820E030E099
:1046000040EA50E40E94B948A50194010E94B948CB
:10461000242D352D462D572D0E94C6463B01982E40
:10462000B92E0F5F1F4F0530110509F083CF2C887D
:104630003D88982F462D572D692F7B2DEB81FC81CE
:104640004183528363837483128A118A8FEF9FEFB1
:10465000DC01848F958FA68FB78FA981BA81599677
:104660000C9159975A961C915A975B96AC905B9710
:104670005C96BC9038C067960FB6F894DEBF0FBE4C
:10468000CDBFDF91CF911F910F91FF90EF90DF9001
:10469000CF90BF90AF909F908F907F906F905F90E2
:1046A0004F903F902F900895EB81FC81448D558D64
:1046B000668D778D411551056105710509F4CAC0F4
:1046C00094F04150510961097109AB81BC815C963C
:1046D0004D935D936D937C935F97E981FA81018D92
:1046E000128DA38CB48C202F312F4A2D5B2DAB81E2
:1046F000BC8111966D917D918D919C9114970E9432
:10470000C5468B017C012B013C012BED3FE049E4C8
:1047100050EC0E942A4718160CF081C02BED3FE0A8
:1047200049E450E4B801C7010E94B5481816D4F412
:104730002BED3FE049EC50E4C301B2010E94C546B5
:10474000B62FA72F462F572F682F792F2A013B010D
:104750002BED3FE049E450E46B2F7A2F0E94B548DF
:10476000181634F320E030E0A901C301B2010E9421
:104770002A4787FDE8C123EC38EB42EB5DE3C30138
:10478000B2010E942A4787FDE9C1AB81BC815196E5
:104790008D919C915297892B09F4C2C020E030E0A2
:1047A000A901C301B2010E942A4787FD1FC2C301AC
:1047B000B20120915C0230915D0240915E02509105
:1047C0005F020E94B54818160CF0AAC0EB85FC8564
:1047D00020812F5F208330E080915A0290915B020C
:1047E0008217930708F09FC0AB81BC811C9240E008
:1047F00050E0BA01C1010E94D61FF4CD813009F00A
:10480000F1CDE981FA8180818111C9C1AB81BC817F
:104810001C928D819E81049709F0E9CD2CCF2BED60
:104820003FE049EC50E4C301B2010E94C646B62FF6
:10483000A72F462F572F682F792F2A013B012BEDE9
:104840003FE049E450EC6B2F7A2F0E942A4718165C
:1048500034F788CF81899289892B09F493C18FEF2E
:104860009FEFDC01EB81FC81848F958FA68FB78F42
:104870008D819E81049709F0BACDFDCEAB81BC81BC
:104880005C964D915D916D917C915F9741155105BD
:104890006105710509F08EC0E1E0F0E05296FC93ED
:1048A000EE9351971D961D921D921D921C9250974A
:1048B000E981FA8114861386F2E0FC935A968D9171
:1048C0009C915B97892B59F0FD0186899789A08D72
:1048D000B18D81839283A383B483138E128EEFEF05
:1048E000FFEFA981BA811C96FC93EE931B97AB81D5
:1048F000BC8153968D919C915497892B09F4AFCF2D
:1049000082E490E0A0E0B0E0EB81FC81848F958FA1
:10491000A68FB78F8D819E81049709F068CDABCEAD
:10492000EB85FC851082AB81BC8115962D913D9164
:104930004D915C911897C301B2010E94B9486B0177
:104940007C01EB81FC812585368547855089618511
:104950007285838594850E94B9489B01AC01C7018B
:10496000B6010E94C6460E949947AB01BC01C10135
:104970000E94D61F2FE832EC45E75CE3C301B20189
:104980000E94B9489B01AC01AB81BC811D966D9121
:104990007D918D919C9150970E94C646EB81FC8140
:1049A000658776878787908B8D819E81049709F034
:1049B0001ECD61CE141615061606170664F4415076
:1049C000510961097109AB81BC815C964D935D937E
:1049D0006D937C935F972FE832EC45E75CE3E981C8
:1049E000FA81658976898789908D0E94B948AB8163
:1049F000BC8111962D913D914D915C9114970E942F
:104A0000C646162F072FD8014B2F5A2F682F792F04
:104A1000EB81FC814183528363837483A981BA81D2
:104A200059962D913D914D915C915C97F8016F2FB6
:104A30007E2F0E94C5468B017C012B013C012BED92
:104A40003FE049E450EC0E942A4718160CF060C081
:104A50002BED3FE049E450E4B801C7010E94B5489E
:104A60001816D4F42BED3FE049EC50E4C301B20139
:104A70000E94C546B62FA72F462F572F682F792F94
:104A80002A013B012BED3FE049E450E46B2F7A2FE4
:104A90000E94B548181634F320E030E0A901C301A4
:104AA000B2010E942A477301620187FD9AC060919A
:104AB0005C0270915D0280915E0290915F029B01A9
:104AC000AC010E94C6469B01AC01C701B6010E9421
:104AD000B548EB85FC8518160CF081C020812F5F4E
:104AE000208330E080915A0290915B0282179307F5
:104AF00008F078CCAB81BC811C925B961C921E9214
:104B00005A9740E050E0BA01C1010E94D61F6ACC1A
:104B10002BED3FE049EC50E4C301B2010E94C646D0
:104B2000B62FA72F462F572F682F792F2A013B0129
:104B30002BED3FE049E450EC6B2F7A2F0E942A477F
:104B4000181634F7A9CF23EC38EB42EB5DEBC30129
:104B5000B2010E94B54818160CF017CE81E090E023
:104B6000EB81FC81928B818B83899489892B51F411
:104B70008FEF9FEFDC01EB81FC81848F958FA68FF7
:104B8000B78F03CE108240E050E0BA01C1010E940D
:104B9000D61F8D819E81049709F029CC6CCD813080
:104BA000A1F0AD85BE854C9150E0519541955109DC
:104BB000662757FD6095762FC1010E94D61F8D8113
:104BC0009E81049709F013CC56CDED85FE8540817A
:104BD00050E060E070E0C1010E94D61F03CC10825B
:104BE000A2CEF7FAF094F7F8F09461CFC301B201C6
:104BF0009058DFCDA981BA811B968C911B978C931D
:104C0000C1010E9424208FEF9FEFDC01EB81FC812A
:104C1000848F958FA68FB78F8D819E81049709F021
:104C2000E6CB29CD1092AD021092200F1092630FA7
:104C30001092A60F6EE480E00E94A21F6EE480E056
:104C40000C94BC1F7F928F929F92AF92BF92CF9293
:104C5000DF92EF92FF920F931F93CF93DF9300D0D9
:104C600000D0CDB7DEB780E190E00E944214813AD7
:104C700009F444C094E5C92E9FE0D92EE12CF12C13
:104C800001E010E0C8010E946D15DC01CB01B058B5
:104C900089839A83AB83BC83F60180839183A2834B
:104CA000B38344E050E0BE016F5F7F4FC7010E94B5
:104CB00053140F5F1F4FF3E4CF0ED11C84E0E80EB6
:104CC000F11C04301105F1F661EA80E190E00E94E8
:104CD000141421E030E0C9010F900F900F900F9055
:104CE000DF91CF911F910F91FF90EF90DF90CF90C8
:104CF000BF90AF909F908F907F90089524E5A22E53
:104D00002FE0B22E812C912C00E010E033E4732EC2
:104D1000709EB001719E700D11246C5A704F44E06A
:104D200050E0C4010E947814F501C080D180E28077
:104D3000F38020E030E040E450E4C701B6010E9477
:104D40002A4787FF0AC020E030E040E450ECC7016A
:104D5000B6010E94B54818162CF0F5011082118298
:104D6000128213820F5F1F4FF4E08F0E911C83E4B9
:104D7000A80EB11C0430110559F620E030E0ABCF8D
:104D80001092540F1092550F1092560F1092570F09
:104D90001092970F1092980F1092990F10929A0FED
:104DA0001092DA0F1092DB0F1092DC0F1092DD0FD1
:104DB00060EA80E190E00E9414140E94222680E0C4
:104DC00090E008956091030EE0E2FFE081E090E062
:104DD00020E030E0623099F06330A9F04081442354
:104DE00021F041895289452BA9F08330910571F05A
:104DF0002F5F3F4F0196ED5BFF4F623069F7213027
:104E0000310561F7F5CF2230310541F720E030E080
:104E1000C901089521E030E0FBCF10928502109285
:104E200084021092830210928202109281021092E8
:104E3000800208950F931F93CF93DF9383E090E058
:104E40009093CD008093CC008091C8008D7F80939B
:104E5000C80088E98093C90080E890E00E94D44DA2
:104E600080937B1090937C1080E890E00E94D44D5A
:104E70008C0190937E1080937D10C0E0D0E004C040
:104E800000917D1010917E1084E090E00E94D44D3E
:104E9000F801EC0FFD1F808391832296C038D10565
:104EA00079F710927A10DF91CF911F910F910895A9
:104EB0001F920F920FB60F9211240BB60F921BBECA
:104EC0002F933F934F938F939F93EF93FF93409133
:104ED000CE008091800290918102209182023091D7
:104EE0008302820F931F8F73907897FD1BC0FC0184
:104EF000E65CFF4E4083809182029091830201968E
:104F00009093830280938202FF91EF919F918F9102
:104F10004F913F912F910F900BBE0F900FBE0F90AE
:104F20001F9018950197806C9F6F0196E0CF161621
:104F300017066CF4FC01680F791F91918091C800ED
:104F400085FFFCCF9093CE00E617F707B1F70895E1
:104F5000CF93DF93CDB7DEB780E090E0DF91CF91C4
:104F60000895CF93DF93EB01FC0130813093B106BC
:104F7000362F3A5F3093B2065093B3064093B4068F
:104F80002093B50626EB36E0AB01BC01C9010E94B7
:104F90005C50CF54D94F81E18D8381EB96E0DF9156
:104FA000CF910895CF93DF93EB0120E12093B107D8
:104FB000262F2D5F2093B20723EB37E0AB01BC0116
:104FC000C9010E945C50CF54D84F81E18A8381EBA4
:104FD00097E0DF91CF9108954F925F926F927F9209
:104FE0008F929F92AF92BF92CF92DF92EF92FF92F9
:104FF0000F931F93CF93DF933C01680F791FFB0141
:1050000031978081D3010C9181110CC0023431F0B1
:1050100080F5023338F0063308F08EC0F301828148
:10502000833030F410E0F801F097EF34F105E8F048
:105030008FEF8093B10883E08093B20881E1809381
:10504000B308C1EBD8E0CE01DF91CF911F910F9152
:10505000FF90EF90DF90CF90BF90AF909F908F9098
:105060007F906F905F904F900895E057FF4F0C94A2
:10507000CE4D802F84548330A8F6D0CFF301C38067
:10508000D480E580F68022E93AE046E850E4C701A2
:10509000B6010E94B54818160CF447C722E93AE059
:1050A00046E850ECC701B6010E942A4787FF08C0B6
:1050B000B2E9CB2EBAE0DB2EB6E8EB2EB0ECFB2E3D
:1050C000D3011296EC91129723E42E9FF001112444
:1050D000E05EF04FC6A2D7A2E0A6F1A612968C9190
:1050E00090E0289FF001299FF00D1124E05EF04F21
:1050F0002589213039F0223009F020C7F7FAF094E1
:10510000F7F8F094C2A6D3A6E4A6F5A660E070E096
:1051100080E090E0DF91CF911F910F91FF90EF9091
:10512000DF90CF90BF90AF909F908F907F906F90C7
:105130005F904F900C94D2270E3309F073CF6ECF4F
:1051400081E28093B10889E08093B20880911A0FC0
:1051500090911B0F9093B30880911A0F90911B0FA1
:105160008093B4088091480290914902A0914A022C
:10517000B0914B028093B5089093B608A093B708FE
:10518000B093B8081092B908C1EBD8E05CCFD30156
:105190001296EC91B3E4EB9FF0011124E05EF04F26
:1051A00086A597A5A0A9B1A98093B1089093B2084C
:1051B000A093B308B093B40864E070E081EB98E08A
:1051C000A9CFD3011296EC91B3E4EB9FF001112427
:1051D000E05EF04FC6A4D7A4E0A8F1A862A973A925
:1051E000882777FD8095982F0E94CC472BED3FE0D4
:1051F00049EC50E40E94B9489B01AC01C701B601DB
:105200000E94C6466093B1087093B2088093B308B9
:105210009093B40864E070E0D1CFD30113964D9120
:105220005D916D917C91169712968C9190E001960C
:105230000E94761A60E070E080E090E06BCF4091D1
:105240004D0250914E0260914F0270915002409376
:10525000B1085093B2086093B3087093B408D301B7
:105260001296EC91B3E4EB9FF0011124E05EF04F55
:1052700086A597A5A0A9B1A98093B5089093B60873
:10528000A093B708B093B80868E070E097CFF30137
:10529000828190E001960E94641F8093B10861E0D2
:1052A00070E08CCF82E99AE0A6E8B0E48093B10880
:1052B0009093B208A093B308B093B40864E070E090
:1052C0007DCFD30112968C910E9410116093B1088A
:1052D0007093B2088093B3089093B40864E070E0D0
:1052E0006DCF80915C0290915D02A0915E02B091C1
:1052F0005F028093B1089093B208A093B308B09373
:10530000B40864E070E05ACFF30182819381A481F4
:10531000B58180935C0290935D02A0935E02B0938E
:105320005F0260E070E080E090E0F4CE80915A028D
:1053300090915B022FE0289FB001299F700D1124EE
:1053400080E090E00E94CA4720E030E04AE754E461
:105350000E9431476093B1087093B2088093B308FC
:105360009093B40864E070E029CFD30112966D9158
:105370007D918D919C91159720E030E04AE754E4AF
:105380000E94B94820E030E040E751E40E943147F4
:105390000E949E4770935B0260935A0260E070E047
:1053A00080E090E0B7CE0E94122660E070E080E0DE
:1053B00090E0B0CE81E58093B10861E070E0FECE70
:1053C00081E00E94021060E070E080E090E0A2CEF8
:1053D000F30182818093470260E070E080E090E01A
:1053E00099CE1092530F1092520F1092960F109266
:1053F000950F1092D90F1092D80F60E070E080E006
:1054000090E088CEF301428153816481758181E00F
:1054100090E00E94761AD30116964D915D916D91A0
:105420007C91199782E090E00E94761AF301428500
:1054300053856485758583E090E00E94761A60E06C
:1054400070E080E090E066CE80914E0F90914F0F1B
:10545000A091500FB091510F8093B1089093B20872
:10546000A093B308B093B4088091910F9091920FDC
:10547000A091930FB091940F8093B5089093B608C4
:10548000A093B708B093B8088091D40F9091D50F2E
:10549000A091D60FB091D70F8093B9089093BA0816
:1054A000A093BB08B093BC0860E170E087CE0EE427
:1054B0001FE0C0E0D0E0D801CD90DD90ED90FC90F1
:1054C000139771EBA72E78E0B72EAC0EBD1E149685
:1054D0006D917C911597882777FD8095982F0E9474
:1054E000CC472BED3FE049EC50E40E94B9489B01CA
:1054F000AC01C701B6010E94C646F5016083718305
:10550000828393830D5B1F4F2496C031D10599F69A
:1055100060E170E053CE80914D0290914E02A091D7
:105520004F02B09150028093B1089093B208A093BB
:10553000B308B093B40880914E0F90914F0FA09193
:10554000500FB091510F8093B5089093B608A09377
:10555000B708B093B8088091910F9091920FA091E5
:10556000930FB091940F8093B9089093BA08A093C9
:10557000BB08B093BC088091D40F9091D50FA09137
:10558000D60FB091D70F8093BD089093BE08A0931B
:10559000BF08B093C00864E170E010CE80914D0266
:1055A00090914E02A0914F02B09150028093B108A9
:1055B0009093B208A093B308B093B4080EE41FE030
:1055C000C4E0D0E0D801CD90DD90ED90FC90139731
:1055D00061EBA62E68E0B62EAC0EBD1E14966D9142
:1055E0007C911597882777FD8095982F0E94CC474E
:1055F0002BED3FE049EC50E40E94B9489B01AC011F
:10560000C701B6010E94C646F5016083718382839B
:1056100093830D5B1F4F2496C031D10599F664E149
:1056200070E0CCCDD3011296EC918E2F90E0B3E4D4
:10563000EB9FF0011124E05EF04F06A117A120A519
:1056400031A5F301438154816581768101960E94E1
:10565000A31A60E070E080E090E05CCDD301129688
:10566000EC918E2F90E0B3E4EB9FF0011124E05E0B
:10567000F04F06A117A120A531A5F3014381548164
:105680006581768101960E94181C60E070E080E0E0
:1056900090E040CDD3011296EC918E2F90E0B3E4D0
:1056A000EB9FF0011124E05EF04F06A117A120A5A9
:1056B00031A5F301438154816581768101960E9471
:1056C000A31D60E070E080E090E024CDD30112964D
:1056D000EC91B3E4EB9FF0011124E05EF04F86A162
:1056E00097A1A0A5B1A58093B1089093B208A0930B
:1056F000B308B093B40864E070E060CDE2E06E0EF1
:10570000711CA6E4EA2EAFE0FA2EC0E0D0E02196AC
:10571000D7010D911D912D913C91F3014191519132
:10572000619171913F01CE010E94A31AF3E4EF0E43
:10573000F11CC330D10559F7E9CC22E0620E711C8F
:10574000F6E4EF2EFFE0FF2EC0E0D0E02196D70177
:105750000D911D912D913C91F301419151916191D8
:1057600071913F01CE010E94181CF3E4EF0EF11C71
:10577000C330D10559F7CACC22E0620E711CE6E4B1
:10578000EE2EEFE0FE2EC0E0D0E02196D7010D9185
:105790001D912D913C91F301419151916191719134
:1057A0003F01CE010E94A31DF3E4EF0EF11CC330B4
:1057B000D10559F7ABCC2301E2E04E0E511CC6E4F3
:1057C000DFE0612C712CFFEF6F1A7F0AC880D9804F
:1057D000EA80FB80288539854A855B85D2016D91F9
:1057E0007D918D919D912D010E94C6464B015C01DA
:1057F0006C857D85882777FD8095982F0E94CC4702
:1058000020E030E044EB53E40E94B9489B01AC0136
:10581000C501B4010E94C646AB01BC0197018601D7
:10582000C3010E94181CCD5BDF4FB3E06B167104FF
:1058300051F66CCCB3016C5F7F4FF30143818281E1
:105840000E942F450E949945892B09F0F1CB5ECC2F
:10585000D30113964C91139761EB78E012968C91DB
:105860000E944C450E949945892B09F0E1CBF30138
:10587000638170E0A3CCD30113964C91F301E40F44
:10588000F11DB3016C5F7F4F048121EB38E0F30120
:1058900082810E946B450E949945892B09F0C8CBF3
:1058A000D30113968C91F301E80FF11D648170E030
:1058B00085CC413009F464C344E050E068E472E010
:1058C000C30102960E944F50009709F439CCC0E002
:1058D000D0E0B9CBD30112969C91129780E09093BF
:1058E000520280935102809151029091520213967C
:1058F0002C91822B909352028093510240E06FEFE3
:1059000080E00E94A30E60E070E080E090E002CCB6
:10591000D30112968C911297982F9B50903158F08A
:105920008FEF8093B10883E08093B20881E1809388
:10593000B30812968C910E94AC0281E00E94A402EE
:105940008FEF80934701809147018093B10861E018
:1059500070E034CC10925202109251024FEF60E08E
:1059600080E00E94A30E60E070E080E090E0D2CB87
:10597000F3014781668185810E94A30E60E070E09B
:1059800080E090E0C7CB83010C5F1F4FC1E0D0E007
:10599000D30112968C9190E09E012150310902C0F2
:1059A000959587952A95E2F780FDA5C221960E5F11
:1059B0001F4FC430D10561F7A9CB0E942411609319
:1059C000B1087093B2088093B3089093B40864E070
:1059D00070E0F4CBD30112969C91129780E013965D
:1059E0002C91822B0E94520D60E070E080E090E0EC
:1059F00091CB0E94340F8111BFC28091FD0D909117
:105A0000FE0D9093B2088093B1088091040F90919D
:105A1000050F9093B4088093B30880911D0F909167
:105A20001E0F9093B6088093B50866E070E0C6CB71
:105A30008091030E8093B10861E070E0BFCB80914C
:105A4000000E9091010EA091020E8093B1089093E8
:105A5000B208A093B30863E070E0B0CBF301928189
:105A600080E02381822B009709F055C21092DC1E42
:105A70001092DB1E1092DE1E1092DD1E10929B0211
:105A800010929A024FEF60E080E00E94A30E3ECB9E
:105A9000F301828190E00E945D4160E070E080E06F
:105AA00090E038CBD30112968C9190E00E94C241D5
:105AB00060E070E080E090E02DCB0E94E2268093D1
:105AC000B10861E070E07ACB80E2E82E8FE0F82E3A
:105AD00000E010E0CC24C394D12CC0E0D0E0C13071
