:100000000C946F010C948E010C948E010C948E0153
:100010000C948E010C948E010C948E010C948E0124
:100020000C948E010C94B60A0C948E010C948E01E3
:100030000C948E010C94DC030C948E010C948E01B4
:100040000C948E010C948E010C948E010C948E01F4
:100050000C948E010C948E010C948E010C948E01E4
:100060000C948E010C947E270C948E010C948E01BE
:100070000C948E010C9479140C948E010C948E01C6
:100080000C948E010C948E010C948E010C948E01B4
:100090000C943F270C948E010C948E010C94934287
:1000A0000C948E010C948E010C94E8010C94F901CF
:1000B0000C948E010C948E010C948E010C946D0E98
:1000C0000C948E010C948E010C948E010C948E0174
:1000D0000C948E010C948E010C948E010C948E0164
:1000E0000C948E010C948E010C948E010C948E0154
:1000F0000C9421030C948E010C948E010C94F50247
:100100000C948E010C948E010C948E010C948E0133
:100110000C948E010C948E010C948E010C948E0123
:10012000A32840281A2F322F5B28832B9B2BBA2B16
:10013000D92B1F2A412A742AA82AEB2A2F2B4B2BB2
:10014000672B2A29E428FE283C2964296F297E2967
:1001500035288E29A129B329D229F029F729FD298B
:10016000052A0E2AA12D3528A62DC92D1A2E3C2E82
:10017000542E662E732EC92ED52E132FBD28822EF7
:10018000A62EA92EAE2EA52C762C872CC72CD52CCE
:10019000E02CFA2C072D162D352D3C2D3528352831
:1001A0003528352835283528352835284B2D652D17
:1001B0006F2D7A2D812DF82B372C452C582C05A826
:1001C0004CCDB2D44EB93836A9020C50B9918688BC
:1001D000083CA6AAAA2ABE000000803F6E616E00FD
:1001E000696E660000407A10F35A00A0724E18093A
:1001F0000010A5D4E80000E87648170000E40B548E
:10020000020000CA9A3B000000E1F505000080965C
:100210009800000040420F000000A086010000008E
:10022000102700000000E803000000006400000048
:1002300000000A00000000000100000000002C7611
:10024000D888DC674F0823DFC1DFAE59E1B1B7962C
:10025000E5E3E453C63AE651997696E8E6C2842689
:10026000EB898C9B62ED407C6FFCEFBC9C9F40F265
:10027000BAA56FA5F490055A2AF75C936B6CF967E1
:100280006DC11BFCE0E40D47FEF520E6B500D0EDA6
:10029000902E0300943577050080841E080000200E
:1002A0004E0A000000C80C333333330F986E1283AC
:1002B0001141EF8D2114893BE65516CFFEE6DB1880
:1002C000D1844B381BF77C1D901DA4BBE424203245
:1002D00084725E228100C9F124ECA1E53D2711243E
:1002E0001FBECFEFD1E4DEBFCDBF12E0A0E0B2E091
:1002F000EAE3F1EA00E00BBF02C007900D92AC3CCC
:10030000B107D9F710E2ACECB2E001C01D92A53103
:10031000B107E1F70E9445130C949B500C94000028
:1003200014BE88E10FB6F8948093600010926000CC
:100330000FBE78940C949F0190E00C94B40110923D
:10034000E30980E29EE49093A9008093A800E1EA8B
:10035000F0E088E08083808182608083E2E7F0E0E3
:1003600080818260808308952091A4003091A5004F
:10037000280F391F3093AB002093AA002091AA00C8
:100380003091AB008091A8009091A900821793074B
:1003900070F48091AA009091AB002091A800309158
:1003A000A900821B930B9093AB008093AA0010923C
:1003B000CC02809172008460809372008091CC02A4
:1003C0008823E1F3809172008B7F809372000895FF
:1003D0001F920F920FB60F9211248F938091E30911
:1003E0008F5F8093E3098F910F900FBE0F901F9046
:1003F00018951F920F920FB60F9211248F9381E0E0
:100400008093CC028F910F900FBE0F901F90189584
:100410000F931F93CF93DF9310924E0183E080934D
:10042000420186E080934201809141018F718630C4
:10043000D9F7C0E0D0E000E010E081E00E949C012C
:100440002091460122952695237030E00C2E02C0A3
:10045000220F331F0A94E2F7022B132B2296C0318E
:10046000D10559F783E08093420188E080934201EF
:10047000809141018F718830D9F78FEF80934F01C0
:1004800080914E01886080934E0180914E0180647E
:1004900080934E01C801DF91CF911F910F91089574
:1004A0008091D602882361F083E08093420186E147
:1004B00080934201809141018F718631D9F708956F
:1004C00083E08093420188E0809342018091410162
:1004D0008F718830D9F708958091390181608093B8
:1004E000390183E08093420188E08093420180914A
:1004F00041018F718830D9F780916E0180628093BD
:100500006E0180916E018F7E80936E018FEF8093DC
:100510004F0180914E01886080934E0180914E0181
:10052000806480934E0180914C01806880934C01DF
:100530000E94080280936D011092D0021092D602A0
:1005400081E080930A020895E0EDF2E090819860E6
:1005500090838093D6020895E0EDF2E0908191605F
:1005600090838093D1020895E0EDF2E02081226033
:1005700020839093D3028093D2020895E0EDF2E0BD
:100580002081246020839093D5028093D402089523
:1005900080910A02813011F081E008959091D0029B
:1005A0009111FBCF80E0089523E02093420129E1DF
:1005B00020934201209141012F712931D9F7262F33
:1005C0002E5F20938001662349F0FC01A1E8B1E091
:1005D00091919D939E2F981B9617D0F382E0809364
:1005E000420183E080930A0208951F920F920FB692
:1005F0000F9211248F93809141018F71893131F0D5
:100600008F910F900FBE0F901F90189583E08093ED
:10061000420189E080934201809141018F718930CC
:10062000D9F784E080930A028091420182958695F1
:1006300087708093CF028F910F900FBE0F901F9005
:1006400018951F920F920FB60F9211248F9389E085
:1006500080934201809147018093CE0280917B017B
:100660008093CD0285E080930A028F910F900FBE98
:100670000F901F901895CF93DF9300D000D01F925A
:10068000CDB7DEB780910A02843009F481C085308D
:1006900009F43FC0813041F00F900F900F900F9000
:1006A0000F90DF91CF9108959091D0029923A1F3FB
:1006B00083E08093420188E0809342018091410170
:1006C0008F718830D9F790FF09C02091D1022F7126
:1006D00080914801807E822B8093480191FF08C061
:1006E0008091D202809362018091D3028093630152
:1006F00092FF08C08091D402809360018091D5025E
:100700008093610194FD53C00E9450021092D00268
:10071000C3CF8091CD0280E090E040E0FC01E05842
:10072000FE4F2081FC01E952FD4F20834F5F209155
:10073000CD02842F90E030E0281739077CF787ED51
:1007400092E09A8389838091CD0282508B83E091DD
:10075000CD02F0E0E952FD4F80818C838091CE0282
:100760008A558D83CE0101960E94970580914101A3
:100770008F718930D9F781E080930A020E9450027C
:100780000F900F900F900F900F90DF91CF910895E1
:100790008091CF020E948208809141018F7189303F
:1007A000D9F781E080930A020E945002E9CF0E94AB
:1007B00008020E94920EA8CF1F920F920FB60F92BE
:1007C00011248F9381E0809357038F910F900FBE78
:1007D0000F901F9018951092E8091092E909109255
:1007E000E5091092E4091092EB091092EA091092BF
:1007F000ED091092EC091092EF091092EE090E9497
:10080000BB070E9473050E94F1040C94410490936D
:10081000E5098093E4090C94BE029093E709809364
:10082000E6090C94B402E82FF0E0EE0FFF1FE6514A
:10083000F64F7183608308950E94CB050E949E0845
:100840000C945F04E0915803F0915903309731F410
:1008500016C00190F081E02D309789F0228133811C
:1008600028173907B1F7DC01A158BF4F2C91278712
:10087000DC01AE57BF4F2C91208B22E024830C94D7
:100880001D0510925903109258030895FC0114821B
:100890001786138212828091580390915903009712
:1008A00039F091838083F0935903E09358030895BE
:1008B00011821082F0935903E093580308950F9327
:1008C0001F93CF93DF93E0915803F0915903309732
:1008D00009F47BC0EF018C81811155C08C850E9489
:1008E000F8048C01009709F46DC09B838A8381E032
:1008F0008C83F801ED57FF4F82E294E0918380836F
:10090000F801EE57FF4F898582FB882780F98083A5
:100910009985F801838590FB80F98387998593FBFE
:10092000992790F990FB82F9877083878091E80975
:100930008F5F8093E80984878091E4099091E509AD
:10094000968785878D819E81908B878798859F70FC
:100950008189807F892B818B9F819295907F8F7079
:10096000892B818B98012E5E3F4F4C856A857B8554
:1009700050E0C9010E94B94FC801DF91CF911F918A
:100980000F910C94D607823039F00990D881C02D90
:10099000209709F0A0CF19C0EC17FD0711F41AC079
:1009A000FC01808191818C179D07D1F78881998105
:1009B00091838083ED85FE85CE01DF91CF911F91DC
:1009C0000F91099482E08C838F87DF91CF911F91E3
:1009D0000F910895888199819093590380935803CA
:1009E000E9CF10925A031092DF0310926404089525
:1009F00090915A03992361F09091DF039923B9F004
:100A0000909164049923B1F020E030E0C901089589
:100A100040E050E095E8949FF001959FF00D11247F
:100A2000E65AFC4F805F81839F01C901089541E030
:100A300050E0F0CF42E050E0EDCFFC01108208958D
:100A400095E8899F90011124265A3C4FC9010895C9
:100A5000FC01DC01A158BF4F1C92DC01A058BF4F24
:100A60001D921C92DC01AE57BF4F1C92DC01AD57AA
:100A7000BF4F1D921C921386A8EEB9E08C918F5F38
:100A80008C9384878091E4099091E5099687858706
:100A9000108A1786118A08950C941D05EDEEF4E076
:100AA00040E0208131812115310529F021503109A3
:100AB0003183208341E0359625E0EF31F20789F755
:100AC000411101C008950C947F09DC011596ED9148
:100AD000FC9116972081222311F080E008950E9456
:100AE0005E0881E00895EDEEF4E011821082359603
:100AF00085E0EF31F807C9F710921C0584E190E01A
:100B0000A0E0B0E08093230590932405A0932505F1
:100B1000B0932605109227058EE495E09093290561
:100B20008093280565E675E080E00C941304CF936C
:100B3000DF93EC01E881F9818181883819F0DF9138
:100B4000CF9108958081813611F08134C1F78A8177
:100B50008031A8F380510E94F804009781F320E2CD
:100B6000FC0120832B81E158FF4F20832C81FC0165
:100B7000E058FF4F20839C012E5F3F4F4A816881E0
:100B8000798150E0C9010E94B94F80911C058F5FA7
:100B900080931C05D4CF2F923F925F926F927F92E9
:100BA0008F929F92AF92BF92CF92DF92EF92FF927D
:100BB0000F931F93CF93DF93CDB7DEB72A970FB66E
:100BC000F894DEBF0FBECDBF80911C058823F1F0E5
:100BD000512C54E2752E6CE4C62E65E0D62E72E2DE
:100BE000672EE7E9AE2EB12C852D0E9420058C01E1
:100BF000DC018C91823211F1843209F421C18032FE
:100C000009F4B3C05394B3E05B12EECF2A960FB64B
:100C1000F894DEBF0FBECDBFDF91CF911F910F9132
:100C2000FF90EF90DF90CF90BF90AF909F908F900C
:100C30007F906F905F903F902F9008951092E904FD
:100C4000D80151968C91519782958F70282F30E062
:100C5000243031050CF0FDC0F901EE0FFF1FE65105
:100C6000F64F0190F081E02D309709F4F2C01D9607
:100C70002D913C911E973A83298351969C915197CF
:100C80009F709B838C83A8014E5E5F4F5F834E8372
:100C900011968C91119780518887A158BF4F8C91E4
:100CA0008987D801A058BF4F8C918A87D8011B969D
:100CB0008C91982F937082FDE8C080E0892BD80139
:100CC0001F964D915C9150974F3F5F4F09F4E8C0DC
:100CD00090E0892BD80119964D915C911A972417B1
:100CE000350709F4DBC090E0892BD80115962D91CA
:100CF0003C9116972F3F3F4F09F4CEC090E0892BCF
:100D00008D83CE0101960995F801278130852F3F0B
:100D10003F4F09F4A6C060E0F801938590FFB0C092
:100D2000882309F4ADC083E00E94F8047C01009799
:100D3000C9F00E942805F701ED57FF4FD182C0820C
:100D4000D8011D962D913C911E97F701308B278776
:100D5000128A8091E904848B1C968C91838BC70145
:100D60000E94D607D8017C924DCFF801708227856A
:100D700030892F3F3F4F09F48AC02090E40930901A
:100D8000E509F801E584F6842E143F0409F43ACF0E
:100D9000838581FD37CF4801FDE08F0E911CEAEE7F
:100DA000F4E020E030E08FEF0FC0D4016D917C9132
:100DB000408151816417750709F474C02F5F3F4F5C
:100DC00035962A30310559F043815481452B69F716
:100DD000822F2F5F3F4F35962A303105A9F78F3F7D
:100DE00009F410CF992787FD9095FC01EE0FFF1FA6
:100DF000EE0FFF1FE80FF91FE651FB4FF182E08273
:100E0000D8011C968C918283B482A3828DE195E0F7
:100E10000E947F092090E4093090E509F80187815C
:100E20009085019609F453C0F80187859089821551
:100E3000930519F0019609F0E5CED8016C92E2CE47
:100E4000C8010E941D0580911C05815080931C05DE
:100E5000D9CE80E0F801278130852F3F3F4F09F040
:100E60005ACF61E04091E4095091E509D8011F96FD
:100E70002D913C9150974217530709F04CCF4CCF1E
:100E8000611151CFD8017C92BDCE80E217CF1B9665
:100E90008C9180FF72CFB6CE90E131CF98E024CF15
:100EA00094E017CFF8018485F901EE0FFF1FEE0FD4
:100EB000FF1FE20FF31FE651FB4F9281282F291BE2
:100EC00012160CF09FCE8283B482A382A7CFF801C2
:100ED000878590898215930509F4AFCFF8012581A4
:100EE00036812F3F3F4F09F4A5CFD8011B962C9197
:100EF00022FDA0CFC8010E9414082090E409309080
:100F0000E50992CF0C941D05FF920F931F93CF9389
:100F1000DF93EC0180912C05882339F110E085E105
:100F2000F82E00E1812F0E942005FC018081843190
:100F300059F01F5F1330B1F7CE01DF91CF911F91B0
:100F40000F91FF900C947F09DF01A058BF4F2D91A6
:100F50003C911197215031092D933C93232B49F754
:100F6000F082E158FF4F0083E4CFDF91CF911F91D2
:100F70000F91FF90089510922B0510922A05109260
:100F80002C0582E390E0A0E0B0E0809333059093DD
:100F90003405A0933505B09336051092370584E8E3
:100FA00097E090933905809338050895FC01DC01A2
:100FB000AE57BF4F8C9191E19083DF01A158BF4F95
:100FC0001C9280FF20C08FEF9FEF968385838785DB
:100FD0009089908787832091E4093091E5093287D1
:100FE00021872091E9092F5F2093E9092483019645
:100FF00089F081E698E89383828380912C058F5F46
:1010000080932C0508958091E6099091E7099683D5
:101010008583DDCF81E498E89383828380912C05DA
:101020008F5F80932C0508950F931F93CF93DF93C9
:101030008C01FC01818180510E94F804EC01009731
:10104000C1F1FC01ED57FF4F82E897E09183808367
:101050009E012E5F3F4FF80141810E5F1F4F50E010
:10106000B801C9010E94B94F81E18883FE01E158AE
:10107000FF4F108281E498E89B838A838FEF9FEF74
:1010800098878F838091E6099091E7099E838D83ED
:101090008091E4099091E5099A8789878091E9090F
:1010A0008F5F8093E9098C8380912C058F5F8093FB
:1010B0002C05DF91CF911F910F9108951F93CF932E
:1010C000DF93FC01C581D68180912C05882359F0DE
:1010D00010E0812F0E942005FC018081843139F0CD
:1010E0001F5F1330B1F7DF91CF911F910895948561
:1010F00089819813F5CF85E180838A81EE57FF4F70
:101100008083F1CFE0912A05F0912B05833080F0A8
:10111000833081F0853081F081E0DF01A158BF4F3D
:101120008C9383E1808310922B0510922A050895F9
:1011300080E0F3CF80E2F1CF81E2EFCFAF92BF92B8
:10114000CF92DF92EF921F93CF93DF9380912C0584
:101150008823C1F010E095E1E92E24E1C22E37E0AA
:10116000A32EB12C42E1D42E812F0E942005EC0148
:101170008881833181F0853171F18131E9F01F5F20
:10118000133091F7DF91CF911F91EF90DF90CF90C7
:10119000BF90AF900895FE01E158FF4F808181110B
:1011A00009C04D855E852091E4093091E50942171B
:1011B0005307F9F0E882E3CF0E94C8028111DFCF24
:1011C000D0932B05C0932A05D8826981CE0102965F
:1011D0000E94D402D4CFFE01ED57FF4F0190F08161
:1011E000E02DCE01099580912C05815080932C052E
:1011F000C6CF8B8580FFDECFC882C058DF4FB98253
:10120000A8828DE295E00E947F09B9CF0E949001EB
:101210000E947A090E946C020C94EB030E943B032B
:101220000E941C040C9495090F931F93CF93DF9396
:10123000EC0180913A0590913B05009709F447C075
:101240004E815F8168857985FC01A0E0B0E001C036
:10125000F90102811381248135814017510762070A
:101260007307E0F0401B510B620B730B208131813F
:10127000DF012115310561F74A835B836C837D8330
:101280001097D1F08D919C91119799838883CD937C
:10129000DC93DF91CF911F910F910895041B150BE3
:1012A000260B370B02831383248335834A835B83A6
:1012B0006C837D83109731F799838883D0933B05A6
:1012C000C0933A05DF91CF911F910F910895198234
:1012D00018824E815F81688579854A835B836C8340
:1012E0007D83D0933B05C0933A05DF91CF911F9149
:1012F0000F91089510923B0510923A050895E091E0
:101300003A05F0913B05309761F08E179F0721F465
:101310000BC08E179F0739F00190F081E02D3097B8
:10132000C1F70C94140908950895CF92DF92EF92BB
:10133000FF92CF93DF938091E309882309F458C08B
:101340009FB7F8948091E3091092E3099FBF90E062
:10135000A0E0B0E0880F991FAA1FBB1F6C017D01A0
:10136000CC0CDD1CEE1CFF1CCC0CDD1CEE1CFF1C91
:10137000C80ED91EEA1EFB1EC0913A05D0913B054E
:101380002097B1F14A815B816C817D81C416D506BD
:10139000E606F706A0F424C0EB85FC85CE0109958E
:1013A000C0913A05D0913B05209711F14A815B81AC
:1013B0006C817D81C416D506E606F70688F0C41A4E
:1013C000D50AE60AF70A8881998190933B058093B4
:1013D0003A058A85813001F7CE010E941409DCCFDD
:1013E0004C195D096E097F094A835B836C837D8399
:1013F000DF91CF91FF90EF90DF90CF90089581E043
:1014000080930C028091F00986FF04C08091F0095E
:1014100087FDA7C08091F00986FF22C080919A02C3
:1014200090919B02892BE9F080919902811123C050
:1014300010929B0210929A021092990281E00E94EF
:10144000F20F1092841E1092831E1092861E10922C
:10145000851E1092AD024FEF60E080E00C94930E79
:10146000089583E00E94F20F0E94C136892B09F48F
:1014700076C00C94B2360E94CA3F80ED8093F81477
:101480008EE08093F91480919A0290919B02909340
:10149000FA1480919A0290919B028093FB1410920F
:1014A000FC1486E78093FD1488E08093FE1410926C
:1014B000FF141092001510920115109202158FEF73
:1014C000809303151092041582E1809305156091B5
:1014D000F91420E04FEF5FEF88EF94E10E9463344E
:1014E0006091F91420E04FEF5FEF88EF94E10E94E4
:1014F00063346091F91420E04FEF5FEF88EF94E1DF
:101500000E9463346091F91420E04FEF5FEF88EFA1
:1015100094E10E9463346091F91420E04FEF5FEF93
:1015200088EF94E10E9463346091F91420E04FEF5A
:101530005FEF88EF94E10E94633410926A1E10926C
:101540009C0280E090E0FC01EE0FFF1FE858FB4E8C
:1015500011821082019680349105A9F769CF0C940D
:1015600052360E949A2683E00C94F20F1F920F923B
:101570000FB60F9211240F900FBE0F901F90189569
:101580000E94650E80919A0290919B02892B31F006
:101590008091831E9091841E0E9488400C94FB3F92
:1015A000CF93DF93CDB7DEB729970FB6F894DEBFA0
:1015B0000FBECDBF0E94650E80919A0290919B0252
:1015C000892B21F08091990281111CC08091AD027C
:1015D0008130D1F18330C1F180919A0290919B02C8
:1015E000892B29F080919902882309F462C00E9416
:1015F000944129960FB6F894DEBF0FBECDBFDF91A0
:10160000CF91089580919C0290E0019663E070E094
:101610000E94D94C80939C0280919C028130F1F110
:1016200008F04AC08091831E9091841E892B71F628
:101630000E94EC250E94CA3F4FEF60E080E00E94CC
:10164000930E10926A1ED5CF82E08093AD028091F6
:101650009A0290919B02892BF1F080ED898389E0B9
:101660008A8380919A0290919B029B8380919A0237
:1016700090919B028C831D828DE48E8383E08F8307
:10168000188682E1898720E04FEF5FEF69E0CE01A5
:1016900001960E9463340E94EC25ABCF0E94CA3FA2
:1016A00040E06FEF80E00E94930E87E080936A1E17
:1016B000A0CF0E94D3419DCF823009F087CF0E94F6
:1016C000EC254FEF6FEF80E00E94930E89E080934E
:1016D0006A1E8FCF80ED97E0A0E0B0E08093F6091E
:1016E0009093F709A093F809B093F90981E08093EA
:1016F000F5098FEF99E09093FB098093FA0985EF44
:1017000099E00C94E83485EF99E00C94B4348F920E
:101710009F92AF92BF92CF92DF92EF92FF920F9380
:101720001F93CF93DF93CDB7DEB72C970FB6F89406
:10173000DEBF0FBECDBFE62EE8269091470299236B
:1017400009F442C0E6FA442740F9E7FC93C0E5FCFF
:10175000446066FD63C030E021E067FD63C0226045
:1017600065FF63C0346080E289838AE08A83809168
:101770004D0290914E02A0914F02B09150028B8386
:101780009C83AD83BE834F83388729871A868091D7
:10179000510290915202892B09F449C02091C20E46
:1017A0003091C30E8091510290915202281739074F
:1017B000F1F1409151025091520221E06AE0CE01D4
:1017C00001960E94633443C06623F9F090910C02A5
:1017D00091113DC0E6FE52C06C878B8766FF62C0E8
:1017E0000E946A0B20E030E06C858B85E7FC53C0DB
:1017F000E5FE47C065FD45C086FD46C085FD6DC060
:1018000087FF25C00E94D00A22C090910C02992324
:10181000E9F210920C0210920B0219C031E020E0A4
:1018200067FF9DCF326065FD9DCF24609CCF4091C6
:10183000C20E5091C30E21E06AE070E0CE01019625
:101840000E94CE27FC01618170E00E94BD272C968A
:101850000FB6F894DEBF0FBECDBFDF91CF911F91C1
:101860000F91FF90EF90DF90CF90BF90AF909F903F
:101870008F9008954260E5FE6CCF6ACF20E030E0A3
:10188000B5CF232B21F3B8CF87FD41C085FD25C0FF
:101890000E94C00ADCCF67FD0CC010920B0221E051
:1018A00030E0A6CF0E94830B21E030E06C858B8571
:1018B0009DCF91E090930B0280904D0290904E024C
:1018C000A0904F02B09050028092F1099092F209DC
:1018D000A092F309B092F4098BCF0E94650E80911B
:1018E000510290915202892B49F04FEF60E080E065
:1018F0000E94930E10925202109251021092841E76
:101900001092831E1092861E1092851EA0CF81E039
:101910006C870E94F20F0E9405426C85662319F0C5
:1019200081E080930C028091C80E811126C08091C5
:101930000B0F811122C080914E0F81111EC03AEF12
:10194000C32E3EE0D32EE12CF12CF6011182108241
:10195000FFEFEF1AFF0A0BED1FE029EC3FE340E039
:1019600050E0BA01C7010E94F21B83E4C80ED11CEB
:10197000E3E0EE16F10449F76ACF0E94EC2567CF49
:10198000CF9380914D0290914E02A0914F02B09161
:10199000500240910D0250910E0260910F02709121
:1019A0001002841B950BA60BB70B4997A105B10537
:1019B000F0F0C9B1C095C07EC093F00980911102CA
:1019C0008C17A9F06C2F0E94870B80914D0290918B
:1019D0004E02A0914F02B091500280930D0290935D
:1019E0000E02A0930F02B0931002C0931102CF9188
:1019F00008951092B100249808950C94F90CCF9397
:101A0000DF9382E48093B000A3EBB0E082EB8C9391
:101A1000E1EBF0E085E080832FEF32E597E02150A5
:101A200030409040E1F700C000001082CFE1DEE4DA
:101A30002197F1F700C0000095E89C938083DFEFC9
:101A400022E537E0D15020403040E1F700C00000EF
:101A50001082249881E08093840D84E690E0A0E0D9
:101A6000B0E08093850D9093860DA093870DB09381
:101A7000880D8DEF9CE090938A0D8093890DDF9106
:101A8000CF9108959C01009709F18A3F910578F064
:101A900085E08093B10064E274EF80E090E0249AE6
:101AA00040E050E00E940F4D2093B300089587E07E
:101AB0008093B10064E87EE180E090E0249A40E009
:101AC00050E00E940F4D2093B30008950C94F90C40
:101AD000CF93DF93C82FCF7082958F7009F161E0AB
:101AE00090E0660F9F5F9813FCCF70E0D0E0CC0FC2
:101AF000DD1FCC0FDD1FCE5EDD4F882777FD809583
:101B0000982F0E942947288139814A815B810E9450
:101B100016480E94FB46CB01DF91CF910C94420DF9
:101B200061E070E0E3CF0F931F93CF93DF9300D07A
:101B3000CDB7DEB70E94F90C009143021091440228
:101B40000115110509F480C080914502909146026B
:101B5000801791070CF05EC03091930D20E0880F44
:101B6000991F820F931F45960E941C140E94680DB6
:101B70003091930D20E08091450290914602880FAC
:101B8000991F820F931F44960E941C148093410555
:101B900040914502509146024F5F5F4F509346027D
:101BA00040934502609143027091440264177507A7
:101BB00094F40E94BA4E8A830E94BA4E89830E948E
:101BC000BA4E4A8169810F900F90DF91CF911F919A
:101BD0000F910C94930E1092940D282F30E040E05A
:101BE00050E060913D0570913E0580913F059091D8
:101BF00040050E94ED4C2093950D3093960D409337
:101C0000970D5093980D83E99DE090939A0D8093E2
:101C1000990DCFCF81E08093940D109246021092DF
:101C2000450210924402109243020E94F90C109255
:101C300042024FEF60E080E00F900F90DF91CF9174
:101C40001F910F910C94930E9091930D80E042960A
:101C50000E941C1480933C059091930D80E0439664
:101C60000E941C14082F10E01093440200934302BA
:101C700020913C0530E040E050E060E879EA83E004
:101C800090E00E94ED4C20933D0530933E0540933B
:101C90003F055093400558CF91E0909342029093B6
:101CA000940D1092950D1092960D1092970D109222
:101CB000980D23E93DE030939A0D2093990D809380
:101CC000930D84E99DE00C94E83486EE90E00E9448
:101CD000420D84E89DE00C94E8341F920F920FB6F9
:101CE0000F9211248F939F93AF93BF9380914D02D6
:101CF00090914E02A0914F02B09150020196A11D09
:101D0000B11D80934D0290934E02A0934F02B09369
:101D10005002BF91AF919F918F910F900FBE0F9086
:101D20001F901895089590E1899F90011124309398
:101D300099002093980090E1699F900111243093BD
:101D40009D0020939C0090E1499F900111243093C5
:101D50009B0020939A008093A80D6093A90D409357
:101D6000AA0D08958091A30D9091A40D01979093D1
:101D7000A40D8093A30D181619061CF081E0809322
:101D8000B20E4091AA0D40586091A90D6058809103
:101D9000A80D80580C94930E20E1829FC00111245D
:101DA000909399008093980080E1689FB00111247E
:101DB00070939D0060939C0020E1429FA00111243C
:101DC00050939B0040939A000895CF93DF938091A6
:101DD0009A0290919B02892B59F180919902882354
:101DE00039F1C0915702D09158029E01A9E8B8E894
:101DF0000E94B94C96958795969587959695879567
:101E00004FE0489F9001499F300D1124CE01821B65
:101E1000930B039780F44091651E6091641E80913E
:101E2000631E0E94CC0E2196D0935802C093570295
:101E3000DF91CF9108954091AA0D6091A90D8091F5
:101E4000A80D0E94CC0EEFCF0F93CF93DF9300D05D
:101E50001F92CDB7DEB781E08B8302E09E012F5F3A
:101E60003F4F41E0BE016D5F7F4F8CE10E94C8444F
:101E70000E94F644998180E09093A60D8093A50D71
:101E80008091A50D9091A60D2A81822B9093A60D8D
:101E90008093A50D83E08B839E012F5F3F4F41E030
:101EA000BE016D5F7F4F8CE10E94C8440E94F644E2
:101EB000998180E09093AD0E8093AC0E8091AC0E32
:101EC0009091AD0E2A81822B9093AD0E8093AC0E33
:101ED00085E08B839E012F5F3F4F41E0BE016D5F28
:101EE0007F4F8CE10E94C8440E94F644998180E0B3
:101EF0009093C60E8093C50E8091C50E9091C60E2C
:101F00002A81822B9093C60E8093C50E80E00F909D
:101F10000F900F90DF91CF910F910895CF93C82F1D
:101F20008823F1F040E06FEF80E00E94930E2FEFE6
:101F300081EE94E0215080409040E1F700C0000025
:101F400040E060E08FEF0E94930E2FEF81EE94E06F
:101F5000215080409040E1F700C00000C15011F7CF
:101F6000CF91089585E00C948E0F0F93CF93DF935C
:101F700000D000D0CDB7DEB78DE08C8301E09E01AC
:101F80002D5F3F4F41E0BE016C5F7F4F8CE10E94AF
:101F9000C8440E94F644892B09F58B818A3219F0D6
:101FA00084E10E948E0F8AE2898389E18A8342E07C
:101FB000BE016F5F7F4F8CE10E948C440E94F6440B
:101FC000892B19F084E10E948E0F80E00F900F9012
:101FD0000F900F90DF91CF910F91089584E10E94AF
:101FE0008E0FDBCF2091A30D3091A40D1216130696
:101FF0000CF4089590E0880F991F9093A40D80939E
:10200000A30D1092B20E84E690E0A0E0B0E08093C1
:10201000B30E9093B40EA093B50EB093B60E82EBB0
:102020009EE09093B80E8093B70E82EB9EE00C94E6
:10203000E8349AE09093770090917C00907C9093A4
:102040007C0090917C00906C90937C0090917C003F
:10205000982B90937C0080917A00876C80937A0013
:1020600080917A0086FDFCCF209178003091790034
:10207000932F937080E0AC01422B9A01C90108951F
:10208000CF93DF9380E88093610010926100F89411
:1020900080EF84B98BB1806E8BB9809168008160CC
:1020A0008093680080916B00826080936B008091C8
:1020B0006B00846080936B0080916B0088608093DC
:1020C0006B008FB780688FBF88E18AB98BB183605E
:1020D0008BB98FE78DB98FE383BB819A89982FEFF6
:1020E00081EE94E0215080409040E1F700C0000074
:1020F00082E00E941910EC018198829A8A982FEF51
:1021000081EE94E0215080409040E1F700C0000053
:1021100081E00E9419108298C436D10524F48436D7
:1021200091050CF453C082E08093AB0D82E090E007
:102130009093AF0E8093AE0E81E090E09093B10E3D
:102140008093B00E3AEA3093800029E12093810019
:102150008FEF9FE0909387008093860030939000EC
:102160002093910090939700809396001092250100
:10217000109224018091730082608093730080919B
:1021800021018C60809321018EE390E090932901DE
:1021900080932801909327018093260184B7877F3D
:1021A00084BF80916000886180936000109260001D
:1021B00080EC80937C0010927B008FEE80937A00FD
:1021C0000E94D0147894DF91CF91089583E080939A
:1021D000AB0D84E090E09093AF0E8093AE0E83E061
:1021E00090E09093B10E8093B00EACCFE82FF0E06A
:1021F000EE0FFF1FEC52F04F20813181C90108958D
:102200000E94F610BC0180E090E00E9427472DEC70
:102210003CEC4CEC5FE30E94164820E030E040E8E4
:102220005AE30E941648089580E00E94F610BC010F
:1022300080E090E00E9427472DEC3CEC4CEC5FE303
:102240000E94164820E030E040E85AE30E94164819
:102250002EE63BED46EB5EE30E948E460895CF935B
:10226000DF93CDB7DEB72C970FB6F894DEBF0FBE65
:10227000CDBF69877A878B879C8780914D0290912B
:102280004E02A0914F02B091500289839A83AB8392
:10229000BC8329813A814B815C8189859A85AB8594
:1022A000BC85820F931FA41FB51F8D839E83AF83B0
:1022B000B887000020914D0230914E0240914F02AC
:1022C000509150028D819E81AF81B885821793070E
:1022D000A407B50778F72C960FB6F894DEBF0FBEAB
:1022E000CDBFDF91CF910895809160008861809388
:1022F0006000809160008D6080936000FFCF4F92FE
:102300005F926F927F92AF92BF92CF92DF92EF92E5
:10231000FF920F931F93CF93DF93CDB7DEB76F97E5
:102320000FB6F894DEBF0FBECDBF0E94240F6091A0
:10233000A50D7091A60D882777FD8095982F0E9496
:10234000294720E030E040E858E30E9416482B017E
:102350003C016091AC0E7091AD0E882777FD8095A1
:10236000982F0E94294720E030E040E858E30E947F
:1023700016486B017C016091C50E7091C60E8827CE
:1023800077FD8095982F0E94294720E030E040E8B3
:1023900058E30E9416485B018C01242D352D462DF3
:1023A000572D642D752D862D972D0E9416482B01D3
:1023B0003C012C2D3D2D4E2D5F2D6C2D7D2D8E2D18
:1023C0009F2D0E9416489B01AC01C301B2010E94DF
:1023D00023466B017C012A2D3B2D402F512F6A2D66
:1023E0007B2D802F912F0E9416489B01AC01C701C5
:1023F000B6010E9423460E9483487B018C01809194
:102400004D0290914E02A0914F02B0915002409126
:102410004205509143056091440570914505841B28
:10242000950BA60BB70B8B3F9105A105B10508F0E5
:10243000BEC0A0904605B0904705C0904805D0901A
:1024400049052E2D3F2D402F512F6A2D7B2D8C2D90
:102450009D2D0E9422465B016C0120E030E0A90125
:102460007B2D9D2D0E94874687FDC0C02AE939E952
:1024700049E15FE36A2D7B2D8C2D9D2D0E94124832
:1024800018160CF063C010920B0221E020930C028E
:1024900080919A0290919B02892B29F480916A1E67
:1024A000882309F4B0C080916A1E81114FC08091C9
:1024B0004D0290914E02A0914F02B0915002409176
:1024C0005302509154026091550270915602841B40
:1024D000950BA60BB70B843F9140A105B10508F4FD
:1024E00051C083ED89838CE08A831B821C821D820C
:1024F0001E8280919A0290919B029F8380919A0202
:1025000090919B0288878091631E89878091641EC9
:102510008A878091651E8B8782E18C8720E04FEF50
:102520005FEF6CE0CE0101960E94633480914D0212
:1025300090914E02A0914F02B091500280935302AD
:1025400090935402A0935502B09356028E2D9F2D66
:10255000A02FB12F8093460590934705A09348057F
:10256000B093490580914D0290914E02A0914F0287
:10257000B09150028093420590934305A093440587
:10258000B09345056F960FB6F894DEBF0FBECDBF72
:10259000DF91CF911F910F91FF90EF90DF90CF903F
:1025A000BF90AF907F906F905F904F9008958E2D69
:1025B0009F2DA02FB12F8093460590934705A093A0
:1025C0004805B093490580914D0290914E02A0912B
:1025D0004F02B09150028093420590934305A0931F
:1025E0004405B0934505570168012BCF2AE939E925
:1025F00049E15FEB6A2D7B2D8C2D9D2D0E94874636
:1026000087FFA4CF40CF80914D0290914E02A091C0
:102610004F02B091500280936B1E90936C1EA0935A
:102620006D1EB0936E1E80914D0290914E02A0914E
:102630004F02B09150022F8F0E94BE4E0E94BA4EA0
:1026400040904D0250904E0260904F0270905002A8
:102650003AEF430E511C611C711C62EE74E00E9443
:10266000D94CAA2797FDA095BA2F480E591E6A1E6D
:102670007B1E40926F1E5092701E6092711E70926F
:10268000721E2F8D20936A1E61CFCF93DF93CDB73B
:10269000DEB7AD970FB6F894DEBF0FBECDBF0E9478
:1026A000F4260E9440100E9480440E94B50F8823A7
:1026B00021F08AE00E948E0FFCCF0E94FF0C0E9446
:1026C00064310E9493378091480290914902A09111
:1026D0004A02B0914B028A279B270E94BE4E0E945D
:1026E000FC251F8E8FE090E0A0E0B0E088A399A3C6
:1026F000AAA3BBA384E990E29DA38CA3CE014F962D
:102700000E94E834188A84E690E0A0E0B0E0898B6B
:102710009A8BAB8BBC8B85EE9EE09E8B8D8BCE0116
:1027200040960E94E834198280E091E0A0E0B0E099
:102730008A839B83AC83BD8382E492E49F838E83F0
:10274000CE0101960E94E8344FEF60E080E00E94E5
:10275000930E0E940E090E9462350E940E090E948B
:10276000FE2F0E9402450E940E090E94C7310E945E
:10277000C00C0E940E090E94093980910B02882327
:1027800041F30E947F11E5CFCF92DF92EF92FF924B
:102790006B017C0120E030E0A9010E94874687FDA3
:1027A0001AC020E030E0A901C701B6010E9412481A
:1027B000181674F490E88FE350E040E09C01652F18
:1027C000742F832F922FFF90EF90DF90CF9008957A
:1027D00090E080E0F1CF90E88FEBEECFE0915902EE
:1027E000E11103C0F894E09159027FEF54E144E213
:1027F000F999FECF2AE030E0000021503109E1F7DD
:1028000092BD81BD70BD5FBBF99AF999FECF2AE0F8
:1028100030E0000021503109E1F760BD4FBBF99A6B
:10282000F999FECF92BD81BDF89A20B56213E0CF31
:10283000E11101C07894089520915902211103C03B
:10284000F89420915902F999FECF92BD81BDF89A72
:10285000211101C0789480B50895EF92FF920F93F3
:102860001F93CF93DF938C01F89481E080935902FA
:10287000141615066CF4EB017B01E40EF51E69914C
:10288000C8010E94EE130F5F1F4FCE15DF05B9F789
:10289000109259027894DF91CF911F910F91FF9080
:1028A000EF900895EF92FF920F931F93CF93DF93D2
:1028B000F89421E0209359021416150684F4EB01D4
:1028C0007B01E40EF51E8C01061B170BC8018C0F53
:1028D0009D1F0E941C148993CE15DF05B9F7109235
:1028E00059027894DF91CF911F910F91FF90EF9053
:1028F00008951F920F920FB60F9211240BB60F92EC
:102900001BBE2F933F934F935F938F939F93EF93B0
:10291000FF93809160028F5F809360028330D0F1DB
:102920001092600240916102E42FF0E08091780003
:1029300090E0EE0FFF1FEC52F04F91838083808177
:10294000918150917900352F337020E0822B932BA9
:10295000918380834F5F483000F5409361028091FE
:102960007C00807E80937C0080917C00909161024D
:10297000892B80937C00FF91EF919F918F915F91C4
:102980004F913F912F910F900BBE0F900FBE0F9064
:102990001F9018958111EFCFC5CF10926102DFCF44
:1029A0008F929F92AF92BF92CF92DF92EF92FF925F
:1029B0000F931F93CF93DF938CE091E0E8ECFEE060
:1029C000DF019C011D9221503040E1F7C0E0D0E0D2
:1029D00033E4832E41E2C42E41E3D42E48E9E42EB1
:1029E00044E4F42E00E517E726ED3DE34FEF5FEFFB
:1029F000BA01AA24AA94BA2CE0E89E2E83EF96E6A8
:102A0000AFEDBFE38C9EF0018D9EF00D1124E853D5
:102A1000F14F10821182128213821482C582D682F3
:102A2000E782F0860187128723873487158616860A
:102A30001786108A128A118A148A138A158A168AAE
:102A4000178A108E118E138E128E448F558F668FBB
:102A5000778FB1A2A0A292A286A397A3A0A7B1A7A5
:102A600012A613A614A615A613AA12AA2196C3305D
:102A7000D10541F6DF91CF911F910F91FF90EF901B
:102A8000DF90CF90BF90AF909F908F9008952F923E
:102A90003F924F925F926F927F928F929F92AF92EE
:102AA000BF92CF92DF92EF92FF920F931F93CF933B
:102AB000DF93CDB7DEB72B970FB6F894DEBF0FBE0E
:102AC000CDBF1C018091740290917502892B09F48D
:102AD000A1C181E02816310409F4E4C024F0A4E087
:102AE0002A1631042CF10E94B20F00E010E0F0E849
:102AF000EF2EAFEBFA2E602F712F8E2D9F2D2B9680
:102B00000FB6F894DEBF0FBECDBFDF91CF911F91FE
:102B10000F91FF90EF90DF90CF90BF90AF909F907C
:102B20008F907F906F905F904F903F902F9008957F
:102B30008091AE0E0E9400116B017C018091B00E5D
:102B40000E9400114B015C0170907A0240907B0260
:102B500020907C0230907D0220E030E040E05FE396
:102B6000672D742D822D932D0E9416488B018B8723
:102B70009A876E831F8388879987762F982F8A85F7
:102B8000272F312F492F582FC701B6010E94224607
:102B9000562E7983682E9D83C62ED72EE82EF92EC9
:102BA0009B858A85202F312F492F582FC501B401CD
:102BB0000E942246862E972EA82EB92E80917E0244
:102BC00090917F028130910509F4B9C2029709F40E
:102BD00022C320E030E04AEA53E4C701B6010E9474
:102BE0001648272D342D422D532D0E948E46462FF8
:102BF000572F682F792FDB01CA01BC01CD019058F6
:102C00002BED3FE049E450E40E94164820E030E01C
:102C100044E353E40E948E4620913F0F3091400FD1
:102C20004091410F5091420F0E9423468B017C013D
:102C30002BED3FE049E450EC712F9F2D0E94874619
:102C400018161CF12BED3FE049EC50E4602F712F7A
:102C50008E2D9F2D0E9423468B017C012BED3FE0A2
:102C600049E450EC712F9F2D0E948746181654F7A7
:102C700042CF2BED3FE049EC50E4602F712F8E2DB9
:102C80009F2D0E9422468B017C012BED3FE049E401
:102C900050E4602F712F8E2D9F2D0E941248181620
:102CA00044F329CF86E00E9400116B017C0185E08E
:102CB0000E9400114B015C017090760240907702F7
:102CC000209078023090790220E030E040E05FE32D
:102CD000672D742D822D932D0E9416488B018B87B2
:102CE0009A876E831F8388879987762F982F8A8586
:102CF000272F312F492F582FC701B6010E94224696
:102D0000562E7983682E9D83C62ED72EE82EF92E57
:102D10009B858A85202F312F492F582FC501B4015B
:102D20000E942246862E972EA82EB92E80917402DC
:102D3000909175028130910509F436C1029709F42A
:102D40009FC120E030E04AEA53E4C701B6010E9487
:102D50001648272D342D422D532D0E948E46462F86
:102D6000572F682F792FDB01CA01BC01CD01905884
:102D70002BED3FE049E450E40E94164820E030E0AB
:102D800044E353E40E948E462091FC0E3091FD0EE8
:102D90004091FE0E5091FF0E0E9423468B017C0154
:102DA0002BED3FE049E450EC712F9F2D0E948746A8
:102DB00018161CF12BED3FE049EC50E4602F712F09
:102DC0008E2D9F2D0E9423468B017C012BED3FE031
:102DD00049E450EC712F9F2D0E948746181654F736
:102DE0008ACE2BED3FE049EC50E4602F712F8E2D01
:102DF0009F2D0E9422468B017C012BED3FE049E490
:102E000050E4602F712F8E2D9F2D0E9412481816AE
:102E100044F371CE86E00E9400116B017C0120E03A
:102E200030E040E05FE3609176027091770280913C
:102E30007802909179020E9416489B01AC01C7016B
:102E4000B6010E9422468B018D839983AB01BC01A0
:102E50004A015B0185E00E9400116B017C0120E0CA
:102E600030E040E05FE360917602709177028091FC
:102E70007802909179020E9416489B01AC01C7012B
:102E8000B6010E942246462F572F682F792F2A011C
:102E90003B0120E030E0A901B8018D8199810E94B9
:102EA000874687FD2DC220E030E0A901C301B201B1
:102EB0000E94874687FD1FC2A3019201C501B4018C
:102EC0000E94874687FD69C082E090E0909375027A
:102ED000809374028091AE0E0E9400116B017C0100
:102EE00020E030E040E05FE360917A0270917B0285
:102EF00080917C0290917D020E9416489B01AC015A
:102F0000C701B6010E9422468B018D839983AB01D4
:102F1000BC014A015B018091B00E0E9400116B015F
:102F20007C0120E030E040E05FE360917A02709144
:102F30007B0280917C0290917D020E9416489B0149
:102F4000AC01C701B6010E942246462F572F682FB9
:102F5000792F2A013B0120E030E0A901B8018D81E1
:102F600099810E94874687FDC1C120E030E0A90118
:102F7000C301B2010E94874687FDB3C1A30192013C
:102F8000C501B4010E94874687FFA4C181E090E09B
:102F900090937F0280937E029CCD81E090E090939D
:102FA00075028093740296CF20E030E0A901652D70
:102FB0007981862D9D810E94874687FDDEC1852D02
:102FC0009981A62DBD8189839A83AB83BC8326E634
:102FD00036E646E65FE3FB85EA85602F712F8F2F8B
:102FE0009E2F0E9416489B01AC0169817A818B81DA
:102FF0009C810E94124818160CF0A3CEA5019401E2
:10300000C701B6010E9422468B011C012B013C0125
:1030100020E030E0A9010E94874687FDE6C120E05C
:1030200030E04AEA53E4B801C1010E94164820E0AA
:1030300030E044E353E40E948E46762E472E1C0176
:10304000862F942DA22DB32D809376029093770234
:10305000A0937802B093790282E090E09093750299
:103060008093740220E030E040E05FE3672D742D30
:10307000822D932D0E9416486E837F8388879987BF
:1030800020E030E0A901C501B4010E94874687FD18
:103090008CC189829A82AB82BC8226E636E646E6FD
:1030A0005FE3BE81AF81E88519856B2F7A2F8E2F64
:1030B000912F0E9416489B01AC0169817A818B8116
:1030C0009C810E94124818160CF01FC1A5019401A2
:1030D000C701B6010E9422468B013C01CB01D301FE
:1030E0004C015D0120E030E0A901B801C3010E945C
:1030F000874687FD72C120E030E04AEA53E4B80118
:10310000C3010E94164820E030E044E353E40E94EB
:103110008E46762E472E1C01862F942DA22DB32D80
:103120008093760290937702A0937802B09379020D
:1031300081E090E0909375028093740202CE20E0CB
:1031400030E0A901652D7981862D9D810E948746F9
:1031500087FD1BC1852D9981A62DBD8189839A8309
:10316000AB83BC8326E636E646E65FE3FB85EA856D
:10317000602F712F8F2F9E2F0E9416489B01AC014C
:1031800069817A818B819C810E94124818160CF00B
:1031900020CDA5019401C701B6010E9422468B01F2
:1031A0001C012B013C0120E030E0A9010E94874670
:1031B00087FD03C120E030E04AEA53E4B801C101D1
:1031C0000E94164820E030E044E353E40E948E461B
:1031D000762E472E1C01862F942DA22DB32D809381
:1031E0007A0290937B02A0937C02B0937D0282E0EE
:1031F00090E090937F0280937E0220E030E040E0F8
:103200005FE3672D742D822D932D0E9416486E83E7
:103210007F838887998720E030E0A901C501B40148
:103220000E94874687FDB9C089829A82AB82BC82A0
:1032300026E636E646E65FE3BE81AF81E88519857E
:103240006B2F7A2F8E2F912F0E9416489B01AC0175
:1032500069817A818B819C810E94124818160CF03A
:1032600070C0A5019401C701B6010E9422468B01DE
:103270003C01CB01D3014C015D0120E030E0A9010C
:10328000B801C3010E94874687FD9FC020E030E05F
:103290004AEA53E4B801C3010E94164820E030E036
:1032A00044E353E40E948E46762E472E1C01862F5F
:1032B000942DA22DB32D80937A0290937B02A0933C
:1032C0007C02B0937D0281E090E090937F02809336
:1032D0007E027FCC82E090E090937F0280937E021A
:1032E000F8CB77FA709477F8709448CEB7FAB09428
:1032F000B7F8B0943ACE77FA709477F87094DCCD42
:10330000B7FAB094B7F8B094CECD20E030E04AEAF6
:1033100053E4C501B4010E941648272D342D422DD7
:10332000532D0E948E4620E030E044E353E40E9497
:103330002346472F382F292F862F942FA32FB22FC4
:1033400014CD20E030E04AEA53E4C501B4010E9404
:103350001648272D342D422D532D0E948E4620E0F5
:1033600030E044E353E40E942346472F382F292FAF
:10337000862F942FA32FB22F40CCD701C601B0586F
:1033800089839A83AB83BC8322CED701C601B05810
:1033900089839A83AB83BC83E5CED501C401B05841
:1033A00089839A83AB83BC8343CFD501C401B058D2
:1033B00089839A83AB83BC8370CEC301B2019058DA
:1033C00020E030E04AEA53E4FBCEC501B401905856
:1033D00020E030E04AEA53E45FCFC501B4019058E1
:1033E00020E030E04AEA53E48CCEC301B2019058A9
:1033F00020E030E04AEA53E418CE0F931F93CF93B6
:10340000DF938B01D82FC92F2BED3FE049E450EC1F
:10341000FE01712F8F2F9E2F0E948746181694F160
:103420002BED3FE049EC50E4FE01602F712F8F2F10
:103430009C2F0E9423468B01D82FC92F2BED3FE0F4
:1034400049E450ECFE01712F8F2F9E2F0E9487467A
:10345000181634F79E01602F712F832F9C2FDF9158
:10346000CF911F910F9108952BED3FE049EC50E46F
:10347000FE01602F712F8F2F9C2F0E9422468B01FF
:10348000D82FC92F2BED3FE049E450E4FE01602F17
:10349000712F8F2F9C2F0E94124818162CF3DACF11
:1034A0002091AB0D2230F9F0233019F1019723E47C
:1034B000289FF001299FF00D1124E853F14F82E07D
:1034C00080834183528363837483128A118A8DE4DB
:1034D00091E0A0E0B0E0848F958FA68FB78F20E0B9
:1034E00030E0C90108958230910501F72FEF3FEFD9
:1034F000F8CF83309105D1F6F9CF2F923F924F92BA
:103500005F926F927F928F929F92AF92BF92CF9273
:10351000DF92EF92FF920F931F93CF93DF93CDB77C
:10352000DEB72C970FB6F894DEBF0FBECDBF1C01DF
:103530004A015B01680179010091AB0D023009F489
:10354000FCC0033009F400C120E030E0A901C7014C
:10355000B6010E948746882309F4C3C0C1010197C0
:1035600023E4289FD001299FB00D1124A853B14F07
:10357000BA87A9879E964D905D906D907C90D1976B
:10358000A3019201C501B4010E9422466983172F4D
:103590008A839B8320E030E0A9010E94874687FD53
:1035A000A3C023EC38EB42E35EE3B981EA81FB81FF
:1035B0006B2F712FCF010E94874687FDA4C020E0AA
:1035C00030E0A901C701B6010E94874687FDCBC044
:1035D000A7019601B9810A813B806B2F712F802F43
:1035E000932D0E948E4620E030E04AE754E40E948A
:1035F00016486C83272E382E092F20E030E0A901D1
:10360000B981EA81FB816B2F712FCF010E94124893
:1036100018160CF0DCC0A985BA859A96CD92DD9279
:10362000ED92FC929D97A985BA8511964D925D9277
:103630006D927C921497FD01158616861786108A66
:1036400020E030E040E751E4BC816B2F722D832DE8
:10365000902F0E948E468B013C01CB01D3016C015F
:103660007D0120E030E0A901B801C3010E94874636
:1036700087FDA7C0B801C3010E94F646CB01AA2767
:1036800097FDA095BA2FE985FA85848F958FA68F2F
:10369000B78F128A118A868A978AA08EB18E81E0AE
:1036A00090E0938F828F83E0808320E030E0C90137
:1036B0002C960FB6F894DEBF0FBECDBFDF91CF9131
:1036C0001F910F91FF90EF90DF90CF90BF90AF9040
:1036D0009F908F907F906F905F904F903F902F9032
:1036E000089520E030E0E3CF23EC38EB42E35EEBDB
:1036F000B981EA81FB816B2F712FCF010E941248A3
:1037000018160CF05CCF023049F1033011F182E061
:10371000A985BA858C93FD0181829282A382B482AD
:10372000128A118A8DE491E0A0E0B0E0848F958F39
:10373000A68FB78F20E030E0BACF8230910509F034
:1037400003CF2FEF3FEFB3CF8330910509F0FCCECD
:10375000F8CFE3E02E163104D1F6F3CFB2E02B160A
:103760003104A9F6EECFD701C601B0588D839E83F0
:10377000AF83B8879C01AD01B9810A813B806B2F73
:10378000712F802F932D0E948E4620E030E04AE773
:1037900054E40E9416486C83272E382E092F20E00F
:1037A00030E0A901B981EA81FB816B2F712FCF0134
:1037B0000E94124818167CF4CD80DE80EF80F884D9
:1037C0002ACFC701B60190580E94F64657CFF7FAA4
:1037D000F094F7F8F094E985FA85C2A6D3A6E4A69A
:1037E000F5A621CF2F923F924F925F926F927F92D8
:1037F0008F929F92AF92BF92CF92DF92EF92FF9201
:103800000F931F93CF93DF93CDB7DEB72C970FB6EF
:10381000F894DEBF0FBECDBF1C014A015B016801F9
:1038200079010091AB0D023009F412C1033009F4A3
:1038300016C120E030E0A901C701B6010E94874609
:10384000882309F4D9C0C101019723E4289FD0013E
:10385000299FB00D1124A853B14FBA87A9879E960E
:103860004D905D906D907C90D197D2966D917C91AA
:10387000D397882777FD8095982F0E9429472BEDB5
:103880003FE049EC50E40E9416489B01AC01C301A3
:10389000B2010E9423469B01AC01C501B4010E9404
:1038A00022466983172F8A839B8320E030E0A90199
:1038B0000E94874687FDA3C023EC38EB42E35EE31A
:1038C000B981EA81FB816B2F712FCF010E9487465E
:1038D00087FDA4C020E030E0A901C701B6010E9425
:1038E000874687FDCBC0A7019601B9810A813B803D
:1038F0006B2F712F802F932D0E948E4620E030E099
:103900004AE754E40E9416486C83272E382E092F6C
:1039100020E030E0A901B981EA81FB816B2F712F92
:10392000CF010E94124818160CF0DCC0A985BA8598
:103930009A96CD92DD92ED92FC929D97A985BA85DB
:1039400011964D925D926D927C921497FD011586B1
:1039500016861786108A20E030E040E751E4BC81EB
:103960006B2F722D832D902F0E948E468B013C0170
:10397000CB01D3016C017D0120E030E0A901B80149
:10398000C3010E94874687FDA7C0B801C3010E94FA
:10399000F646CB01AA2797FDA095BA2FE985FA85AF
:1039A000848F958FA68FB78F128A118A868A978AFD
:1039B000A08EB18E81E090E0938F828F83E0808330
:1039C00020E030E0C9012C960FB6F894DEBF0FBEA0
:1039D000CDBFDF91CF911F910F91FF90EF90DF90BE
:1039E000CF90BF90AF909F908F907F906F905F909F
:1039F0004F903F902F90089520E030E0E3CF23ECEC
:103A000038EB42E35EEBB981EA81FB816B2F712FCA
:103A1000CF010E94124818160CF05CCF023049F119
:103A2000033011F182E0A985BA858C93FD01818272
:103A30009282A382B482128A118A8DE491E0A0E07E
:103A4000B0E0848F958FA68FB78F20E030E0BACF9B
:103A50008230910509F0EDCE2FEF3FEFB3CF8330E9
:103A6000910509F0E6CEF8CFE3E02E163104D1F649
:103A7000F3CFB2E02B163104A9F6EECFD701C60181
:103A8000B0588D839E83AF83B8879C01AD01B98107
:103A90000A813B806B2F712F802F932D0E948E46C1
:103AA00020E030E04AE754E40E9416486C83272E59
:103AB000382E092F20E030E0A901B981EA81FB818D
:103AC0006B2F712FCF010E94124818167CF4CD8005
:103AD000DE80EF80F8842ACFC701B60190580E949B
:103AE000F64657CFF7FAF094F7F8F094E985FA859F
:103AF000C2A6D3A6E4A6F5A621CF2F923F924F925D
:103B00005F926F927F928F929F92AF92BF92CF926D
:103B1000DF92EF92FF920F931F93CF93DF93CDB776
:103B2000DEB72B970FB6F894DEBF0FBECDBF9B83D9
:103B30008A834A015B01680179018091AB0D898319
:103B4000823009F444C1B981B33009F448C18A8193
:103B50009B81019723E4289F1001299F300C112499
:103B600088EC9EE0280E391ED1019E964D905D9006
:103B70006D907C90D197A3019201C501B4010E9480
:103B800022468B018B879A872BED3FE049E450EC6E
:103B9000712F0E94874618160CF0D4C02BED3FE021
:103BA00049E450E4B02FA12FFB85EA8517C02BED27
:103BB0003FE049EC50E4FB85EA85602F712F8F2FA1
:103BC0009E2F0E9422468B018B879A872BED3FE028
:103BD00049E450E4B62FA12FF82FE92F6B2F7A2F4D
:103BE0008F2F9E2F0E94124818160CF320E030E011
:103BF000A901FB85EA85602F712F8F2F9E2F0E94D0
:103C0000874687FDB8C023EC38EB42E35EE3FB85D3
:103C1000EA85602F712F8F2F9E2F0E94874687FD88
:103C2000B9C020E030E0A901C701B6010E94874673
:103C300087FDDBC0A7019601FB85EA85602F712F08
:103C40008F2F9E2F0E948E4620E030E04AE754E4FA
:103C50000E94164869837A838C839D8320E030E03C
:103C6000A901FB85EA85602F712F8F2F9E2F0E945F
:103C7000124818160CF0F2C0D1019A96CD92DD923E
:103C8000ED92FC929D97D10111964D925D926D92AD
:103C90007C921497F101158616861786108A20E00B
:103CA00030E040E751E4B981AA81EC811D816B2F9E
:103CB0007A2F8E2F912F0E948E468B013C01CB01D3
:103CC000D3016C017D0120E030E0A901B801C301FE
:103CD0000E94874687FDBCC0B801C3010E94F6461A
:103CE000CB01AA2797FDA095BA2FF101848F958F5C
:103CF000A68FB78F128A118A868A978AA08EB18E74
:103D000081E090E0938F828F83E0808320E030E039
:103D1000C9012B960FB6F894DEBF0FBECDBFDF9161
:103D2000CF911F910F91FF90EF90DF90CF90BF90B8
:103D3000AF909F908F907F906F905F904F903F904B
:103D40002F9008952BED3FE049EC50E4FB85EA8588
:103D5000602F712F8F2F9E2F0E9423468B018B8700
:103D60009A872BED3FE049E450EC712F0E94874683
:103D7000181644F73BCF23EC38EB42E35EEBFB85B0
:103D8000EA85602F712F8F2F9E2F0E9412481816E0
:103D90000CF047CFB981B23009F454C0F981F33047
:103DA00009F466C082E0D1018C93F1018182928294
:103DB000A382B482128A118A8DE491E0A0E0B0E07F
:103DC000848F958FA68FB78F20E030E0A1CFAA8196
:103DD000BB81129709F0BBCE2FEF3FEF99CFEA815D
:103DE000FB81339709F0B3CEF7CFD701C601B058A6
:103DF0008E839F83A887B9879C01AD01FB85EA85E7
:103E0000602F712F8F2F9E2F0E948E4620E030E072
:103E10004AE754E40E94164869837A838C839D8321
:103E200020E030E0A901FB85EA85602F712F8F2FFC
:103E30009E2F0E9412481816ACF4CE80DF80E884D2
:103E4000F9841ACFEA81FB81329709F0ABCFC4CF56
:103E5000C701B60190580E94F64642CFF7FAF09497
:103E6000F7F8F094F101C2A6D3A6E4A6F5A60BCF0D
:103E70008A819B81039709F095CFAECF2091AB0D3E
:103E8000223049F1233091F1019723E4289FF0017A
:103E9000299FF00D1124E853F14F2081223001F1C8
:103EA000233021F0213011F080E0089523E4289F91
:103EB000F001299FF00D1124E853F14F20E030E08C
:103EC000A90162A573A584A595A50E94124818169C
:103ED0008CF481E0089582309105B1F68FEF08955A
:103EE00081899289892BA9F383E008958330910514
:103EF00059F6F4CF82E008956235A9F0633581F078
:103F0000663459F0A098A19820E1829FC001112445
:103F100090938900809388000895A09AA198F4CF87
:103F2000A09AA19AF1CFA098A19AEECF6235A9F0FC
:103F3000633581F0663459F0A298A59820E1829FFC
:103F4000C001112490938B0080938A000895A29A57
:103F5000A598F4CFA29AA59AF1CFA298A59AEECFF0
:103F60000F931F938A019B0177FD28C0F8010F3F33
:103F7000110519F010F0EFEFF0E08130910591F0AC
:103F800074F0049764F477FD33C0452B462B472B20
:103F9000E9F066E48E2F1F910F910C94961F1F91EC
:103FA0000F91089577FD1EC0452B462B472BA1F09E
:103FB00066E48E2F1F910F910C947C1F0027112710
:103FC0009801041B150B260B370BD0CF6EE48E2FF8
:103FD0001F910F910C94961F6EE48E2F1F910F91DD
:103FE0000C947C1F62E58E2F1F910F910C947C1F07
:103FF00062E58E2F1F910F910C94961FCF93DF9344
:104000009C012150310943E4429FE001439FD00DC0
:104010001124C853D14F4D89413061F14230E1F054
:10402000442309F471C0433011F54881423009F44A
:1040300063C0433009F470C043E4429FF001439FE2
:10404000F00D1124E853F14F46A557A560A971A9B9
:10405000DF91CF910C94501A20E030E0A9016EA1BD
:104060007FA188A599A50E94874681112AC0DF916A
:10407000CF91089520E030E0A9016EA17FA188A52D
:1040800099A50E948746882391F383E088838FEF68
:104090009FEFDC018C8F9D8FAE8FBF8F8EA59FA56C
:1040A000A8A9B9A989839A83AB83BC838EA19FA158
:1040B000A8A5B9A58AA79BA7ACA7BDA7DF91CF915B
:1040C000089583E088838FEF9FEFDC018C8F9D8FB5
:1040D000AE8FBF8F8EA59FA5A8A9B9A989839A8302
:1040E000AB83BC838EA19FA1A8A5B9A5B0588AA710
:1040F0009BA7ACA7BDA7BBCF49895A89452B09F41B
:104100009BCF1C8A1B8AB3CF188240E050E0BA01D3
:10411000DF91CF910C94B01F49815A816B817C81D2
:10412000DF91CF910C94501A2F923F924F925F9251
:104130006F927F928F929F92AF92BF92CF92DF92B7
:10414000EF92FF920F931F93CF93DF93CDB7DEB71C
:1041500067970FB6F894DEBF0FBECDBF88EC9EE028
:104160009C838B831DED212E1EE0312E04E6802ED4
:1041700002E0902EAAEEBEE0BE87AD87E0E0FFE051
:10418000FC87EB8781E09FE0988B8F87AA24A3941C
:10419000B12CA2E0B0E0BE83AD833A822982150142
:1041A00098868F820E940E098091AB0D823029F48F
:1041B000F2E02F16310409F4F4C04D805E8082E0F5
:1041C000481A5108C1010E9447158B015C01982FC4
:1041D000402F512F692F7B2DA981BA8159964D937C
:1041E0005D936D937C935C976F8078845A86498643
:1041F0002D01AA8AB98AD301CD90DD90ED90FC9073
:10420000A7019601FA89E989602F712F8F2F9E2FC0
:104210000E9422464B015C012BED3FE049E450EC4B
:10422000792D9B2D0E94874618160CF451C02BED5A
:104230003FE049EC50E4682D792D8A2D9B2D0E949A
:1042400023464B015C012BED3FE049E450EC792D16
:104250009B2D0E948746181654F723EC38EB42E357
:104260005EE3682D792D8A2D9B2D0E941248181629
:10427000E4F520916202309163022B303105ACF5F8
:10428000C1010E9447158B018A8B998B982F8989D0
:10429000402F512F692F782FF201418F528F638F5A
:1042A000748F20916202309163022F5F3F4F3093F1
:1042B0006302209362029FCF2BED3FE049EC50E474
:1042C000682D792D8A2D9B2D0E9422464B015C0181
:1042D0002BED3FE049E450E4682D792D8A2D9B2D8C
:1042E0000E941248181644F3B8CF49845A84AA8809
:1042F000B988109263021092620220E030E040E23E
:1043000050EC602F712F8A2D9B2D0E94874687FFCE
:1043100074C020E030E040E250E4C701B6010E94E2
:10432000124818160CF069C0E981FA81858D968DC6
:104330000196968F858F018D128DA38CB48C402FA2
:10434000512F6A2D7B2DEF81F88540835183628345
:104350007383AB81BC818C91823009F47FC108F0FA
:104360007AC0811125C2EB81FC81448D558D668D0B
:10437000778D411551056105710509F415C464F087
:104380004150510961097109AB81BC815C964D9323
:104390005D936D937C935F978D819E81049709F463
:1043A00044C1ED81FE813196FE83ED838B819C813A
:1043B0008D5B9F4F9C838B83A981BA81AD5BBF4F7F
:1043C000BA83A983BFEF2B1A3B0AEF81F885349695
:1043D000F887EF838D859E858D5B9F4F9E878D87A8
:1043E000AB85BC85AD5BBF4FBC87AB87EF85F889DC
:1043F000ED5BFF4FF88BEF87D5CE20E030E040E259
:1044000050E4602F712F8A2D9B2D0E9412481816A0
:104410000CF095CF20E030E040E250ECC701B6014F
:104420000E94874687FF8BCFA981BA815D968D91C7
:104430009C915E9701975E969C938E935D9759969B
:104440000C9159975A961C915A975B96AC905B9732
:104450005C96BC9074CF833009F4EAC1843009F0D3
:104460009BCF60914D0270914E0280914F029091CE
:1044700050020E94274720E030E04AE754E40E94BF
:104480008E466987798B8A8B9B8BEF85F889608153
:10449000772767FD7095872F972F0E94294720E087
:1044A00030E040E05CE30E94164820E030E040EA63
:1044B00050E40E94164820E030E040E05FE30E94B4
:1044C00016483B01982EB92EF3E4F49D8001F59D2A
:1044D000100D1124095F104FEE24E394F12C1F8B73
:1044E0000E8B3D8A2C8A8701EE88FF88B8018827C9
:1044F00077FD8095982F0E9429472BED3FE049ECEE
:1045000050E40E941648B985A989EA89DB882B2FD7
:104510003A2F4E2F5D2D0E94164820E030E040E2F9
:1045200051E40E948E46862EA72E6C019D2D0E947E
:1045300079481B012C01F70135976081772767FDCA
:104540007095872F972F0E94294720E030E040E0A8
:104550005CE30E94164820E030E040EA50E40E940C
:104560001648A20191010E941648262D372D492D8B
:104570005B2D0E9423462B013C01C70101969F8BB6
:104580008E8B682D7A2D8C2D9D2D0E948B464B0194
:104590005C01D7016C91772767FD7095872F972F66
:1045A0000E94294720E030E040E05CE30E9416488A
:1045B00020E030E040EA50E40E941648A501940152
:1045C0000E941648242D352D462D572D0E94234636
:1045D0003B01982EB92E0F5F1F4F0530110509F0D2
:1045E00083CF2C883D88982F462D572D692F7B2D02
:1045F000EB81FC814183528363837483128A118A25
:104600008FEF9FEFDC01848F958FA68FB78FA981E5
:10461000BA8159960C9159975A961C915A975B9664
:10462000AC905B975C96BC9038C067960FB6F894D8
:10463000DEBF0FBECDBFDF91CF911F910F91FF90D5
:10464000EF90DF90CF90BF90AF909F908F907F9032
:104650006F905F904F903F902F900895EB81FC8179
:10466000448D558D668D778D411551056105710518
:1046700009F4CAC094F04150510961097109AB8134
:10468000BC815C964D935D936D937C935F97E981BC
:10469000FA81018D128DA38CB48C202F312F4A2DDD
:1046A0005B2DAB81BC8111966D917D918D919C911B
:1046B00014970E9422468B017C012B013C012BEDBB
:1046C0003FE049E450EC0E94874618160CF081C088
:1046D0002BED3FE049E450E4B801C7010E941248C5
:1046E0001816D4F42BED3FE049EC50E4C301B201BD
:1046F0000E942246B62FA72F462F572F682F792FBB
:104700002A013B012BED3FE049E450E46B2F7A2F67
:104710000E941248181634F320E030E0A901C301CA
:10472000B2010E94874687FDE8C123EC38EB42EBDB
:104730005DE3C301B2010E94874687FDE9C1AB81F9
:10474000BC8151968D919C915297892B09F4C2C0DE
:1047500020E030E0A901C301B2010E94874687FD35
:104760001FC2C301B20120915C0230915D024091F1
:104770005E0250915F020E94124818160CF0AAC007
:10478000EB85FC8520812F5F208330E080915A02E9
:1047900090915B028217930708F09FC0AB81BC81A8
:1047A0001C9240E050E0BA01C1010E94B01FF4CD5C
:1047B000813009F0F1CDE981FA8180818111C9C18F
:1047C000AB81BC811C928D819E81049709F0E9CD5B
:1047D0002CCF2BED3FE049EC50E4C301B2010E9425
:1047E0002346B62FA72F462F572F682F792F2A0140
:1047F0003B012BED3FE049E450EC6B2F7A2F0E94F8
:104800008746181634F788CF81899289892B09F455
:1048100093C18FEF9FEFDC01EB81FC81848F958F3B
:10482000A68FB78F8D819E81049709F0BACDFDCEFA
:10483000AB81BC815C964D915D916D917C915F9750
:10484000411551056105710509F08EC0E1E0F0E008
:104850005296FC93EE9351971D961D921D921D92B8
:104860001C925097E981FA8114861386F2E0FC933A
:104870005A968D919C915B97892B59F0FD01868901
:104880009789A08DB18D81839283A383B483138E86
:10489000128EEFEFFFEFA981BA811C96FC93EE9385
:1048A0001B97AB81BC8153968D919C915497892B1A
:1048B00009F4AFCF82E490E0A0E0B0E0EB81FC81AE
:1048C000848F958FA68FB78F8D819E81049709F075
:1048D00068CDABCEEB85FC851082AB81BC81159693
:1048E0002D913D914D915C911897C301B2010E94A9
:1048F00016486B017C01EB81FC8125853685478557
:10490000508961857285838594850E9416489B0134
:10491000AC01C701B6010E9423460E94F646AB01D6
:10492000BC01C1010E94B01F2FE832EC45E75CE3F7
:10493000C301B2010E9416489B01AC01AB81BC814E
:104940001D966D917D918D919C9150970E9423466B
:10495000EB81FC81658776878787908B8D819E812F
:10496000049709F01ECD61CE14161506160617061B
:1049700064F44150510961097109AB81BC815C96B5
:104980004D935D936D937C935F972FE832EC45E7F1
:104990005CE3E981FA81658976898789908D0E9437
:1049A0001648AB81BC8111962D913D914D915C9142
:1049B00014970E942346162F072FD8014B2F5A2FEA
:1049C000682F792FEB81FC81418352836383748349
:1049D000A981BA8159962D913D914D915C915C9739
:1049E000F8016F2F7E2F0E9422468B017C012B0144
:1049F0003C012BED3FE049E450EC0E94874618163D
:104A00000CF060C02BED3FE049E450E4B801C70171
:104A10000E9412481816D4F42BED3FE049EC50E404
:104A2000C301B2010E942246B62FA72F462F572F4F
:104A3000682F792F2A013B012BED3FE049E450E438
:104A40006B2F7A2F0E941248181634F320E030E0C2
:104A5000A901C301B2010E9487467301620187FD6B
:104A60009AC060915C0270915D0280915E029091AB
:104A70005F029B01AC010E9423469B01AC01C70170
:104A8000B6010E941248EB85FC8518160CF081C017
:104A900020812F5F208330E080915A0290915B0249
:104AA0008217930708F078CCAB81BC811C925B968F
:104AB0001C921E925A9740E050E0BA01C1010E9438
:104AC000B01F6ACC2BED3FE049EC50E4C301B201CA
:104AD0000E942346B62FA72F462F572F682F792FD6
:104AE0002A013B012BED3FE049E450EC6B2F7A2F7C
:104AF0000E948746181634F7A9CF23EC38EB42EB17
:104B00005DEBC301B2010E94124818160CF017CEDB
:104B100081E090E0EB81FC81928B818B8389948989
:104B2000892B51F48FEF9FEFDC01EB81FC81848FA7
:104B3000958FA68FB78F03CE108240E050E0BA0168
:104B4000C1010E94B01F8D819E81049709F029CC7C
:104B50006CCD8130A1F0AD85BE854C9150E0519572
:104B600041955109662757FD6095762FC1010E9436
:104B7000B01F8D819E81049709F013CC56CDED8531
:104B8000FE85408150E060E070E0C1010E94B01FEE
:104B900003CC1082A2CEF7FAF094F7F8F09461CF2C
:104BA000C301B2019058DFCDA981BA811B968C91C7
:104BB0001B978C93C1010E94FE1F8FEF9FEFDC01BA
:104BC000EB81FC81848F958FA68FB78F8D819E811D
:104BD000049709F0E6CB29CD1092AD021092C80ED1
:104BE00010920B0F10924E0F6EE480E00E947C1F1B
:104BF0006EE480E00C94961F7F928F929F92AF920A
:104C0000BF92CF92DF92EF92FF920F931F93CF93B9
:104C1000DF9300D000D0CDB7DEB780E190E00E94F6
:104C20001C14813A09F444C09CEFC92E9EE0D92E91
:104C3000E12CF12C01E010E0C8010E944715DC01D5
:104C4000CB01B05889839A83AB83BC83F601808300
:104C50009183A283B38344E050E0BE016F5F7F4F36
:104C6000C7010E942D140F5F1F4FF3E4CF0ED11C1C
:104C700084E0E80EF11C04301105F1F661EA80E1F0
:104C800090E00E94EE1321E030E0C9010F900F90F8
:104C90000F900F90DF91CF911F910F91FF90EF90A8
:104CA000DF90CF90BF90AF909F908F907F900895AE
:104CB0002CEFA22E2EE0B22E812C912C00E010E0E1
:104CC00033E4732E709EB001719E700D11246450F8
:104CD000714F44E050E0C4010E945214F501C080BD
:104CE000D180E280F38020E030E040E450E4C7016E
:104CF000B6010E94874687FF0AC020E030E040E40A
:104D000050ECC701B6010E94124818162CF0F501AC
:104D100010821182128213820F5F1F4FF4E08F0EF8
:104D2000911C83E4A80EB11C0430110559F620E053
:104D300030E0ABCF1092FC0E1092FD0E1092FE0EE2
:104D40001092FF0E10923F0F1092400F1092410FE1
:104D50001092420F1092820F1092830F1092840FC4
:104D60001092850F60EA80E190E00E94EE130E94AD
:104D7000FC2580E090E008956091AB0DE8ECFEE04A
:104D800081E090E020E030E0623099F06330A9F0FB
:104D90004081442321F041895289452BA9F0833079
:104DA000910571F02F5F3F4F0196ED5BFF4F623031
:104DB00069F72130310561F7F5CF2230310541F730
:104DC00020E030E0C901089521E030E0FBCF1092EF
:104DD0008502109284021092830210928202109235
:104DE00081021092800208950F931F93CF93DF9357
:104DF00083E090E09093CD008093CC008091C80038
:104E00008D7F8093C80028E92093C90080E190E05D
:104E10009093C5008093C4008091C0008D7F8093E3
:104E2000C0002093C10080E890E00E94314D809343
:104E300023109093241080E890E00E94314D8C0163
:104E40009093261080932510C0E0D0E004C000911C
:104E500025101091261084E090E00E94314DF80159
:104E6000EC0FFD1F808391832296C038D10579F71E
:104E700010922210DF91CF911F910F9108951F92F0
:104E80000F920FB60F9211240BB60F921BBE2F93E9
:104E90003F934F938F939F93EF93FF934091CE0057
:104EA0008091800290918102209182023091830250
:104EB000820F931F8F73907897FD1BC0FC01EE51FA
:104EC000F04F4083809182029091830201969093EB
:104ED000830280938202FF91EF919F918F914F9176
:104EE0003F912F910F900BBE0F900FBE0F901F9010
:104EF00018950197806C9F6F0196E0CF1F920F92DB
:104F00000FB60F9211240BB60F921BBE2F933F9337
:104F10004F938F939F93EF93FF934091C60080919F
:104F20008002909181022091820230918302820F4F
:104F3000931F8F73907897FD1BC0FC01EE51F04FCB
:104F40004083809182029091830201969093830224
:104F500080938202FF91EF919F918F914F913F91AA
:104F60002F910F900BBE0F900FBE0F901F901895B2
:104F70000197806C9F6F0196E0CF161617066CF4B0
:104F8000FC01680F791F91918091C00085FFFCCFD3
:104F90009093C600E617F707B1F70895CF93DF9314
:104FA000EB01FC01308130935906362F3A5F309384
:104FB0005A0650935B0640935C0620935D062EE5EF
:104FC00036E0AB01BC01C9010E94B94FC75AD94FA5
:104FD00081E18D8389E596E0DF91CF910895CF93AC
:104FE000DF93EB0120E120935907262F2D5F2093BB
:104FF0005A072BE537E0AB01BC01C9010E94B94F4C
:10500000C75AD84F81E18A8389E597E0DF91CF9134
:1050100008954F925F926F927F928F929F92AF927C
:10502000BF92CF92DF92EF92FF920F931F93CF9395
:10503000DF933C01680F791FFB0131978081D30119
:105040000C9181110CC0023431F080F5023338F03C
:10505000063308F08EC0F3018281833030F410E013
:10506000F801F097EF34F105E8F08FEF80935908DD
:1050700083E080935A0881E180935B08C9E5D8E01A
:10508000CE01DF91CF911F910F91FF90EF90DF90B4
:10509000CF90BF90AF909F908F907F906F905F90D8
:1050A0004F900895E057FF4F0C942B4D802F845460
:1050B0008330A8F6D0CFF301C380D480E580F6809A
:1050C00022E93AE046E850E4C701B6010E941248DE
:1050D00018160CF447C722E93AE046E850ECC7013D
:1050E000B6010E94874687FF08C0B2E9CB2EBAE01E
:1050F000DB2EB6E8EB2EB0ECFB2ED3011296EC9132
:10510000129723E42E9FF0011124E853F14FC6A219
:10511000D7A2E0A6F1A612968C9190E0289FF0010C
:10512000299FF00D1124E853F14F2589213039F0E2
:10513000223009F020C7F7FAF094F7F8F094C2A6ED
:10514000D3A6E4A6F5A660E070E080E090E0DF91F1
:10515000CF911F910F91FF90EF90DF90CF90BF9074
:10516000AF909F908F907F906F905F904F900C9436
:10517000EF270E3309F073CF6ECF81E28093590889
:1051800089E080935A088091C20E9091C30E90934B
:105190005B088091C20E9091C30E80935C08809151
:1051A000480290914902A0914A02B0914B0280932B
:1051B0005D0890935E08A0935F08B093600810921A
:1051C0006108C9E5D8E05CCFD3011296EC91B3E455
:1051D000EB9FF0011124E853F14F86A597A5A0A9F4
:1051E000B1A98093590890935A08A0935B08B09393
:1051F0005C0864E070E089E598E0A9CFD3011296DD
:10520000EC91B3E4EB9FF0011124E853F14FC6A4F5
:10521000D7A4E0A8F1A862A973A9882777FD809593
:10522000982F0E9429472BED3FE049EC50E40E9463
:1052300016489B01AC01C701B6010E94234660934A
:10524000590870935A0880935B0890935C0864E057
:1052500070E0D1CFD30113964D915D916D917C910A
:10526000169712968C9190E001960E94501A60E079
:1052700070E080E090E06BCF40914D0250914E0283
:1052800060914F02709150024093590850935A0810
:1052900060935B0870935C08D3011296EC91B3E4C1
:1052A000EB9FF0011124E853F14F86A597A5A0A923
:1052B000B1A980935D0890935E08A0935F08B093B6
:1052C000600868E070E097CFF301828190E001967A
:1052D0000E943E1F8093590861E070E08CCF82E904
:1052E0009AE0A6E8B0E48093590890935A08A093F6
:1052F0005B08B0935C0864E070E07DCFD301129648
:105300008C910E9400116093590870935A08809301
:105310005B0890935C0864E070E06DCF80915C0264
:1053200090915D02A0915E02B0915F028093590856
:1053300090935A08A0935B08B0935C0864E070E017
:105340005ACFF30182819381A481B58180935C025D
:1053500090935D02A0935E02B0935F0260E070E004
:1053600080E090E0F4CE80915A0290915B022FE0B1
:10537000289FB001299F700D112480E090E00E94C9
:10538000274720E030E04AE754E40E948E466093CD
:10539000590870935A0880935B0890935C0864E006
:1053A00070E029CFD30112966D917D918D919C91E2
:1053B000159720E030E04AE754E40E94164820E0C8
:1053C00030E040E751E40E948E460E94FB46709315
:1053D0005B0260935A0260E070E080E090E0B7CE3C
:1053E0000E94EC2560E070E080E090E0B0CE80E5C7
:1053F0008093590861E070E0FECE81E00E94F20FD8
:1054000060E070E080E090E0A2CEF30182818093C2
:10541000470260E070E080E090E099CE1092FB0ED1
:105420001092FA0E10923E0F10923D0F1092810FC3
:105430001092800F60E070E080E090E088CEF30191
:10544000428153816481758181E090E00E94501A0D
:10545000D30116964D915D916D917C91199782E0E3
:1054600090E00E94501AF30142855385648575854A
:1054700083E090E00E94501A60E070E080E090E0ED
:1054800066CE8091F60E9091F70EA091F80EB09135
:10549000F90E8093590890935A08A0935B08B09333
:1054A0005C088091390F90913A0FA0913B0FB09119
:1054B0003C0F80935D0890935E08A0935F08B093C3
:1054C000600880917C0F90917D0FA0917E0FB0912C
:1054D0007F0F8093610890936208A0936308B09354
:1054E000640860E170E087CE06EF1EE0C0E0D0E027
:1054F000D801CD90DD90ED90FC90139779E5A72E23
:1055000078E0B72EAC0EBD1E14966D917C91159768
:10551000882777FD8095982F0E9429472BED3FE043
:1055200049EC50E40E9416489B01AC01C701B6014A
:105530000E942346F50160837183828393830D5B10
:105540001F4F2496C031D10599F660E170E053CE2B
:1055500080914D0290914E02A0914F02B091500265
:105560008093590890935A08A0935B08B0935C0805
:105570008091F60E9091F70EA091F80EB091F90E71
:1055800080935D0890935E08A0935F08B0936008D5
:105590008091390F90913A0FA0913B0FB0913C0F41
:1055A0008093610890936208A0936308B0936408A5
:1055B00080917C0F90917D0FA0917E0FB0917F0F15
:1055C0008093650890936608A0936708B093680875
:1055D00064E170E010CE80914D0290914E02A09156
:1055E0004F02B09150028093590890935A08A093AB
:1055F0005B08B0935C0806EF1EE0C4E0D0E0D80181
:10560000CD90DD90ED90FC90139769E5A62E68E0B3
:10561000B62EAC0EBD1E14966D917C911597882701
:1056200077FD8095982F0E9429472BED3FE049ECAC
:1056300050E40E9416489B01AC01C701B6010E94CC
:105640002346F50160837183828393830D5B1F4F33
:105650002496C031D10599F664E170E0CCCDD30138
:105660001296EC918E2F90E0B3E4EB9FF0011124A1
:10567000E853F14F06A117A120A531A5F3014381FD
:1056800054816581768101960E947D1A60E070E008
:1056900080E090E05CCDD3011296EC918E2F90E0EB
:1056A000B3E4EB9FF0011124E853F14F06A117A1D9
:1056B00020A531A5F301438154816581768101964E
:1056C0000E94F21B60E070E080E090E040CDD301EA
:1056D0001296EC918E2F90E0B3E4EB9FF001112431
:1056E000E853F14F06A117A120A531A5F30143818D
:1056F00054816581768101960E947D1D60E070E095
:1057000080E090E024CDD3011296EC91B3E4EB9FBE
:10571000F0011124E853F14F86A197A1A0A5B1A5EE
:105720008093590890935A08A0935B08B0935C0843
:1057300064E070E060CDE2E06E0E711CAEEEEA2E29
:10574000AEE0FA2EC0E0D0E02196D7010D911D9178
:105750002D913C91F30141915191619171913F01E2
:10576000CE010E947D1AF3E4EF0EF11CC330D10587
:1057700059F7E9CC22E0620E711CFEEEEF2EFEE03E
:10578000FF2EC0E0D0E02196D7010D911D912D9103
:105790003C91F30141915191619171913F01CE0191
:1057A0000E94F21BF3E4EF0EF11CC330D10559F750
:1057B000CACC22E0620E711CEEEEEE2EEEE0FE2E62
:1057C000C0E0D0E02196D7010D911D912D913C9123
:1057D000F30141915191619171913F01CE010E947C
:1057E0007D1DF3E4EF0EF11CC330D10559F7ABCCAE
:1057F0002301E2E04E0E511CCEEEDEE0612C712C56
:10580000FFEF6F1A7F0AC880D980EA80FB80288565
:1058100039854A855B85D2016D917D918D919D91F0
:105820002D010E9423464B015C016C857D858827F4
:1058300077FD8095982F0E94294720E030E044EBC7
:1058400053E40E9416489B01AC01C501B4010E94BB
:105850002346AB01BC0197018601C3010E94F21BE4
:10586000CD5BDF4FB3E06B16710451F66CCCB30126
:105870006C5F7F4FF301438182810E948C440E94C0
:10588000F644892B09F0F1CB5ECCD30113964C91F1
:10589000139769E578E012968C910E94A9440E94C2
:1058A000F644892B09F0E1CBF301638170E0A3CCCE
:1058B000D30113964C91F301E40FF11DB3016C5F1A
:1058C0007F4F048129E538E0F30182810E94C844BA
:1058D0000E94F644892B09F0C8CBD30113968C9112
:1058E000F301E80FF11D648170E085CC413009F4CB
:1058F00064C344E050E068E472E0C30102960E9491
:10590000AC4F009709F439CCC0E0D0E0B9CBD3015B
:1059100012969C91129780E09093520280935102CC
:10592000809151029091520213962C91822B909368
:1059300052028093510240E06FEF80E00E94930E8C
:1059400060E070E080E090E002CCD30112968C9190
:105950001297982F9B50903158F08FEF80935908F1
:1059600083E080935A0881E180935B0812968C91C2
:105970000E94AC0281E00E94A4028FEF8093470155
:10598000809147018093590861E070E034CC109217
:105990005202109251024FEF60E080E00E94930E9D
:1059A00060E070E080E090E0D2CBF3014781668157
:1059B00085810E94930E60E070E080E090E0C7CBAC
:1059C00083010C5F1F4FC1E0D0E0D30112968C9190
:1059D00090E09E012150310902C0959587952A9546
:1059E000E2F780FDA5C221960E5F1F4FC430D1059E
:1059F00061F7A9CB0E9414116093590870935A085B
:105A000080935B0890935C0864E070E0F4CBD30172
:105A100012969C91129780E013962C91822B0E94F3
:105A2000420D60E070E080E090E091CB0E94240F96
:105A30008111BFC28091A50D9091A60D90935A0837
:105A4000809359088091AC0E9091AD0E90935C08B4
:105A500080935B088091C50E9091C60E90935E086E
:105A600080935D0866E070E0C6CB8091AB0D8093BB
:105A7000590861E070E0BFCB8091A80D9091A90D0D
:105A8000A091AA0D8093590890935A08A0935B089F
:105A900063E070E0B0CBF301928180E02381822B40
:105AA000009709F055C21092841E1092831E109226
:105AB000861E1092851E10929B0210929A024FEF42
:105AC00060E080E00E94930E3ECBF301828190E083
:105AD0000E94BA4060E070E080E090E038CBD301F3
