:10000000A7C00000C1C00000BFC00000BDC000000C
:10001000BBC00000B9C00000B7C00000B5C0000000
:10002000B3C00000B1C00000BFC7000082C700001D
:10003000ABC00000A9C00000A7C00000A5C0000020
:10004000A3C00000A1C000009FC000009DC0000030
:100050009BC0000099C0000097C0000095C0000040
:1000600093C00000CEC300008FC000008DC0000010
:100070008BC0000089C0000087C0000085C0000060
:1000800083C0000081C000007FC000007DC0000070
:100090007BC0000079C0000077C0000075C0000080
:1000A00073C0000071C000006FC000001201100199
:1000B00002000008EB034B200100010200010902CD
:1000C0003E00020100C0FA09040000010202010022
:1000D000052400100104240206052406000107057A
:1000E00082030800FF09040100020A00000007055E
:1000F000040210000507058302100005040309042B
:100100001A034200610072006F0062006F002C0051
:10011000200049006E0063002E00000032034D00F5
:100120006F0062006F007400200055005300420011
:100130002D00530065007200690061006C00200012
:1001400041006400610070007400650072000000EE
:1001500011241FBECFEFDAE0DEBFCDBF12E0A0E07A
:10016000B1E0E8E2F8E102C005900D92A832B107D3
:10017000D9F713E0A8E2B2E001C01D92A235B107A1
:10018000E1F7C7D30C94120C3BCFA8E1B0E0EBEC45
:10019000F0E00C94E70B69837A838B839C832D8337
:1001A0003E834F83588789E0E82EF12CEC0EFD1E2C
:1001B000CE010196B701DED18E010F5E1F4FCE0139
:1001C0000596B801D7D18985823038F08989823087
:1001D00020F0C701B80146D201C08FEF6896E6E073
:1001E0000C94030CA8E1B0E0E8EFF0E00C94E70B0E
:1001F00069837A838B839C832D833E834F835887C7
:1002000089E0E82EF12CEC0EFD1ECE010196B7011F
:10021000B1D18E010F5E1F4FCE010596B801AAD154
:100220008985823038F08989823020F0C701B80191
:1002300019D201C081E06896E6E00C94030CA8E0B6
:10024000B0E0E5E2F1E00C94E30B7B018C01611579
:1002500071058105910519F482E089835FC083E00F
:1002600089838EE1C82ED12CDC82CB82ED82FE8286
:100270000F831887C801B70159D0FC013197F7FFE8
:100280003BC0222733272E1B3F0B57016801022E4C
:1002900004C0D694C794B794A7940A94D2F740E0C8
:1002A00050E060E070E081E090E0A0E0B0E004C0E9
:1002B000880F991FAA1FBB1F2A95D2F70197A10982
:1002C000B1098E219F21A023B1230097A105B1057B
:1002D00021F041E050E060E070E04A295B296C29A0
:1002E0007D294D835E836F8378878EE190E08E1B3E
:1002F0009F0B9C838B8312C0309781F00E2E04C01D
:10030000EE0CFF1C001F111F0A94D2F7ED82FE8233
:100310000F831887CE1ADF0ADC82CB821A82CE01C5
:10032000019653D02896EAE00C94FF0BEF92FF92CF
:100330000F931F937B018C0180E0E81680E0F806A4
:1003400081E0080780E0180788F48FEFE816F104D1
:100350000105110531F028F088E090E0A0E0B0E060
:1003600017C080E090E0A0E0B0E012C080E0E816A6
:1003700080E0F80680E0080781E0180728F088E1AF
:1003800090E0A0E0B0E004C080E190E0A0E0B0E048
:1003900020E230E040E050E0281B390B4A0B5B0BB9
:1003A00004C016950795F794E7948A95D2F7F7015C
:1003B000E95DFE4F8081281B310941095109C901BE
:1003C0001F910F91FF90EF900895DF92EF92FF92AF
:1003D0000F931F93FC01E480F58006811781D18083
:1003E0008081823048F480E090E0A0E1B0E0E82A2B
:1003F000F92A0A2B1B2BA5C0843009F49FC0823038
:1004000021F4EE24FF24870105C0E114F104010565
:10041000110519F4E0E0F0E096C0628173819FEF6E
:10042000623879070CF05BC022E83FEF261B370BE0
:100430002A3131052CF020E030E040E050E02AC0C5
:10044000B801A701022E04C0769567955795479588
:100450000A94D2F781E090E0A0E0B0E004C0880FF9
:10046000991FAA1FBB1F2A95D2F70197A109B109AD
:100470008E219F21A023B1230097A105B10521F072
:1004800081E090E0A0E0B0E09A01AB01282B392B8D
:100490004A2B5B2BDA01C9018F779070A070B07086
:1004A00080349105A105B10539F427FF09C0205C0E
:1004B0003F4F4F4F5F4F04C0215C3F4F4F4F5F4F47
:1004C000E0E0F0E02030A0E03A07A0E04A07A0E436
:1004D0005A0710F0E1E0F0E079018A0127C06038A6
:1004E000710564F5FB01E158FF4FD801C7018F7713
:1004F0009070A070B07080349105A105B10539F4F9
:10050000E7FE0DC080E490E0A0E0B0E004C08FE31F
:1005100090E0A0E0B0E0E80EF91E0A1F1B1F17FFD5
:1005200005C016950795F794E794319687E01695E0
:100530000795F794E7948A95D1F705C0EE24FF2438
:100540008701EFEFF0E06E2F679566276795902F94
:100550009F77D794DD24D7948E2F8695492F462BED
:10056000582F5D29B701CA011F910F91FF90EF909D
:10057000DF900895FC01DB01408151812281622FCF
:100580006F7770E0221F2227221F9381892F880F07
:10059000822B282F30E0991F9927991F11969C9341
:1005A000119721153105A9F5411551056105710511
:1005B00011F482E037C082E89FEF13969C938E93EC
:1005C00012979A01AB0167E0220F331F441F551F9A
:1005D0006A95D1F783E08C930DC0220F331F441F1F
:1005E000551F12968D919C911397019713969C938A
:1005F0008E931297203080E0380780E0480780E42F
:10060000580758F314962D933D934D935C93179789
:1006100008952F3F310579F44115510561057105A4
:1006200019F484E08C93089564FF03C081E08C93F7
:1006300012C01C9210C02F57304013963C932E933B
:10064000129783E08C9387E0440F551F661F771F36
:100650008A95D1F7706414964D935D936D937C9356
:10066000179708951F93DC01FB019C91923008F4C9
:1006700047C08081823008F443C0943051F4119611
:100680001C91843099F58181682F70E0611B71099C
:100690003FC0843021F0923031F48230B9F1818151
:1006A000882389F12DC011961C9111978230F1F0A9
:1006B00081811817D9F412962D913C91139782815C
:1006C00093818217930794F028173907BCF014968A
:1006D0008D919D910D90BC91A02D248135814681F5
:1006E0005781281739074A075B0718F4112341F08F
:1006F0000AC082179307A407B50740F4112319F025
:1007000061E070E005C06FEF7FEF02C060E070E075
:10071000CB011F910895CF93DF93EC01E881F9811C
:100720006083888199810196998388832E813F8196
:100730008217930721F48C819D81998388832FB739
:10074000F8948A859B8501969B878A872FBFDF91C6
:10075000CF910895CF93DF93EC01EA81FB81319132
:10076000FB83EA838E819F81E817F90721F48C814E
:100770009D819B838A832FB7F8948A859B850197F7
:100780009B878A872FBF832FDF91CF910895909108
:100790007C008F71907E892B80937C0080917A0001
:1007A000806480937A0080917A0086FDFCCF20914E
:1007B000780030E040917900942F80E0282B392B8D
:1007C000C90108958CB18295869586958370809530
:1007D00081700895109285001092840080938100AA
:1007E0000895109281000895209184003091850031
:1007F00040E08217930708F441E0842F089508959C
:1008000008951F920F920FB60F9211242F933F93CA
:100810004F935F936F937F938F939F93AF93BF9308
:10082000EF93FF936091CE008EB3843019F48AEB7E
:1008300092E071DFFF91EF91BF91AF919F918F9106
:100840007F916F915F914F913F912F910F900FBECC
:100850000F901F9018951F93FC01818D813019F026
:10086000823019F404C010E303C010E001C010E2AC
:10087000808D823009F41860828D873031F08830A5
:1008800031F0863029F4126003C0146001C0166094
:100890001092C9001092C8001092CA0024893589AC
:1008A00046895789CA01B9019695879577956795C5
:1008B000605C7D4B804F9F4F5CD721503040309320
:1008C000CD002093CC001093CA0082E08093C80032
:1008D00088E98093C9001F91089582E091E09DC648
:1008E00082E091E073C684B7877F84BF88E10FB64A
:1008F000F89480936000109260000FBE81E090E059
:1009000020E80FB6F89420936100809361000FBE39
:10091000F3C2EF92FF921F93CF93DF9380E880930F
:10092000610091E09093610080EE85B984B92F9ABF
:1009300080E48EB988E18AB982E081BB80BB809176
:100940007C00806480937C0080917A00876880932B
:100950007A001092290290932B0290932C0211E0BE
:1009600080E015DFA0E0B0E0BC01CD0168DC23E948
:1009700034EF47E154E436DC88231CF42D982E9A9A
:10098000EFCF2D982E9880912902882339F41ADF11
:10099000882321F01093290285E01CDF8091290231
:1009A0008130F1F60FDF882309F440C084E89EE12E
:1009B0001BDF8823A9F215DF5C9A2F9810922B0277
:1009C00092DFEEE2F2E02FB7F8948AE392E09183AF
:1009D000808393838283958384838AEB92E09783D9
:1009E000868380E890E091878087138612862FBFE8
:1009F000EAEBF2E02FB7F89486EC92E091838083E3
:100A0000938382839583848386E493E097838683AC
:100A100080E890E091878087138612862FBF7894B4
:100A200010922D02F8ECEF2EF12C09C11092290240
:100A300097CF8FB7F89420913802309139028FBF49
:100A400080913602909137022817390709F43DC08A
:100A500082E091E010D5EC0197FD37C0209128028B
:100A6000E22FF0E0E35EFE4F808190E0C817D907E7
:100A700031F5293020F42F5F2093280222C08EB355
:100A8000843021F48AEB92E061E045DE1092280286
:100A900020E02D982E9A88EE93E0F7013197F1F738
:100AA0000197D9F72D9A2E9888EE93E0F7013197A8
:100AB000F1F70197D9F72F5F233059F702C0109251
:100AC00028028EE292E06C2F26DE8FB7F8942091F8
:100AD000C4023091C5028FBF2115310509F1809103
:100AE00003018F708093E9008091E80080FF18C0B7
:100AF000C9012031310510F08FE090E0182F0EC0B1
:100B0000E091BC02F091BD0282E091E0608139D5B4
:100B10001150882329F48AEB92E01CDE112381F71F
:100B20002FB7F89480913802909139022FBF892B0A
:100B300051F08EE292E00EDE982F8091C80085FF82
:100B4000FCCF9093CE0082E091E004D580D48091D8
:100B50002C028823E9F480912902882349F432DEAB
:100B6000882331F081E08093290285E033DE17C0CD
:100B700029DE882321F41092290233DE10C088E098
:100B80009DE332DE882359F081E080932B0207C079
:100B900019DE882321F410922C021092290280E0A1
:100BA000F6DDEC0180912A02882379F4BE0180E011
:100BB00090E045DB2FE63BEE41E254E413DB882373
:100BC0009CF481E080932A020FC0813069F4BE0159
:100BD00080E090E034DB2FE63BE543E354E4D5DAF4
:100BE000181614F410922A02BE0180E090E027DB70
:100BF0002CED36E745E154E4F5DA88231CF481E076
:100C000080932B0280912B02813011F42D9A16C013
:100C100080912902813041F480912C02882321F4B3
:100C200085B18F7985B90BC080912A02882319F488
:100C30002D9A2E9804C0813011F42D982E9A80910F
:100C40002B02882309F4F5CEFCD02F9A5C9880E023
:100C500090E0DF91CF911F91FF90EF900895DA011E
:100C6000923049F0933061F09130F9F4ECEAF0E021
:100C700022E130E01EC0EEEBF0E02EE330E019C0E0
:100C8000813049F0813018F0823079F408C0ECEFFF
:100C9000F0E0849107C0E0E0F1E0849103C0ECE172
:100CA000F1E08491282F30E004C0E0E0F0E020E0A3
:100CB00030E0ED93FC93C9010895382F282F2EC002
:100CC000822F8F708093E900231721F4762F942FC1
:100CD00050E006C07091EC009091ED005091F00052
:100CE00091FF1BC08091EB008E7F8093EB00809181
:100CF000ED008D7F8093ED008091EB00816080930B
:100D0000EB007093EC009093ED005093F000809115
:100D1000EE0087FD02C080E008952F5F273080F24B
:100D20003F703093E90081E008950F931F93CF93B4
:100D3000DF93062FEC0110E02AC09881992329F156
:100D40006B81E981FA812C81892F8F70873018F5AA
:100D5000223010F452E001C056E040E028E030E0DC
:100D600003C04F5F220F331F2E173F07D0F362954A
:100D7000660F660F607C991F9927991F692B429512
:100D8000407F452B9ADF882331F01F5F259610178F
:100D9000A0F281E001C080E0DF91CF911F910F911F
:100DA000089580914A0388238CF403C08EB388236E
:100DB000B1F08091E80082FFF9CF8091E8008B7755
:100DC0008093E80008958EB3882349F08091E8006D
:100DD00080FFF9CF8091E8008E778093E800089536
:100DE0004091E4005091E50024E68091EC0080FF02
:100DF00023C08091E80080FD1DC08EB3882311F4CC
:100E000082E00895853011F483E008958091EB002D
:100E100085FF02C081E008958091E4009091E50093
:100E20008417950711F3222311F484E008952150CB
:100E3000AC01DBCF80E008958091E80082FFDDCF38
:100E4000F9CF6AD071D0E0EEF0E0808181608083DC
:100E5000A8EDB0E08C918F778C9319BCE7EDF0E0B2
:100E600080818E7F80838C918F7E8C93109249033A
:100E70000895EF92FF920F931F934ED055D008ED37
:100E800010E0F80180818F77808380818068808383
:100E900080818F7D808319BC1EBA10924603109208
:100EA00048031092470380EEE82EF12CF701808171
:100EB0008B7F8083F80180818160808380E060E0A7
:100EC00042E0FBDEE1EEF0E080818E7F8083E2EEA7
:100ED000F0E0808181608083808188608083F70179
:100EE00080818E7F8083F8018081806180831F9163
:100EF0000F91FF90EF900895E8EDF0E080818F7EF4
:100F00008083E7EDF0E080818160808384E082BFB0
:100F100081E080934903ADCFE8EDF0E080818E7FE2
:100F200080831092E20008951092DA001092E1009E
:100F300008951F920F920FB60F9211241F932F93B3
:100F40003F934F935F936F937F938F939F93AF9351
:100F5000BF93EF93FF931091E9008091EC00109202
:100F6000E9008091F000877F8093F000789446D16B
:100F70001092E9008091F00088608093F0001F706B
:100F80001093E900FF91EF91BF91AF919F918F91E5
:100F90007F916F915F914F913F912F911F910F9092
:100FA0000FBE0F901F9018951F920F920FB60F92C1
:100FB00011242F933F934F935F936F937F938F935E
:100FC0009F93AF93BF93EF93FF938091E10082FFD4
:100FD0000AC08091E20082FF06C08091E1008B7F11
:100FE0008093E10033D28091DA0080FF1BC08091B2
:100FF000D80080FF17C08091DA008E7F8093DA00DE
:101000008091D90080FF0BC080E189BD82E189BD5C
:1010100009B400FEFDCF81E08EBBF1DB03C019BC3B
:101020001EBAEEDB8091E10080FF17C08091E200E4
:1010300080FF13C08091E2008E7F8093E200809158
:10104000E20080618093E2008091D800806280930A
:10105000D80019BC85E08EBBF9D18091E10084FFF6
:101060002CC08091E20084FF28C080E189BD82E12C
:1010700089BD09B400FEFDCF8091D8008F7D80939B
:10108000D8008091E1008F7E8093E1008091E200A2
:101090008F7E8093E2008091E20081608093E20085
:1010A00080914603882331F48091E30087FD02C0DC
:1010B00081E001C084E08EBBC9D18091E10083FF53
:1010C00026C08091E20083FF22C08091E100877FEB
:1010D0008093E10082E08EBB109246038091E10094
:1010E0008E7F8093E1008091E2008E7F8093E2000A
:1010F0008091E20080618093E20080E060E042E065
:10110000DCDD8091F00088608093F0009FD1FF913A
:10111000EF91BF91AF919F918F917F916F915F916F
:101120004F913F912F910F900FBE0F901F901895E8
:101130009C0140915003509151034617570718F4F2
:10114000F90190E045C06115710511F0AB01F8CFD0
:101150008091E8008E778093E80040E050E0F0CF87
:101160008EB3882309F446C0853009F445C08091C8
:10117000E80083FF02C081E008958091E80082FDCD
:1011800033C08091E80080FF23C08091F3009091EC
:10119000F200782F60E0292F30E0262B372B08C093
:1011A00084918093F1003196415050402F5F3F4F22
:1011B0004115510519F02830310590F390E02830A1
:1011C000310509F491E08091E8008E778093E80082
:1011D0004115510529F6992309F0C2CF05C08EB3F8
:1011E000882341F0853041F08091E80082FFF7CFFD
:1011F00080E0089582E0089583E008950F931F939F
:10120000DF93CF9300D0CDB7DEB7EAE4F3E080916F
:10121000F100819383E0E235F807C9F75EDB809146
:10122000E80083FFFEC080914A0330914B033530C4
:1012300009F487C0363040F43130C9F1313070F0F4
:10124000333009F0EEC033C0383009F4BDC0393056
:1012500009F4CCC0363009F0E4C096C0803821F0E3
:10126000823809F0DEC008C090914703809148039E
:10127000882399F0926011C080914E038F70809303
:10128000E9008091EB0090E025E0969587952A95FE
:10129000E1F7982F91701092E9008091E800877F24
:1012A0008093E8009093F1001092F10098C0882399
:1012B00019F0823009F0B5C090E08F7190700097FE
:1012C00021F0029709F0ADC00CC080914C03813031
:1012D00009F0A7C010924803333069F580934803A2
:1012E0002AC080914C03882331F520914E032F7042
:1012F00009F497C02093E9008091EB0080FF1BC0A8
:10130000333021F48091EB00806213C08091EB00B8
:1013100080618093EB0081E090E002C0880F991F0C
:101320002A95E2F78093EA001092EA008091EB00A0
:1013300088608093EB001092E9008091E800877F3D
:1013400051C0882309F06DC010914C031F770FB76F
:10135000F8948091E800877F8093E80022DD8091F7
:10136000E80080FFFCCF8091E3008078812B8093A0
:10137000E30080688093E300112311F482E001C050
:1013800083E08EBB0FBF4DC08058823008F049C04B
:1013900080914C0390914D0360914E03AE014F5FDD
:1013A0005F4F5DDCBC01009709F43BC08091E80011
:1013B000877F8093E80089819A81BADE8091E80076
:1013C0008B778093E8002DC0803859F58091E80034
:1013D000877F8093E800809146038093F10080919D
:1013E000E8008E778093E800DCDC1BC08823C9F41A
:1013F00090914C039230A8F48091E800877F80930D
:10140000E80090934603CDDC80914603882331F4B5
:101410008091E30087FD02C081E001C084E08EBBC3
:101420005FDA8091E80083FF0AC08091EB00806260
:101430008093EB008091E800877F8093E8000F9015
:101440000F90CF91DF911F910F91089508951F93F1
:101450008EB3882371F01091E9008091EC00109216
:10146000E9008091E80083FF01C0C8DE1F7010937F
:10147000E9001F910895FC018EB3843099F58489A9
:101480009589A689B7890097A105B10559F186818B
:101490008F708093E9008091E80082FF23C0409123
:1014A000F3002091F200942F80E030E0822B932B08
:1014B000892B19F46FEF7FEF04C08091F100682F42
:1014C00070E04091F3002091F200942F80E030E032
:1014D000822B932B892B41F48091E8008B778093AA
:1014E000E80002C06FEF7FEFCB0108950895FC0183
:1014F0008EB3843051F584899589A689B789009780
:10150000A105B10511F181818F708093E9004091AF
:10151000F3002091F200942F80E030E0822B932B97
:10152000892BA9F09091E8008091E8008E77809354
:10153000E80095FD0CC054DC982F882349F4809175
:10154000E8008E778093E80003C092E001C090E04D
:10155000892F0895FC018EB3843091F48489958994
:10156000A689B7890097A105B10551F081818F70D7
:101570008093E9008091E80080FF02C0CF01B7CFDF
:1015800008951F93FC01162F8EB38430E1F48489F3
:101590009589A689B7890097A105B105A1F0818138
:1015A0008F708093E9008091E80085FD08C08091EC
:1015B000E8008E778093E80013DC882329F41093E9
:1015C000F10080E001C082E01F910895CF93DF9386
:1015D000EC014096FC018BE0DF011D928A95E9F752
:1015E00082E08C83898783E08E87CE01019661E05B
:1015F0009CDB882371F0CE01069661E096DB8823A0
:1016000041F0CE010B9661E090DB882319F081E078
:1016100001C080E0DF91CF910895CF93DF93EC017B
:101620008091E80083FFA2C0888190E020914E0362
:1016300030914F032817390709F098C080914B0368
:10164000813269F0823220F4803209F08FC03CC0D0
:10165000823209F46AC0833209F088C079C080916F
:101660004A03813A09F082C08091E800877F809325
:10167000E8008091E80080FFFCCF8C899D89AE89CD
:10168000BF898093F100292F3A2F4B2F55272093A4
:10169000F1009D01442755272093F1008B2F9927B6
:1016A000AA27BB278093F100888D8093F100898D54
:1016B0008093F1008A8D8093F1008091E8008E770D
:1016C0008093E8006EDB52C080914A03813209F0BA
:1016D0004DC08091E800877F8093E80004C08EB3FE
:1016E000882309F443C08091E80082FFF8CF8091FD
:1016F000F1009091F1002091F1003091F1008C8B7C
:101700009D8B2E8B3F8B8091F100888F8091F10013
:10171000898F8091F1008A8F8091E8008B77809388
:10172000E8003FDBCE0197D821C080914A03813287
:10173000E9F48091E800877F8093E80032DB8091B4
:101740004C0390914D03998B888BCE01CFDE0EC058
:1017500080914A03813251F48091E800877F809321
:10176000E8001FDBCE0160914C03C0DEDF91CF911A
:101770000895A1E21A2EAA1BBB1BFD010DC0AA1FD2
:10178000BB1FEE1FFF1FA217B307E407F50720F0EA
:10179000A21BB30BE40BF50B661F771F881F991F65
:1017A0001A9469F760957095809590959B01AC01AE
:1017B000BD01CF0108952F923F924F925F926F9299
:1017C0007F928F929F92AF92BF92CF92DF92EF92D1
:1017D000FF920F931F93CF93DF93CDB7DEB7CA1B52
:1017E000DB0B0FB6F894DEBF0FBECDBF09942A887D
:1017F000398848885F846E847D848C849B84AA8425
:10180000B984C884DF80EE80FD800C811B81AA81B1
:10181000B981CE0FD11D0FB6F894DEBF0FBECDBF7C
:08182000ED010895F894FFCFDB
:10182800007000831000000104100000018208000D
:10183800000100000000000000000000002112105C
:1018480001301216091221000102020303030304E6
:101858000404040404040405050505050505050537
:101868000505050505050506060606060606060617
:101878000606060606060606060606060606060600
:1018880006060606060606070707070707070707E7
:1018980007070707070707070707070707070707D0
:1018A80007070707070707070707070707070707C0
:1018B80007070707070707070707070707070707B0
:1018C8000707070707070708080808080808080897
:1018D8000808080808080808080808080808080880
:1018E8000808080808080808080808080808080870
:1018F8000808080808080808080808080808080860
:10190800080808080808080808080808080808084F
:10191800080808080808080808080808080808083F
:10192800080808080808080808080808080808082F
:10193800080808080808080808080808080808081F
:0819480008080808080808005F
:00000001FF
